{
  "contractName": "Listings",
  "abi": [
    {
      "inputs": [],
      "stateMutability": "nonpayable",
      "type": "constructor"
    },
    {
      "inputs": [],
      "name": "OnlySimulatedBackend",
      "type": "error"
    },
    {
      "anonymous": false,
      "inputs": [
        {
          "indexed": false,
          "internalType": "address",
          "name": "buyerAddress",
          "type": "address"
        },
        {
          "indexed": false,
          "internalType": "string",
          "name": "ipfsHash",
          "type": "string"
        },
        {
          "indexed": false,
          "internalType": "uint256",
          "name": "amount",
          "type": "uint256"
        }
      ],
      "name": "BuyConfirmed",
      "type": "event"
    },
    {
      "anonymous": false,
      "inputs": [
        {
          "indexed": false,
          "internalType": "address",
          "name": "newContract",
          "type": "address"
        }
      ],
      "name": "ContractUpgrade",
      "type": "event"
    },
    {
      "anonymous": false,
      "inputs": [
        {
          "indexed": false,
          "internalType": "address",
          "name": "sellerAddress",
          "type": "address"
        },
        {
          "indexed": false,
          "internalType": "string",
          "name": "ipfsHash",
          "type": "string"
        },
        {
          "indexed": false,
          "internalType": "uint256",
          "name": "price",
          "type": "uint256"
        }
      ],
      "name": "ListingSubmitted",
      "type": "event"
    },
    {
      "anonymous": false,
      "inputs": [
        {
          "indexed": false,
          "internalType": "address",
          "name": "buyerAddress",
          "type": "address"
        },
        {
          "indexed": false,
          "internalType": "string",
          "name": "ipfsHash",
          "type": "string"
        },
        {
          "indexed": false,
          "internalType": "uint256",
          "name": "amount",
          "type": "uint256"
        }
      ],
      "name": "OfferAccepted",
      "type": "event"
    },
    {
      "anonymous": false,
      "inputs": [
        {
          "indexed": false,
          "internalType": "address",
          "name": "buyerAddress",
          "type": "address"
        },
        {
          "indexed": false,
          "internalType": "string",
          "name": "ipfsHash",
          "type": "string"
        },
        {
          "indexed": false,
          "internalType": "uint256",
          "name": "amount",
          "type": "uint256"
        }
      ],
      "name": "OfferMade",
      "type": "event"
    },
    {
      "inputs": [],
      "name": "ceoAddress",
      "outputs": [
        {
          "internalType": "address payable",
          "name": "",
          "type": "address"
        }
      ],
      "stateMutability": "view",
      "type": "function"
    },
    {
      "inputs": [],
      "name": "cfoAddress",
      "outputs": [
        {
          "internalType": "address",
          "name": "",
          "type": "address"
        }
      ],
      "stateMutability": "view",
      "type": "function"
    },
    {
      "inputs": [],
      "name": "cooAddress",
      "outputs": [
        {
          "internalType": "address",
          "name": "",
          "type": "address"
        }
      ],
      "stateMutability": "view",
      "type": "function"
    },
    {
      "inputs": [],
      "name": "interval",
      "outputs": [
        {
          "internalType": "uint256",
          "name": "",
          "type": "uint256"
        }
      ],
      "stateMutability": "view",
      "type": "function"
    },
    {
      "inputs": [],
      "name": "lastTimeStamp",
      "outputs": [
        {
          "internalType": "uint256",
          "name": "",
          "type": "uint256"
        }
      ],
      "stateMutability": "view",
      "type": "function"
    },
    {
      "inputs": [
        {
          "internalType": "string",
          "name": "",
          "type": "string"
        }
      ],
      "name": "listings",
      "outputs": [
        {
          "internalType": "address payable",
          "name": "sellerAddress",
          "type": "address"
        },
        {
          "internalType": "address",
          "name": "acceptedBuyer",
          "type": "address"
        },
        {
          "internalType": "address",
          "name": "finalBuyer",
          "type": "address"
        },
        {
          "internalType": "uint256",
          "name": "price",
          "type": "uint256"
        },
        {
          "internalType": "bool",
          "name": "priceIsInUSD",
          "type": "bool"
        },
        {
          "internalType": "uint256",
          "name": "date",
          "type": "uint256"
        },
        {
          "internalType": "bool",
          "name": "bought",
          "type": "bool"
        },
        {
          "internalType": "bool",
          "name": "isAuction",
          "type": "bool"
        },
        {
          "internalType": "address payable",
          "name": "useThirdPartyAddress",
          "type": "address"
        }
      ],
      "stateMutability": "view",
      "type": "function"
    },
    {
      "inputs": [
        {
          "internalType": "uint256",
          "name": "",
          "type": "uint256"
        }
      ],
      "name": "listingsArray",
      "outputs": [
        {
          "internalType": "string",
          "name": "",
          "type": "string"
        }
      ],
      "stateMutability": "view",
      "type": "function"
    },
    {
      "inputs": [],
      "name": "pause",
      "outputs": [],
      "stateMutability": "nonpayable",
      "type": "function"
    },
    {
      "inputs": [],
      "name": "paused",
      "outputs": [
        {
          "internalType": "bool",
          "name": "",
          "type": "bool"
        }
      ],
      "stateMutability": "view",
      "type": "function"
    },
    {
      "inputs": [
        {
          "internalType": "address",
          "name": "_newCEO",
          "type": "address"
        }
      ],
      "name": "setCEO",
      "outputs": [],
      "stateMutability": "nonpayable",
      "type": "function"
    },
    {
      "inputs": [
        {
          "internalType": "address",
          "name": "_newCFO",
          "type": "address"
        }
      ],
      "name": "setCFO",
      "outputs": [],
      "stateMutability": "nonpayable",
      "type": "function"
    },
    {
      "inputs": [
        {
          "internalType": "address",
          "name": "_newCOO",
          "type": "address"
        }
      ],
      "name": "setCOO",
      "outputs": [],
      "stateMutability": "nonpayable",
      "type": "function"
    },
    {
      "inputs": [],
      "name": "unpause",
      "outputs": [],
      "stateMutability": "nonpayable",
      "type": "function"
    },
    {
      "inputs": [
        {
          "internalType": "uint256",
          "name": "newInterval",
          "type": "uint256"
        }
      ],
      "name": "setInterval",
      "outputs": [],
      "stateMutability": "nonpayable",
      "type": "function"
    },
    {
      "inputs": [
        {
          "internalType": "string",
          "name": "ipfsHash",
          "type": "string"
        },
        {
          "internalType": "uint256",
          "name": "price",
          "type": "uint256"
        },
        {
          "internalType": "bool",
          "name": "isAuction",
          "type": "bool"
        },
        {
          "internalType": "bool",
          "name": "priceIsInUSD",
          "type": "bool"
        },
        {
          "internalType": "address payable",
          "name": "useThirdPartyAddress",
          "type": "address"
        }
      ],
      "name": "createThirdPartyListing",
      "outputs": [],
      "stateMutability": "payable",
      "type": "function"
    },
    {
      "inputs": [
        {
          "internalType": "string",
          "name": "ipfsHash",
          "type": "string"
        },
        {
          "internalType": "uint256",
          "name": "price",
          "type": "uint256"
        },
        {
          "internalType": "bool",
          "name": "isAuction",
          "type": "bool"
        },
        {
          "internalType": "bool",
          "name": "priceIsInUSD",
          "type": "bool"
        }
      ],
      "name": "createListing",
      "outputs": [],
      "stateMutability": "payable",
      "type": "function"
    },
    {
      "inputs": [
        {
          "internalType": "string",
          "name": "ipfsHash",
          "type": "string"
        }
      ],
      "name": "makeOffer",
      "outputs": [],
      "stateMutability": "payable",
      "type": "function"
    },
    {
      "inputs": [
        {
          "internalType": "string",
          "name": "ipfsHash",
          "type": "string"
        }
      ],
      "name": "confirmBuy",
      "outputs": [],
      "stateMutability": "nonpayable",
      "type": "function"
    },
    {
      "inputs": [
        {
          "internalType": "string",
          "name": "ipfsHash",
          "type": "string"
        },
        {
          "internalType": "address",
          "name": "buyerToAccept",
          "type": "address"
        }
      ],
      "name": "acceptOffer",
      "outputs": [],
      "stateMutability": "nonpayable",
      "type": "function"
    },
    {
      "inputs": [
        {
          "internalType": "bytes",
          "name": "",
          "type": "bytes"
        }
      ],
      "name": "checkUpkeep",
      "outputs": [
        {
          "internalType": "bool",
          "name": "upkeepNeeded",
          "type": "bool"
        },
        {
          "internalType": "bytes",
          "name": "performData",
          "type": "bytes"
        }
      ],
      "stateMutability": "view",
      "type": "function"
    },
    {
      "inputs": [
        {
          "internalType": "bytes",
          "name": "performData",
          "type": "bytes"
        }
      ],
      "name": "performUpkeep",
      "outputs": [],
      "stateMutability": "nonpayable",
      "type": "function"
    },
    {
      "inputs": [],
      "name": "getListingsArray",
      "outputs": [
        {
          "internalType": "string[]",
          "name": "",
          "type": "string[]"
        }
      ],
      "stateMutability": "view",
      "type": "function"
    },
    {
      "inputs": [
        {
          "internalType": "string",
          "name": "ipfsHash",
          "type": "string"
        }
      ],
      "name": "getBuyersForListing",
      "outputs": [
        {
          "internalType": "address[]",
          "name": "",
          "type": "address[]"
        }
      ],
      "stateMutability": "view",
      "type": "function"
    },
    {
      "inputs": [
        {
          "internalType": "string",
          "name": "ipfsHash",
          "type": "string"
        }
      ],
      "name": "getPriceForListing",
      "outputs": [
        {
          "internalType": "uint256",
          "name": "",
          "type": "uint256"
        }
      ],
      "stateMutability": "view",
      "type": "function"
    },
    {
      "inputs": [
        {
          "internalType": "string",
          "name": "ipfsHash",
          "type": "string"
        }
      ],
      "name": "getHighestBuyerForAuction",
      "outputs": [
        {
          "internalType": "address",
          "name": "",
          "type": "address"
        }
      ],
      "stateMutability": "view",
      "type": "function"
    },
    {
      "inputs": [
        {
          "internalType": "string",
          "name": "ipfsHash",
          "type": "string"
        }
      ],
      "name": "getHighestAmountForAuction",
      "outputs": [
        {
          "internalType": "uint256",
          "name": "",
          "type": "uint256"
        }
      ],
      "stateMutability": "view",
      "type": "function"
    },
    {
      "inputs": [
        {
          "internalType": "string",
          "name": "ipfsHash",
          "type": "string"
        },
        {
          "internalType": "address",
          "name": "buyer",
          "type": "address"
        }
      ],
      "name": "getOfferForBuyerInAuction",
      "outputs": [
        {
          "internalType": "uint256",
          "name": "",
          "type": "uint256"
        }
      ],
      "stateMutability": "view",
      "type": "function"
    },
    {
      "inputs": [
        {
          "internalType": "string",
          "name": "ipfsHash",
          "type": "string"
        }
      ],
      "name": "getSellerForListing",
      "outputs": [
        {
          "internalType": "address",
          "name": "",
          "type": "address"
        }
      ],
      "stateMutability": "view",
      "type": "function"
    },
    {
      "inputs": [
        {
          "internalType": "string",
          "name": "ipfsHash",
          "type": "string"
        }
      ],
      "name": "getThirdPartyForListing",
      "outputs": [
        {
          "internalType": "address",
          "name": "",
          "type": "address"
        }
      ],
      "stateMutability": "view",
      "type": "function"
    },
    {
      "inputs": [
        {
          "internalType": "string",
          "name": "ipfsHash",
          "type": "string"
        }
      ],
      "name": "getDateForListing",
      "outputs": [
        {
          "internalType": "uint256",
          "name": "",
          "type": "uint256"
        }
      ],
      "stateMutability": "view",
      "type": "function"
    },
    {
      "inputs": [
        {
          "internalType": "string",
          "name": "ipfsHash",
          "type": "string"
        }
      ],
      "name": "getBoughtForListing",
      "outputs": [
        {
          "internalType": "bool",
          "name": "",
          "type": "bool"
        }
      ],
      "stateMutability": "view",
      "type": "function"
    },
    {
      "inputs": [
        {
          "internalType": "string",
          "name": "ipfsHash",
          "type": "string"
        }
      ],
      "name": "getFinalBuyerForListing",
      "outputs": [
        {
          "internalType": "address",
          "name": "",
          "type": "address"
        }
      ],
      "stateMutability": "view",
      "type": "function"
    },
    {
      "inputs": [
        {
          "internalType": "string",
          "name": "ipfsHash",
          "type": "string"
        }
      ],
      "name": "getIsAcceptedForListing",
      "outputs": [
        {
          "internalType": "bool",
          "name": "",
          "type": "bool"
        }
      ],
      "stateMutability": "view",
      "type": "function"
    },
    {
      "inputs": [
        {
          "internalType": "string",
          "name": "ipfsHash",
          "type": "string"
        }
      ],
      "name": "getIsAuction",
      "outputs": [
        {
          "internalType": "bool",
          "name": "",
          "type": "bool"
        }
      ],
      "stateMutability": "view",
      "type": "function"
    },
    {
      "inputs": [
        {
          "internalType": "string",
          "name": "ipfsHash",
          "type": "string"
        }
      ],
      "name": "getIsThirdParty",
      "outputs": [
        {
          "internalType": "bool",
          "name": "",
          "type": "bool"
        }
      ],
      "stateMutability": "view",
      "type": "function"
    },
    {
      "inputs": [],
      "name": "kill",
      "outputs": [],
      "stateMutability": "nonpayable",
      "type": "function"
    }
  ],
  "bytecode": "0x60806040526000600260146101000a81548160ff021916908315150217905550636c258c0060065534801561003357600080fd5b50336000806101000a81548173ffffffffffffffffffffffffffffffffffffffff021916908373ffffffffffffffffffffffffffffffffffffffff16021790555042600581905550615e19806200008b6000396000f3fe60806040526004361061020e5760003560e01c806348fb8c221161011857806390a33937116100a0578063cc8039341161006f578063cc803934146107d3578063ceb6440414610810578063e1b9ae661461084d578063e2fabbe81461088a578063fad05b02146108b55761020e565b806390a3393714610703578063947a36fb14610740578063b047fb501461076b578063c6db5464146107965761020e565b80636748fbe3116100e75780636748fbe3146106035780636e04ff0d1461064057806377dec6c31461067e57806384328e20146106c35780638456cb59146106ec5761020e565b806348fb8c22146105355780634e0a3379146105725780635c975abb1461059b578063629b5e96146105c65761020e565b80632ba73c151161019b5780633f3b3b271161016a5780633f3b3b27146104975780633f4ba83a146104c257806340b0f375146104d957806341c0e1b5146104f55780634585e33b1461050c5761020e565b80632ba73c15146103ec5780632f97d215146104155780633abe2170146104525780633e3c82dc1461046e5761020e565b80631cd49328116101e25780631cd49328146102e35780631d76fe201461032057806322a900821461035d57806327d7874c146103865780632b3ac739146103af5761020e565b806217e8a7146102135780630519ce79146102505780630a0f81681461027b5780630cd593ce146102a6575b600080fd5b34801561021f57600080fd5b5061023a60048036038101906102359190614515565b6108d1565b60405161024791906151ce565b60405180910390f35b34801561025c57600080fd5b506102656109fa565b6040516102729190614d1c565b60405180910390f35b34801561028757600080fd5b50610290610a20565b60405161029d9190614d37565b60405180910390f35b3480156102b257600080fd5b506102cd60048036038101906102c89190614515565b610a44565b6040516102da9190614d1c565b60405180910390f35b3480156102ef57600080fd5b5061030a60048036038101906103059190614515565b610bf6565b6040516103179190614e61565b60405180910390f35b34801561032c57600080fd5b5061034760048036038101906103429190614515565b610ce4565b60405161035491906151ce565b60405180910390f35b34801561036957600080fd5b50610384600480360381019061037f91906146d4565b610dc5565b005b34801561039257600080fd5b506103ad60048036038101906103a89190614452565b610ef1565b005b3480156103bb57600080fd5b506103d660048036038101906103d19190614515565b610fc6565b6040516103e39190614d1c565b60405180910390f35b3480156103f857600080fd5b50610413600480360381019061040e9190614452565b611178565b005b34801561042157600080fd5b5061043c6004803603810190610437919061455e565b61124e565b60405161044991906151ce565b60405180910390f35b61046c6004803603810190610467919061463d565b611484565b005b34801561047a57600080fd5b5061049560048036038101906104909190614515565b611511565b005b3480156104a357600080fd5b506104ac611da8565b6040516104b991906151ce565b60405180910390f35b3480156104ce57600080fd5b506104d7611dae565b005b6104f360048036038101906104ee9190614515565b611e3c565b005b34801561050157600080fd5b5061050a61225b565b005b34801561051857600080fd5b50610533600480360381019061052e91906144c8565b612306565b005b34801561054157600080fd5b5061055c600480360381019061055791906146d4565b6123ab565b6040516105699190614eac565b60405180910390f35b34801561057e57600080fd5b5061059960048036038101906105949190614452565b612457565b005b3480156105a757600080fd5b506105b061252d565b6040516105bd9190614e61565b60405180910390f35b3480156105d257600080fd5b506105ed60048036038101906105e89190614515565b612540565b6040516105fa9190614e61565b60405180910390f35b34801561060f57600080fd5b5061062a60048036038101906106259190614515565b6126ea565b6040516106379190614e61565b60405180910390f35b34801561064c57600080fd5b50610667600480360381019061066291906144c8565b6127d8565b604051610675929190614e7c565b60405180910390f35b34801561068a57600080fd5b506106a560048036038101906106a09190614515565b6129d4565b6040516106ba99989796959493929190614d52565b60405180910390f35b3480156106cf57600080fd5b506106ea60048036038101906106e5919061455e565b612adf565b005b3480156106f857600080fd5b50610701612f9f565b005b34801561070f57600080fd5b5061072a60048036038101906107259190614515565b6130de565b6040516107379190614e61565b60405180910390f35b34801561074c57600080fd5b50610755613209565b60405161076291906151ce565b60405180910390f35b34801561077757600080fd5b5061078061320f565b60405161078d9190614d1c565b60405180910390f35b3480156107a257600080fd5b506107bd60048036038101906107b89190614515565b613235565b6040516107ca9190614e1d565b60405180910390f35b3480156107df57600080fd5b506107fa60048036038101906107f59190614515565b613450565b6040516108079190614d1c565b60405180910390f35b34801561081c57600080fd5b5061083760048036038101906108329190614515565b6136e8565b6040516108449190614d1c565b60405180910390f35b34801561085957600080fd5b50610874600480360381019061086f9190614515565b6137e9565b60405161088191906151ce565b60405180910390f35b34801561089657600080fd5b5061089f6138ca565b6040516108ac9190614e3f565b60405180910390f35b6108cf60048036038101906108ca91906145ba565b613a13565b005b60008073ffffffffffffffffffffffffffffffffffffffff166003836040516108fa9190614cee565b908152602001604051809103902060000160009054906101000a900473ffffffffffffffffffffffffffffffffffffffff1673ffffffffffffffffffffffffffffffffffffffff161415610983576040517f08c379a000000000000000000000000000000000000000000000000000000000815260040161097a90614f2e565b60405180910390fd5b60006003836040516109959190614cee565b908152602001604051809103902060020180549050116109ea576040517f08c379a00000000000000000000000000000000000000000000000000000000081526004016109e19061504e565b60405180910390fd5b6109f382613cb2565b9050919050565b600160009054906101000a900473ffffffffffffffffffffffffffffffffffffffff1681565b60008054906101000a900473ffffffffffffffffffffffffffffffffffffffff1681565b60008073ffffffffffffffffffffffffffffffffffffffff16600383604051610a6d9190614cee565b908152602001604051809103902060000160009054906101000a900473ffffffffffffffffffffffffffffffffffffffff1673ffffffffffffffffffffffffffffffffffffffff161415610af6576040517f08c379a0000000000000000000000000000000000000000000000000000000008152600401610aed90614f2e565b60405180910390fd5b600073ffffffffffffffffffffffffffffffffffffffff16600383604051610b1e9190614cee565b908152602001604051809103902060080160029054906101000a900473ffffffffffffffffffffffffffffffffffffffff1673ffffffffffffffffffffffffffffffffffffffff161415610ba7576040517f08c379a0000000000000000000000000000000000000000000000000000000008152600401610b9e9061500e565b60405180910390fd5b6000600383604051610bb99190614cee565b908152602001604051809103902060080160029054906101000a900473ffffffffffffffffffffffffffffffffffffffff16905080915050919050565b60008073ffffffffffffffffffffffffffffffffffffffff16600383604051610c1f9190614cee565b908152602001604051809103902060000160009054906101000a900473ffffffffffffffffffffffffffffffffffffffff1673ffffffffffffffffffffffffffffffffffffffff161415610ca8576040517f08c379a0000000000000000000000000000000000000000000000000000000008152600401610c9f90614f2e565b60405180910390fd5b6000600383604051610cba9190614cee565b908152602001604051809103902060080160019054906101000a900460ff16905080915050919050565b60008073ffffffffffffffffffffffffffffffffffffffff16600383604051610d0d9190614cee565b908152602001604051809103902060000160009054906101000a900473ffffffffffffffffffffffffffffffffffffffff1673ffffffffffffffffffffffffffffffffffffffff161415610d96576040517f08c379a0000000000000000000000000000000000000000000000000000000008152600401610d8d90614f2e565b60405180910390fd5b6000600383604051610da89190614cee565b908152602001604051809103902060070154905080915050919050565b600260149054906101000a900460ff1615610ddf57600080fd5b600260009054906101000a900473ffffffffffffffffffffffffffffffffffffffff1673ffffffffffffffffffffffffffffffffffffffff163373ffffffffffffffffffffffffffffffffffffffff161480610e86575060008054906101000a900473ffffffffffffffffffffffffffffffffffffffff1673ffffffffffffffffffffffffffffffffffffffff163373ffffffffffffffffffffffffffffffffffffffff16145b80610ede5750600160009054906101000a900473ffffffffffffffffffffffffffffffffffffffff1673ffffffffffffffffffffffffffffffffffffffff163373ffffffffffffffffffffffffffffffffffffffff16145b610ee757600080fd5b8060068190555050565b60008054906101000a900473ffffffffffffffffffffffffffffffffffffffff1673ffffffffffffffffffffffffffffffffffffffff163373ffffffffffffffffffffffffffffffffffffffff1614610f4957600080fd5b600073ffffffffffffffffffffffffffffffffffffffff168173ffffffffffffffffffffffffffffffffffffffff161415610f8357600080fd5b806000806101000a81548173ffffffffffffffffffffffffffffffffffffffff021916908373ffffffffffffffffffffffffffffffffffffffff16021790555050565b60008073ffffffffffffffffffffffffffffffffffffffff16600383604051610fef9190614cee565b908152602001604051809103902060000160009054906101000a900473ffffffffffffffffffffffffffffffffffffffff1673ffffffffffffffffffffffffffffffffffffffff161415611078576040517f08c379a000000000000000000000000000000000000000000000000000000000815260040161106f90614f2e565b60405180910390fd5b600073ffffffffffffffffffffffffffffffffffffffff166003836040516110a09190614cee565b908152602001604051809103902060040160009054906101000a900473ffffffffffffffffffffffffffffffffffffffff1673ffffffffffffffffffffffffffffffffffffffff161415611129576040517f08c379a00000000000000000000000000000000000000000000000000000000081526004016111209061518e565b60405180910390fd5b600060038360405161113b9190614cee565b908152602001604051809103902060040160009054906101000a900473ffffffffffffffffffffffffffffffffffffffff16905080915050919050565b60008054906101000a900473ffffffffffffffffffffffffffffffffffffffff1673ffffffffffffffffffffffffffffffffffffffff163373ffffffffffffffffffffffffffffffffffffffff16146111d057600080fd5b600073ffffffffffffffffffffffffffffffffffffffff168173ffffffffffffffffffffffffffffffffffffffff16141561120a57600080fd5b80600260006101000a81548173ffffffffffffffffffffffffffffffffffffffff021916908373ffffffffffffffffffffffffffffffffffffffff16021790555050565b60008073ffffffffffffffffffffffffffffffffffffffff166003846040516112779190614cee565b908152602001604051809103902060000160009054906101000a900473ffffffffffffffffffffffffffffffffffffffff1673ffffffffffffffffffffffffffffffffffffffff161415611300576040517f08c379a00000000000000000000000000000000000000000000000000000000081526004016112f790614f2e565b60405180910390fd5b600115156003846040516113149190614cee565b908152602001604051809103902060080160019054906101000a900460ff16151514611375576040517f08c379a000000000000000000000000000000000000000000000000000000000815260040161136c90614fee565b60405180910390fd5b60006003846040516113879190614cee565b908152602001604051809103902060010160008473ffffffffffffffffffffffffffffffffffffffff1673ffffffffffffffffffffffffffffffffffffffff168152602001908152602001600020541415611417576040517f08c379a000000000000000000000000000000000000000000000000000000000815260040161140e90614f4e565b60405180910390fd5b60006003846040516114299190614cee565b908152602001604051809103902060010160008473ffffffffffffffffffffffffffffffffffffffff1673ffffffffffffffffffffffffffffffffffffffff1681526020019081526020016000205490508091505092915050565b600260149054906101000a900460ff161561149e57600080fd5b6114aa85858585613a13565b806003866040516114bb9190614cee565b908152602001604051809103902060080160026101000a81548173ffffffffffffffffffffffffffffffffffffffff021916908373ffffffffffffffffffffffffffffffffffffffff1602179055505050505050565b600260149054906101000a900460ff161561152b57600080fd5b600060038260405161153d9190614cee565b908152602001604051809103902060010160003373ffffffffffffffffffffffffffffffffffffffff1673ffffffffffffffffffffffffffffffffffffffff16815260200190815260200160002054116115cc576040517f08c379a00000000000000000000000000000000000000000000000000000000081526004016115c390614eee565b60405180910390fd5b600015156003826040516115e09190614cee565b908152602001604051809103902060080160009054906101000a900460ff16151514611641576040517f08c379a000000000000000000000000000000000000000000000000000000000815260040161163890614fce565b60405180910390fd5b600073ffffffffffffffffffffffffffffffffffffffff166003826040516116699190614cee565b908152602001604051809103902060040160009054906101000a900473ffffffffffffffffffffffffffffffffffffffff1673ffffffffffffffffffffffffffffffffffffffff16146116f1576040517f08c379a00000000000000000000000000000000000000000000000000000000081526004016116e890614f0e565b60405180910390fd5b6116fa81613e87565b611739576040517f08c379a00000000000000000000000000000000000000000000000000000000081526004016117309061516e565b60405180910390fd5b60005b60038260405161174c9190614cee565b908152602001604051809103902060020180549050811015611c71573373ffffffffffffffffffffffffffffffffffffffff1660038360405161178f9190614cee565b908152602001604051809103902060020182815481106117b2576117b1615520565b5b9060005260206000200160009054906101000a900473ffffffffffffffffffffffffffffffffffffffff1673ffffffffffffffffffffffffffffffffffffffff161461195c576003826040516118089190614cee565b9081526020016040518091039020600201818154811061182b5761182a615520565b5b9060005260206000200160009054906101000a900473ffffffffffffffffffffffffffffffffffffffff1673ffffffffffffffffffffffffffffffffffffffff166108fc60038460405161187f9190614cee565b908152602001604051809103902060010160006003866040516118a29190614cee565b908152602001604051809103902060020185815481106118c5576118c4615520565b5b9060005260206000200160009054906101000a900473ffffffffffffffffffffffffffffffffffffffff1673ffffffffffffffffffffffffffffffffffffffff1673ffffffffffffffffffffffffffffffffffffffff168152602001908152602001600020549081150290604051600060405180830381858888f19350505050158015611956573d6000803e3d6000fd5b50611c5e565b600073ffffffffffffffffffffffffffffffffffffffff166003836040516119849190614cee565b908152602001604051809103902060080160029054906101000a900473ffffffffffffffffffffffffffffffffffffffff1673ffffffffffffffffffffffffffffffffffffffff1614611b19576003826040516119e19190614cee565b908152602001604051809103902060080160029054906101000a900473ffffffffffffffffffffffffffffffffffffffff1673ffffffffffffffffffffffffffffffffffffffff166108fc600384604051611a3c9190614cee565b90815260200160405180910390206001016000600386604051611a5f9190614cee565b90815260200160405180910390206002018581548110611a8257611a81615520565b5b9060005260206000200160009054906101000a900473ffffffffffffffffffffffffffffffffffffffff1673ffffffffffffffffffffffffffffffffffffffff1673ffffffffffffffffffffffffffffffffffffffff168152602001908152602001600020549081150290604051600060405180830381858888f19350505050158015611b13573d6000803e3d6000fd5b50611c5d565b600382604051611b299190614cee565b908152602001604051809103902060000160009054906101000a900473ffffffffffffffffffffffffffffffffffffffff1673ffffffffffffffffffffffffffffffffffffffff166108fc600384604051611b849190614cee565b90815260200160405180910390206001016000600386604051611ba79190614cee565b90815260200160405180910390206002018581548110611bca57611bc9615520565b5b9060005260206000200160009054906101000a900473ffffffffffffffffffffffffffffffffffffffff1673ffffffffffffffffffffffffffffffffffffffff1673ffffffffffffffffffffffffffffffffffffffff168152602001908152602001600020549081150290604051600060405180830381858888f19350505050158015611c5b573d6000803e3d6000fd5b505b5b8080611c6990615479565b91505061173c565b506001600382604051611c849190614cee565b908152602001604051809103902060080160006101000a81548160ff02191690831515021790555033600382604051611cbd9190614cee565b908152602001604051809103902060040160006101000a81548173ffffffffffffffffffffffffffffffffffffffff021916908373ffffffffffffffffffffffffffffffffffffffff1602179055507f732caf405705f1e8b94769d7cec34ccc5962b55698a279b09d9e28030f269f663382600384604051611d3f9190614cee565b908152602001604051809103902060010160003373ffffffffffffffffffffffffffffffffffffffff1673ffffffffffffffffffffffffffffffffffffffff16815260200190815260200160002054604051611d9d93929190614ddf565b60405180910390a150565b60055481565b60008054906101000a900473ffffffffffffffffffffffffffffffffffffffff1673ffffffffffffffffffffffffffffffffffffffff163373ffffffffffffffffffffffffffffffffffffffff1614611e0657600080fd5b600260149054906101000a900460ff16611e1f57600080fd5b6000600260146101000a81548160ff021916908315150217905550565b600260149054906101000a900460ff1615611e5657600080fd5b3373ffffffffffffffffffffffffffffffffffffffff16600382604051611e7d9190614cee565b908152602001604051809103902060000160009054906101000a900473ffffffffffffffffffffffffffffffffffffffff1673ffffffffffffffffffffffffffffffffffffffff161415611f06576040517f08c379a0000000000000000000000000000000000000000000000000000000008152600401611efd9061502e565b60405180910390fd5b60001515600382604051611f1a9190614cee565b908152602001604051809103902060080160009054906101000a900460ff16151514611f7b576040517f08c379a0000000000000000000000000000000000000000000000000000000008152600401611f7290614f8e565b60405180910390fd5b600073ffffffffffffffffffffffffffffffffffffffff16600382604051611fa39190614cee565b908152602001604051809103902060040160009054906101000a900473ffffffffffffffffffffffffffffffffffffffff1673ffffffffffffffffffffffffffffffffffffffff161461202b576040517f08c379a0000000000000000000000000000000000000000000000000000000008152600401612022906150ae565b60405180910390fd5b61203481613f4d565b346003826040516120459190614cee565b9081526020016040518091039020600501541115612098576040517f08c379a000000000000000000000000000000000000000000000000000000000815260040161208f90614fae565b60405180910390fd5b346003826040516120a99190614cee565b908152602001604051809103902060010160003373ffffffffffffffffffffffffffffffffffffffff1673ffffffffffffffffffffffffffffffffffffffff1681526020019081526020016000205410612138576040517f08c379a000000000000000000000000000000000000000000000000000000000815260040161212f9061506e565b60405180910390fd5b346003826040516121499190614cee565b908152602001604051809103902060010160003373ffffffffffffffffffffffffffffffffffffffff1673ffffffffffffffffffffffffffffffffffffffff168152602001908152602001600020819055506003816040516121ab9190614cee565b9081526020016040518091039020600201339080600181540180825580915050600190039060005260206000200160009091909190916101000a81548173ffffffffffffffffffffffffffffffffffffffff021916908373ffffffffffffffffffffffffffffffffffffffff1602179055507f3f632af37196b42ae1309788f42170522fbc34e71c4a275d9ebc5dad19ad7e1c33823460405161225093929190614ddf565b60405180910390a150565b60008054906101000a900473ffffffffffffffffffffffffffffffffffffffff1673ffffffffffffffffffffffffffffffffffffffff163373ffffffffffffffffffffffffffffffffffffffff16146122b357600080fd5b600260149054906101000a900460ff16156122cd57600080fd5b60008054906101000a900473ffffffffffffffffffffffffffffffffffffffff1673ffffffffffffffffffffffffffffffffffffffff16ff5b60008282810190612317919061447f565b905060005b81518110156123a557612369600383838151811061233d5761233c615520565b5b60200260200101516040516123529190614cee565b90815260200160405180910390206007015461407b565b156123925761239182828151811061238457612383615520565b5b6020026020010151614094565b5b808061239d90615479565b91505061231c565b50505050565b600481815481106123bb57600080fd5b9060005260206000200160009150905080546123d690615416565b80601f016020809104026020016040519081016040528092919081815260200182805461240290615416565b801561244f5780601f106124245761010080835404028352916020019161244f565b820191906000526020600020905b81548152906001019060200180831161243257829003601f168201915b505050505081565b60008054906101000a900473ffffffffffffffffffffffffffffffffffffffff1673ffffffffffffffffffffffffffffffffffffffff163373ffffffffffffffffffffffffffffffffffffffff16146124af57600080fd5b600073ffffffffffffffffffffffffffffffffffffffff168173ffffffffffffffffffffffffffffffffffffffff1614156124e957600080fd5b80600160006101000a81548173ffffffffffffffffffffffffffffffffffffffff021916908373ffffffffffffffffffffffffffffffffffffffff16021790555050565b600260149054906101000a900460ff1681565b60006003826040516125529190614cee565b908152602001604051809103902060080160019054906101000a900460ff166125b0576040517f08c379a00000000000000000000000000000000000000000000000000000000081526004016125a7906150ee565b60405180910390fd5b600073ffffffffffffffffffffffffffffffffffffffff166003836040516125d89190614cee565b908152602001604051809103902060000160009054906101000a900473ffffffffffffffffffffffffffffffffffffffff1673ffffffffffffffffffffffffffffffffffffffff161415612661576040517f08c379a000000000000000000000000000000000000000000000000000000000815260040161265890614f2e565b60405180910390fd5b600073ffffffffffffffffffffffffffffffffffffffff166003836040516126899190614cee565b908152602001604051809103902060030160009054906101000a900473ffffffffffffffffffffffffffffffffffffffff1673ffffffffffffffffffffffffffffffffffffffff1614156126e057600090506126e5565b600190505b919050565b60008073ffffffffffffffffffffffffffffffffffffffff166003836040516127139190614cee565b908152602001604051809103902060000160009054906101000a900473ffffffffffffffffffffffffffffffffffffffff1673ffffffffffffffffffffffffffffffffffffffff16141561279c576040517f08c379a000000000000000000000000000000000000000000000000000000000815260040161279390614f2e565b60405180910390fd5b60006003836040516127ae9190614cee565b908152602001604051809103902060080160009054906101000a900460ff16905080915050919050565b60006060600060048054905067ffffffffffffffff8111156127fd576127fc61554f565b5b60405190808252806020026020018201604052801561283057816020015b606081526020019060019003908161281b5790505b5090506000805b60048054905081101561296d5761288b60036004838154811061285d5761285c615520565b5b906000526020600020016040516128749190614d05565b90815260200160405180910390206007015461407b565b1561295a57600481815481106128a4576128a3615520565b5b9060005260206000200180546128b990615416565b80601f01602080910402602001604051908101604052809291908181526020018280546128e590615416565b80156129325780601f1061290757610100808354040283529160200191612932565b820191906000526020600020905b81548152906001019060200180831161291557829003601f168201915b505050505083828151811061294a57612949615520565b5b6020026020010181905250600191505b808061296590615479565b915050612837565b5080156129a157816040516020016129859190614e3f565b60405160208183030381529060405292506001935050506129cd565b6060806040516020016129b49190614e3f565b6040516020818303038152906040529350600094505050505b9250929050565b6003818051602081018201805184825260208301602085012081835280955050505050506000915090508060000160009054906101000a900473ffffffffffffffffffffffffffffffffffffffff16908060030160009054906101000a900473ffffffffffffffffffffffffffffffffffffffff16908060040160009054906101000a900473ffffffffffffffffffffffffffffffffffffffff16908060050154908060060160009054906101000a900460ff16908060070154908060080160009054906101000a900460ff16908060080160019054906101000a900460ff16908060080160029054906101000a900473ffffffffffffffffffffffffffffffffffffffff16905089565b600260149054906101000a900460ff1615612af957600080fd5b60011515600383604051612b0d9190614cee565b908152602001604051809103902060080160019054906101000a900460ff16151514612b6e576040517f08c379a0000000000000000000000000000000000000000000000000000000008152600401612b659061514e565b60405180910390fd5b3373ffffffffffffffffffffffffffffffffffffffff16600383604051612b959190614cee565b908152602001604051809103902060000160009054906101000a900473ffffffffffffffffffffffffffffffffffffffff1673ffffffffffffffffffffffffffffffffffffffff1614612c1d576040517f08c379a0000000000000000000000000000000000000000000000000000000008152600401612c149061512e565b60405180910390fd5b600073ffffffffffffffffffffffffffffffffffffffff16600383604051612c459190614cee565b908152602001604051809103902060040160009054906101000a900473ffffffffffffffffffffffffffffffffffffffff1673ffffffffffffffffffffffffffffffffffffffff1614612ccd576040517f08c379a0000000000000000000000000000000000000000000000000000000008152600401612cc4906151ae565b60405180910390fd5b6000600383604051612cdf9190614cee565b908152602001604051809103902060010160008373ffffffffffffffffffffffffffffffffffffffff1673ffffffffffffffffffffffffffffffffffffffff1681526020019081526020016000205411612d6e576040517f08c379a0000000000000000000000000000000000000000000000000000000008152600401612d659061510e565b60405180910390fd5b600073ffffffffffffffffffffffffffffffffffffffff16600383604051612d969190614cee565b908152602001604051809103902060030160009054906101000a900473ffffffffffffffffffffffffffffffffffffffff1673ffffffffffffffffffffffffffffffffffffffff1614612e1e576040517f08c379a0000000000000000000000000000000000000000000000000000000008152600401612e159061508e565b60405180910390fd5b80600383604051612e2f9190614cee565b908152602001604051809103902060030160006101000a81548173ffffffffffffffffffffffffffffffffffffffff021916908373ffffffffffffffffffffffffffffffffffffffff160217905550600382604051612e8e9190614cee565b908152602001604051809103902060010160008273ffffffffffffffffffffffffffffffffffffffff1673ffffffffffffffffffffffffffffffffffffffff16815260200190815260200160002054600383604051612eed9190614cee565b9081526020016040518091039020600501819055507f0b60c70910b915912c63957910ea661ff735c3cff274e7f95ca0e2b69b15074d8183600385604051612f359190614cee565b908152602001604051809103902060010160008573ffffffffffffffffffffffffffffffffffffffff1673ffffffffffffffffffffffffffffffffffffffff16815260200190815260200160002054604051612f9393929190614ddf565b60405180910390a15050565b600260009054906101000a900473ffffffffffffffffffffffffffffffffffffffff1673ffffffffffffffffffffffffffffffffffffffff163373ffffffffffffffffffffffffffffffffffffffff161480613046575060008054906101000a900473ffffffffffffffffffffffffffffffffffffffff1673ffffffffffffffffffffffffffffffffffffffff163373ffffffffffffffffffffffffffffffffffffffff16145b8061309e5750600160009054906101000a900473ffffffffffffffffffffffffffffffffffffffff1673ffffffffffffffffffffffffffffffffffffffff163373ffffffffffffffffffffffffffffffffffffffff16145b6130a757600080fd5b600260149054906101000a900460ff16156130c157600080fd5b6001600260146101000a81548160ff021916908315150217905550565b60008073ffffffffffffffffffffffffffffffffffffffff166003836040516131079190614cee565b908152602001604051809103902060000160009054906101000a900473ffffffffffffffffffffffffffffffffffffffff1673ffffffffffffffffffffffffffffffffffffffff161415613190576040517f08c379a000000000000000000000000000000000000000000000000000000000815260040161318790614f2e565b60405180910390fd5b600073ffffffffffffffffffffffffffffffffffffffff166003836040516131b89190614cee565b908152602001604051809103902060080160029054906101000a900473ffffffffffffffffffffffffffffffffffffffff1673ffffffffffffffffffffffffffffffffffffffff1614159050919050565b60065481565b600260009054906101000a900473ffffffffffffffffffffffffffffffffffffffff1681565b6060600073ffffffffffffffffffffffffffffffffffffffff1660038360405161325f9190614cee565b908152602001604051809103902060000160009054906101000a900473ffffffffffffffffffffffffffffffffffffffff1673ffffffffffffffffffffffffffffffffffffffff1614156132e8576040517f08c379a00000000000000000000000000000000000000000000000000000000081526004016132df90614f2e565b60405180910390fd5b60006003836040516132fa9190614cee565b90815260200160405180910390206002018054905067ffffffffffffffff8111156133285761332761554f565b5b6040519080825280602002602001820160405280156133565781602001602082028036833780820191505090505b50905060005b60038460405161336c9190614cee565b908152602001604051809103902060020180549050811015613446576003846040516133989190614cee565b908152602001604051809103902060020181815481106133bb576133ba615520565b5b9060005260206000200160009054906101000a900473ffffffffffffffffffffffffffffffffffffffff168282815181106133f9576133f8615520565b5b602002602001019073ffffffffffffffffffffffffffffffffffffffff16908173ffffffffffffffffffffffffffffffffffffffff1681525050808061343e90615479565b91505061335c565b5080915050919050565b60008073ffffffffffffffffffffffffffffffffffffffff166003836040516134799190614cee565b908152602001604051809103902060000160009054906101000a900473ffffffffffffffffffffffffffffffffffffffff1673ffffffffffffffffffffffffffffffffffffffff161415613502576040517f08c379a00000000000000000000000000000000000000000000000000000000081526004016134f990614f2e565b60405180910390fd5b60006003836040516135149190614cee565b90815260200160405180910390206002018054905011613569576040517f08c379a00000000000000000000000000000000000000000000000000000000081526004016135609061504e565b60405180910390fd5b600080613575846108d1565b905060005b60038560405161358a9190614cee565b9081526020016040518091039020600201805490508110156136dd57816003866040516135b79190614cee565b908152602001604051809103902060010160006003886040516135da9190614cee565b908152602001604051809103902060020184815481106135fd576135fc615520565b5b9060005260206000200160009054906101000a900473ffffffffffffffffffffffffffffffffffffffff1673ffffffffffffffffffffffffffffffffffffffff1673ffffffffffffffffffffffffffffffffffffffff1681526020019081526020016000205414156136ca576003856040516136799190614cee565b9081526020016040518091039020600201818154811061369c5761369b615520565b5b9060005260206000200160009054906101000a900473ffffffffffffffffffffffffffffffffffffffff1692505b80806136d590615479565b91505061357a565b508192505050919050565b60008073ffffffffffffffffffffffffffffffffffffffff166003836040516137119190614cee565b908152602001604051809103902060000160009054906101000a900473ffffffffffffffffffffffffffffffffffffffff1673ffffffffffffffffffffffffffffffffffffffff16141561379a576040517f08c379a000000000000000000000000000000000000000000000000000000000815260040161379190614f2e565b60405180910390fd5b60006003836040516137ac9190614cee565b908152602001604051809103902060000160009054906101000a900473ffffffffffffffffffffffffffffffffffffffff16905080915050919050565b60008073ffffffffffffffffffffffffffffffffffffffff166003836040516138129190614cee565b908152602001604051809103902060000160009054906101000a900473ffffffffffffffffffffffffffffffffffffffff1673ffffffffffffffffffffffffffffffffffffffff16141561389b576040517f08c379a000000000000000000000000000000000000000000000000000000000815260040161389290614f2e565b60405180910390fd5b60006003836040516138ad9190614cee565b908152602001604051809103902060050154905080915050919050565b6060600060048054905067ffffffffffffffff8111156138ed576138ec61554f565b5b60405190808252806020026020018201604052801561392057816020015b606081526020019060019003908161390b5790505b50905060005b600480549050811015613a0b576004818154811061394757613946615520565b5b90600052602060002001805461395c90615416565b80601f016020809104026020016040519081016040528092919081815260200182805461398890615416565b80156139d55780601f106139aa576101008083540402835291602001916139d5565b820191906000526020600020905b8154815290600101906020018083116139b857829003601f168201915b50505050508282815181106139ed576139ec615520565b5b60200260200101819052508080613a0390615479565b915050613926565b508091505090565b600260149054906101000a900460ff1615613a2d57600080fd5b600073ffffffffffffffffffffffffffffffffffffffff16600385604051613a559190614cee565b908152602001604051809103902060000160009054906101000a900473ffffffffffffffffffffffffffffffffffffffff1673ffffffffffffffffffffffffffffffffffffffff1614613add576040517f08c379a0000000000000000000000000000000000000000000000000000000008152600401613ad4906150ce565b60405180910390fd5b33600385604051613aee9190614cee565b908152602001604051809103902060000160006101000a81548173ffffffffffffffffffffffffffffffffffffffff021916908373ffffffffffffffffffffffffffffffffffffffff16021790555082600385604051613b4e9190614cee565b90815260200160405180910390206005018190555042600385604051613b749190614cee565b9081526020016040518091039020600701819055506000600385604051613b9b9190614cee565b908152602001604051809103902060060160006101000a81548160ff02191690831515021790555081600385604051613bd49190614cee565b908152602001604051809103902060080160016101000a81548160ff02191690831515021790555080600385604051613c0d9190614cee565b908152602001604051809103902060060160006101000a81548160ff021916908315150217905550600484908060018154018082558091505060019003906000526020600020016000909190919091509080519060200190613c709291906141d9565b507f117a5dfdea357bc69040f213ba3b30a731d4adddc1b5d1580db9d6b85568ea35338585604051613ca493929190614ddf565b60405180910390a150505050565b6000806000905060005b600384604051613ccc9190614cee565b908152602001604051809103902060020180549050811015613e7d5781600385604051613cf99190614cee565b90815260200160405180910390206001016000600387604051613d1c9190614cee565b90815260200160405180910390206002018481548110613d3f57613d3e615520565b5b9060005260206000200160009054906101000a900473ffffffffffffffffffffffffffffffffffffffff1673ffffffffffffffffffffffffffffffffffffffff1673ffffffffffffffffffffffffffffffffffffffff168152602001908152602001600020541115613e6a57600384604051613dbb9190614cee565b90815260200160405180910390206001016000600386604051613dde9190614cee565b90815260200160405180910390206002018381548110613e0157613e00615520565b5b9060005260206000200160009054906101000a900473ffffffffffffffffffffffffffffffffffffffff1673ffffffffffffffffffffffffffffffffffffffff1673ffffffffffffffffffffffffffffffffffffffff1681526020019081526020016000205491505b8080613e7590615479565b915050613cbc565b5080915050919050565b6000600382604051613e999190614cee565b908152602001604051809103902060080160019054906101000a900460ff16613ec55760019050613f48565b3373ffffffffffffffffffffffffffffffffffffffff16600383604051613eec9190614cee565b908152602001604051809103902060030160009054906101000a900473ffffffffffffffffffffffffffffffffffffffff1673ffffffffffffffffffffffffffffffffffffffff161415613f435760019050613f48565b600090505b919050565b600381604051613f5d9190614cee565b908152602001604051809103902060080160019054906101000a900460ff1615613fd6576000613f8c82613cb2565b9050348110613fd0576040517f08c379a0000000000000000000000000000000000000000000000000000000008152600401613fc790614ece565b60405180910390fd5b50614078565b6000600382604051613fe89190614cee565b908152602001604051809103902060010160003373ffffffffffffffffffffffffffffffffffffffff1673ffffffffffffffffffffffffffffffffffffffff1681526020019081526020016000205414614077576040517f08c379a000000000000000000000000000000000000000000000000000000000815260040161406e90614f6e565b60405180910390fd5b5b50565b60006006544261408b9190615346565b82109050919050565b60005b6003826040516140a79190614cee565b90815260200160405180910390206002018054905081101561419b576003826040516140d39190614cee565b908152602001604051809103902060020181815481106140f6576140f5615520565b5b9060005260206000200160009054906101000a900473ffffffffffffffffffffffffffffffffffffffff1673ffffffffffffffffffffffffffffffffffffffff166108fc60038460405161414a9190614cee565b9081526020016040518091039020600501549081150290604051600060405180830381858888f19350505050158015614187573d6000803e3d6000fd5b50808061419390615479565b915050614097565b5060016003826040516141ae9190614cee565b908152602001604051809103902060080160006101000a81548160ff02191690831515021790555050565b8280546141e590615416565b90600052602060002090601f016020900481019282614207576000855561424e565b82601f1061422057805160ff191683800117855561424e565b8280016001018555821561424e579182015b8281111561424d578251825591602001919060010190614232565b5b50905061425b919061425f565b5090565b5b80821115614278576000816000905550600101614260565b5090565b600061428f61428a8461520e565b6151e9565b905080838252602082019050828560208602820111156142b2576142b1615588565b5b60005b8581101561430057813567ffffffffffffffff8111156142d8576142d7615583565b5b8086016142e5898261440f565b855260208501945060208401935050506001810190506142b5565b5050509392505050565b600061431d6143188461523a565b6151e9565b9050828152602081018484840111156143395761433861558d565b5b6143448482856153d4565b509392505050565b60008135905061435b81615d87565b92915050565b60008135905061437081615d9e565b92915050565b600082601f83011261438b5761438a615583565b5b813561439b84826020860161427c565b91505092915050565b6000813590506143b381615db5565b92915050565b60008083601f8401126143cf576143ce615583565b5b8235905067ffffffffffffffff8111156143ec576143eb61557e565b5b60208301915083600182028301111561440857614407615588565b5b9250929050565b600082601f83011261442457614423615583565b5b813561443484826020860161430a565b91505092915050565b60008135905061444c81615dcc565b92915050565b60006020828403121561446857614467615597565b5b60006144768482850161434c565b91505092915050565b60006020828403121561449557614494615597565b5b600082013567ffffffffffffffff8111156144b3576144b2615592565b5b6144bf84828501614376565b91505092915050565b600080602083850312156144df576144de615597565b5b600083013567ffffffffffffffff8111156144fd576144fc615592565b5b614509858286016143b9565b92509250509250929050565b60006020828403121561452b5761452a615597565b5b600082013567ffffffffffffffff81111561454957614548615592565b5b6145558482850161440f565b91505092915050565b6000806040838503121561457557614574615597565b5b600083013567ffffffffffffffff81111561459357614592615592565b5b61459f8582860161440f565b92505060206145b08582860161434c565b9150509250929050565b600080600080608085870312156145d4576145d3615597565b5b600085013567ffffffffffffffff8111156145f2576145f1615592565b5b6145fe8782880161440f565b945050602061460f8782880161443d565b9350506040614620878288016143a4565b9250506060614631878288016143a4565b91505092959194509250565b600080600080600060a0868803121561465957614658615597565b5b600086013567ffffffffffffffff81111561467757614676615592565b5b6146838882890161440f565b95505060206146948882890161443d565b94505060406146a5888289016143a4565b93505060606146b6888289016143a4565b92505060806146c788828901614361565b9150509295509295909350565b6000602082840312156146ea576146e9615597565b5b60006146f88482850161443d565b91505092915050565b600061470d838361473c565b60208301905092915050565b60006147258383614875565b905092915050565b6147368161538c565b82525050565b6147458161537a565b82525050565b6147548161537a565b82525050565b6000614765826152a0565b61476f81856152e6565b935061477a8361526b565b8060005b838110156147ab5781516147928882614701565b975061479d836152cc565b92505060018101905061477e565b5085935050505092915050565b60006147c3826152ab565b6147cd81856152f7565b9350836020820285016147df8561527b565b8060005b8581101561481b57848403895281516147fc8582614719565b9450614807836152d9565b925060208a019950506001810190506147e3565b50829750879550505050505092915050565b6148368161539e565b82525050565b6000614847826152b6565b6148518185615308565b93506148618185602086016153e3565b61486a8161559c565b840191505092915050565b6000614880826152c1565b61488a8185615319565b935061489a8185602086016153e3565b6148a38161559c565b840191505092915050565b60006148b9826152c1565b6148c3818561532a565b93506148d38185602086016153e3565b6148dc8161559c565b840191505092915050565b60006148f2826152c1565b6148fc818561533b565b935061490c8185602086016153e3565b80840191505092915050565b6000815461492581615416565b61492f818661533b565b9450600182166000811461494a576001811461495b5761498e565b60ff1983168652818601935061498e565b6149648561528b565b60005b8381101561498657815481890152600182019150602081019050614967565b838801955050505b50505092915050565b60006149a460648361532a565b91506149af826155ad565b608082019050919050565b60006149c7602c8361532a565b91506149d282615648565b604082019050919050565b60006149ea60268361532a565b91506149f582615697565b604082019050919050565b6000614a0d601b8361532a565b9150614a18826156e6565b602082019050919050565b6000614a3060258361532a565b9150614a3b8261570f565b604082019050919050565b6000614a53602c8361532a565b9150614a5e8261575e565b604082019050919050565b6000614a76601e8361532a565b9150614a81826157ad565b602082019050919050565b6000614a9960318361532a565b9150614aa4826157d6565b604082019050919050565b6000614abc60228361532a565b9150614ac782615825565b604082019050919050565b6000614adf60508361532a565b9150614aea82615874565b606082019050919050565b6000614b0260268361532a565b9150614b0d826158e9565b604082019050919050565b6000614b25603a8361532a565b9150614b3082615938565b604082019050919050565b6000614b4860248361532a565b9150614b5382615987565b604082019050919050565b6000614b6b605e8361532a565b9150614b76826159d6565b606082019050919050565b6000614b8e60298361532a565b9150614b9982615a4b565b604082019050919050565b6000614bb1603b8361532a565b9150614bbc82615a9a565b604082019050919050565b6000614bd4602f8361532a565b9150614bdf82615ae9565b604082019050919050565b6000614bf7602c8361532a565b9150614c0282615b38565b604082019050919050565b6000614c1a602c8361532a565b9150614c2582615b87565b604082019050919050565b6000614c3d60238361532a565b9150614c4882615bd6565b604082019050919050565b6000614c6060288361532a565b9150614c6b82615c25565b604082019050919050565b6000614c83604a8361532a565b9150614c8e82615c74565b606082019050919050565b6000614ca660298361532a565b9150614cb182615ce9565b604082019050919050565b6000614cc9602d8361532a565b9150614cd482615d38565b604082019050919050565b614ce8816153ca565b82525050565b6000614cfa82846148e7565b915081905092915050565b6000614d118284614918565b915081905092915050565b6000602082019050614d31600083018461474b565b92915050565b6000602082019050614d4c600083018461472d565b92915050565b600061012082019050614d68600083018c61472d565b614d75602083018b61474b565b614d82604083018a61474b565b614d8f6060830189614cdf565b614d9c608083018861482d565b614da960a0830187614cdf565b614db660c083018661482d565b614dc360e083018561482d565b614dd161010083018461472d565b9a9950505050505050505050565b6000606082019050614df4600083018661474b565b8181036020830152614e0681856148ae565b9050614e156040830184614cdf565b949350505050565b60006020820190508181036000830152614e37818461475a565b905092915050565b60006020820190508181036000830152614e5981846147b8565b905092915050565b6000602082019050614e76600083018461482d565b92915050565b6000604082019050614e91600083018561482d565b8181036020830152614ea3818461483c565b90509392505050565b60006020820190508181036000830152614ec681846148ae565b905092915050565b60006020820190508181036000830152614ee781614997565b9050919050565b60006020820190508181036000830152614f07816149ba565b9050919050565b60006020820190508181036000830152614f27816149dd565b9050919050565b60006020820190508181036000830152614f4781614a00565b9050919050565b60006020820190508181036000830152614f6781614a23565b9050919050565b60006020820190508181036000830152614f8781614a46565b9050919050565b60006020820190508181036000830152614fa781614a69565b9050919050565b60006020820190508181036000830152614fc781614a8c565b9050919050565b60006020820190508181036000830152614fe781614aaf565b9050919050565b6000602082019050818103600083015261500781614ad2565b9050919050565b6000602082019050818103600083015261502781614af5565b9050919050565b6000602082019050818103600083015261504781614b18565b9050919050565b6000602082019050818103600083015261506781614b3b565b9050919050565b6000602082019050818103600083015261508781614b5e565b9050919050565b600060208201905081810360008301526150a781614b81565b9050919050565b600060208201905081810360008301526150c781614ba4565b9050919050565b600060208201905081810360008301526150e781614bc7565b9050919050565b6000602082019050818103600083015261510781614bea565b9050919050565b6000602082019050818103600083015261512781614c0d565b9050919050565b6000602082019050818103600083015261514781614c30565b9050919050565b6000602082019050818103600083015261516781614c53565b9050919050565b6000602082019050818103600083015261518781614c76565b9050919050565b600060208201905081810360008301526151a781614c99565b9050919050565b600060208201905081810360008301526151c781614cbc565b9050919050565b60006020820190506151e36000830184614cdf565b92915050565b60006151f3615204565b90506151ff8282615448565b919050565b6000604051905090565b600067ffffffffffffffff8211156152295761522861554f565b5b602082029050602081019050919050565b600067ffffffffffffffff8211156152555761525461554f565b5b61525e8261559c565b9050602081019050919050565b6000819050602082019050919050565b6000819050602082019050919050565b60008190508160005260206000209050919050565b600081519050919050565b600081519050919050565b600081519050919050565b600081519050919050565b6000602082019050919050565b6000602082019050919050565b600082825260208201905092915050565b600082825260208201905092915050565b600082825260208201905092915050565b600082825260208201905092915050565b600082825260208201905092915050565b600081905092915050565b6000615351826153ca565b915061535c836153ca565b92508282101561536f5761536e6154c2565b5b828203905092915050565b6000615385826153aa565b9050919050565b6000615397826153aa565b9050919050565b60008115159050919050565b600073ffffffffffffffffffffffffffffffffffffffff82169050919050565b6000819050919050565b82818337600083830152505050565b60005b838110156154015780820151818401526020810190506153e6565b83811115615410576000848401525b50505050565b6000600282049050600182168061542e57607f821691505b60208210811415615442576154416154f1565b5b50919050565b6154518261559c565b810181811067ffffffffffffffff821117156154705761546f61554f565b5b80604052505050565b6000615484826153ca565b91507fffffffffffffffffffffffffffffffffffffffffffffffffffffffffffffffff8214156154b7576154b66154c2565b5b600182019050919050565b7f4e487b7100000000000000000000000000000000000000000000000000000000600052601160045260246000fd5b7f4e487b7100000000000000000000000000000000000000000000000000000000600052602260045260246000fd5b7f4e487b7100000000000000000000000000000000000000000000000000000000600052603260045260246000fd5b7f4e487b7100000000000000000000000000000000000000000000000000000000600052604160045260246000fd5b600080fd5b600080fd5b600080fd5b600080fd5b600080fd5b600080fd5b6000601f19601f8301169050919050565b7f546f206d616b652061206e6577206f66666572206f6e2074686973206c69737460008201527f696e6720796f75206e65656420746f20656e746572206120686967686572206160208201527f6d6f756e74207468616e207468652063757272656e742068696768657374206f60408201527f6666657200000000000000000000000000000000000000000000000000000000606082015250565b7f5468657265206973206e6f206f66666572206173736f6369617465642077697460008201527f6820746869732062757965720000000000000000000000000000000000000000602082015250565b7f54686973206c697374696e6720616c72656164792068617320612066696e616c60008201527f2062757965720000000000000000000000000000000000000000000000000000602082015250565b7f54686973206c697374696e6720646f6573206e6f742065786973740000000000600082015250565b7f546865726520617265206e6f206f66666572732066726f6d207468697320616460008201527f6472657373000000000000000000000000000000000000000000000000000000602082015250565b7f596f7527766520616c7265616479206d61646520616e206f66666572206f6e2060008201527f74686973206c697374696e670000000000000000000000000000000000000000602082015250565b7f54686973206c697374696e6720697320616c726561647920626f756768740000600082015250565b7f596f7572206f6666657220646f6573206e6f74206d65657420746865206d696e60008201527f696d756d206c6973746564207072696365000000000000000000000000000000602082015250565b7f54686973206c697374696e672068617320616c7265616479206265656e20736f60008201527f6c64000000000000000000000000000000000000000000000000000000000000602082015250565b7f43616e27742067657420746865206f6666657220707269636520696e20616e2060008201527f61756374696f6e202d20757365206765745072696365466f725374616e64617260208201527f644c697374696e6720696e737465616400000000000000000000000000000000604082015250565b7f54686973206c697374696e672069736e2774207573696e67206120746869726460008201527f2070617274790000000000000000000000000000000000000000000000000000602082015250565b7f596f752061726520612073656c6c6572206f662074686973206c697374696e6760008201527f2c20796f752063616e6e6f74206d616b6520616e206f66666572000000000000602082015250565b7f546865726520617265206e6f2062757965727320666f7220746869732061756360008201527f74696f6e00000000000000000000000000000000000000000000000000000000602082015250565b7f546f206d616b652061206e6577206f66666572206f6e2074686973206c69737460008201527f696e6720796f75206e65656420746f20656e746572206120686967686572206160208201527f6d6f756e74207468616e20796f75722070726576696f7573206f666665720000604082015250565b7f596f7527766520616c726561647920616363657074656420612064696666657260008201527f656e74206f666665720000000000000000000000000000000000000000000000602082015250565b7f546865726520697320616c726561647920612066696e616c206275796572206160008201527f73736f63696174656420776974682074686973206c697374696e670000000000602082015250565b7f546865726520697320616c72656164792061206c697374696e67207573696e6760008201527f2074686973204950465320686173680000000000000000000000000000000000602082015250565b7f5374616e64617264206c697374696e677320646f206e6f74206e65656420746f60008201527f2062652061636365707465640000000000000000000000000000000000000000602082015250565b7f54686973206164647265737320686173206e6f74206d61646520616e206f666660008201527f657220746f206163636570740000000000000000000000000000000000000000602082015250565b7f4f6e6c79207468652073656c6c65722063616e2061636365707420616e206f6660008201527f6665720000000000000000000000000000000000000000000000000000000000602082015250565b7f4f66666572732063616e206f6e6c7920626520616363657074656420666f722060008201527f61756374696f6e73000000000000000000000000000000000000000000000000602082015250565b7f546865206c697374696e6720697320616e2061756374696f6e20616e6420616e60008201527f206f66666572206861736e2774206265656e20617070726f766564206279207460208201527f6869732077616c6c657400000000000000000000000000000000000000000000604082015250565b7f5468657265206973206e6f2066696e616c20627579657220666f72207468697360008201527f20636f6e74726163740000000000000000000000000000000000000000000000602082015250565b7f412066696e616c20627579657220616c72656164792065786973747320666f7260008201527f2074686973206c697374696e6700000000000000000000000000000000000000602082015250565b615d908161537a565b8114615d9b57600080fd5b50565b615da78161538c565b8114615db257600080fd5b50565b615dbe8161539e565b8114615dc957600080fd5b50565b615dd5816153ca565b8114615de057600080fd5b5056fea2646970667358221220c60b718be00fa4b6b9a3d1250e27a57c4c26fc84145f89ff7a1d98f37b01b33c64736f6c63430008070033",
  "immutableReferences": {},
  "source": "// SPDX-License-Identifier: MIT\npragma solidity 0.8.7;\n\nimport \"@chainlink/contracts/src/v0.8/KeeperCompatible.sol\";\n\nimport \"./AccessControl.sol\";\n\n/// @title Listings manages buying and selling of listed items\ncontract Listings is AccessControl, KeeperCompatible {\n    /// @dev used to store information about a Listing\n    struct Listing {\n        address payable sellerAddress;\n        mapping(address => uint256) buyerAddresses;\n        address payable[] buyerAddressesArray;\n        address acceptedBuyer;\n        address finalBuyer;\n        uint256 price;\n        bool priceIsInUSD;\n        uint256 date;\n        bool bought;\n        bool isAuction;\n        address payable useThirdPartyAddress;\n    }\n\n    /// @dev stores all of the submitted Listings\n    mapping(string => Listing) public listings;\n    /// @dev Also store listings hash as an array in order to loop over later during upkeep\n    string[] public listingsArray;\n\n    /// @dev emitted whenever a new listing is submitted\n    event ListingSubmitted(\n        address sellerAddress,\n        string ipfsHash,\n        uint256 price\n    );\n\n    /// @dev emitted whenever an offer is made on a listing from a seller\n    event OfferMade(address buyerAddress, string ipfsHash, uint256 amount);\n\n    /// @dev emitted whenever an offer is accepted on an auction (only auctions)\n    event OfferAccepted(address buyerAddress, string ipfsHash, uint256 amount);\n\n    /// @dev emitted whenever a buy is confirmed on a listing\n    event BuyConfirmed(address buyerAddress, string ipfsHash, uint256 amount);\n\n    uint256 public lastTimeStamp;\n    uint256 public interval = 1814400000; // three weeks\n\n    constructor() {\n        lastTimeStamp = block.timestamp;\n    }\n\n    /// @dev Change the interval used for wiping data\n    function setInterval(uint256 newInterval) public whenNotPaused onlyCLevel {\n        interval = newInterval;\n    }\n\n    function createThirdPartyListing(\n        string memory ipfsHash,\n        uint256 price,\n        bool isAuction,\n        bool priceIsInUSD,\n        address payable useThirdPartyAddress\n    ) public payable whenNotPaused {\n        createListing(ipfsHash, price, isAuction, priceIsInUSD);\n\n        listings[ipfsHash].useThirdPartyAddress = useThirdPartyAddress;\n    }\n\n    /// @dev List an item for sale, where the metadata is stored in IPFS\n    function createListing(\n        string memory ipfsHash,\n        uint256 price,\n        bool isAuction,\n        bool priceIsInUSD\n    ) public payable whenNotPaused {\n        require(\n            listings[ipfsHash].sellerAddress == address(0x0),\n            \"There is already a listing using this IPFS hash\"\n        );\n\n        listings[ipfsHash].sellerAddress = payable(msg.sender);\n        listings[ipfsHash].price = price;\n        listings[ipfsHash].date = block.timestamp;\n        listings[ipfsHash].priceIsInUSD = false;\n        listings[ipfsHash].isAuction = isAuction;\n        listings[ipfsHash].priceIsInUSD = priceIsInUSD;\n\n        listingsArray.push(ipfsHash);\n\n        emit ListingSubmitted(msg.sender, ipfsHash, price);\n    }\n\n    /// @dev Make an offer to buy a listing\n    function makeOffer(string memory ipfsHash) public payable whenNotPaused {\n        require(\n            listings[ipfsHash].sellerAddress != msg.sender,\n            \"You are a seller of this listing, you cannot make an offer\"\n        );\n        require(\n            listings[ipfsHash].bought == false,\n            \"This listing is already bought\"\n        );\n        require(\n            listings[ipfsHash].finalBuyer == address(0x0),\n            \"There is already a final buyer associated with this listing\"\n        );\n        canMakeNewOffer(ipfsHash);\n        require(\n            listings[ipfsHash].price <= msg.value,\n            \"Your offer does not meet the minimum listed price\"\n        );\n        require(\n            listings[ipfsHash].buyerAddresses[msg.sender] < msg.value,\n            \"To make a new offer on this listing you need to enter a higher amount than your previous offer\"\n        );\n        listings[ipfsHash].buyerAddresses[msg.sender] = msg.value;\n        listings[ipfsHash].buyerAddressesArray.push(payable(msg.sender));\n\n        emit OfferMade(msg.sender, ipfsHash, msg.value);\n    }\n\n    function canMakeNewOffer(string memory ipfsHash) private view {\n        if (listings[ipfsHash].isAuction) {\n            uint256 highestBid = highestOffer(ipfsHash);\n\n            require(\n                highestBid < msg.value,\n                \"To make a new offer on this listing you need to enter a higher amount than the current highest offer\"\n            );\n        } else {\n            require(\n                listings[ipfsHash].buyerAddresses[msg.sender] == 0,\n                \"You've already made an offer on this listing\"\n            );\n        }\n    }\n\n    /// @dev Confirm a buy has taken place and transfer funds\n    function confirmBuy(string memory ipfsHash) public whenNotPaused {\n        require(\n            listings[ipfsHash].buyerAddresses[msg.sender] > 0,\n            \"There is no offer associated with this buyer\"\n        );\n        require(\n            listings[ipfsHash].bought == false,\n            \"This listing has already been sold\"\n        );\n        require(\n            listings[ipfsHash].finalBuyer == address(0x0),\n            \"This listing already has a final buyer\"\n        );\n        require(\n            ifAuctionEnsureOfferAccepted(ipfsHash),\n            \"The listing is an auction and an offer hasn't been approved by this wallet\"\n        );\n\n        for (\n            uint256 i = 0;\n            i < listings[ipfsHash].buyerAddressesArray.length;\n            i++\n        ) {\n            if (listings[ipfsHash].buyerAddressesArray[i] != msg.sender) {\n                listings[ipfsHash].buyerAddressesArray[i].transfer(\n                    listings[ipfsHash].buyerAddresses[\n                        listings[ipfsHash].buyerAddressesArray[i]\n                    ]\n                );\n            } else {\n                if (listings[ipfsHash].useThirdPartyAddress != address(0x0)) {\n                    listings[ipfsHash].useThirdPartyAddress.transfer(\n                        listings[ipfsHash].buyerAddresses[\n                            listings[ipfsHash].buyerAddressesArray[i]\n                        ]\n                    );\n                } else {\n                    listings[ipfsHash].sellerAddress.transfer(\n                        listings[ipfsHash].buyerAddresses[\n                            listings[ipfsHash].buyerAddressesArray[i]\n                        ]\n                    );\n                }\n            }\n        }\n\n        listings[ipfsHash].bought = true;\n        listings[ipfsHash].finalBuyer = msg.sender;\n\n        emit BuyConfirmed(\n            msg.sender,\n            ipfsHash,\n            listings[ipfsHash].buyerAddresses[msg.sender]\n        );\n    }\n\n    function acceptOffer(string memory ipfsHash, address buyerToAccept)\n        public\n        whenNotPaused\n    {\n        require(\n            listings[ipfsHash].isAuction == true,\n            \"Offers can only be accepted for auctions\"\n        );\n        require(\n            listings[ipfsHash].sellerAddress == msg.sender,\n            \"Only the seller can accept an offer\"\n        );\n        require(\n            listings[ipfsHash].finalBuyer == address(0x0),\n            \"A final buyer already exists for this listing\"\n        );\n        require(\n            listings[ipfsHash].buyerAddresses[buyerToAccept] > 0,\n            \"This address has not made an offer to accept\"\n        );\n        require(\n            listings[ipfsHash].acceptedBuyer == address(0x0),\n            \"You've already accepted a different offer\"\n        );\n\n        listings[ipfsHash].acceptedBuyer = buyerToAccept;\n        listings[ipfsHash].price = listings[ipfsHash].buyerAddresses[\n            buyerToAccept\n        ];\n\n        emit OfferAccepted(\n            buyerToAccept,\n            ipfsHash,\n            listings[ipfsHash].buyerAddresses[buyerToAccept]\n        );\n    }\n\n    function ifAuctionEnsureOfferAccepted(string memory ipfsHash)\n        private\n        view\n        returns (bool)\n    {\n        if (!listings[ipfsHash].isAuction) return true;\n        if (listings[ipfsHash].acceptedBuyer == msg.sender) return true;\n        return false;\n    }\n\n    /// @dev Called during performUpkeep to empty unused funds\n    function removeListing(string memory ipfsHash) private {\n        for (\n            uint256 i = 0;\n            i < listings[ipfsHash].buyerAddressesArray.length;\n            i++\n        ) {\n            listings[ipfsHash].buyerAddressesArray[i].transfer(\n                listings[ipfsHash].price\n            );\n        }\n\n        listings[ipfsHash].bought = true;\n    }\n\n    function checkUpkeep(bytes calldata)\n        external\n        view\n        override\n        returns (bool upkeepNeeded, bytes memory performData)\n    {\n        string[] memory listingsToRemove = new string[](listingsArray.length);\n\n        bool updateNeeded = false;\n        for (uint256 i = 0; i < listingsArray.length; i++) {\n            if (checkDateIsOlderThanInterval(listings[listingsArray[i]].date)) {\n                listingsToRemove[i] = listingsArray[i];\n                updateNeeded = true;\n            }\n        }\n\n        if (updateNeeded) {\n            performData = abi.encode(listingsToRemove);\n            return (true, performData);\n        } else {\n            string[] memory emptyListing;\n            performData = abi.encode(emptyListing);\n            return (false, performData);\n        }\n    }\n\n    function performUpkeep(bytes calldata performData) external override {\n        string[] memory decodedValue = abi.decode(performData, (string[]));\n\n        for (uint256 i = 0; i < decodedValue.length; i++) {\n            if (checkDateIsOlderThanInterval(listings[decodedValue[i]].date)) {\n                removeListing(decodedValue[i]);\n            }\n        }\n    }\n\n    /// @dev Ascertain whether a date is older than the interval (i.e. that it's two weeks old compared to current blocktime)\n    function checkDateIsOlderThanInterval(uint256 date)\n        private\n        view\n        returns (bool)\n    {\n        return date < block.timestamp - interval;\n    }\n\n    function getListingsArray() public view returns (string[] memory) {\n        string[] memory allListings = new string[](listingsArray.length);\n        for (uint256 i = 0; i < listingsArray.length; i++) {\n            allListings[i] = listingsArray[i];\n        }\n        return allListings;\n    }\n\n    function getBuyersForListing(string memory ipfsHash)\n        public\n        view\n        returns (address[] memory)\n    {\n        require(\n            listings[ipfsHash].sellerAddress != address(0x0),\n            \"This listing does not exist\"\n        );\n\n        address[] memory buyerAddresses = new address[](\n            listings[ipfsHash].buyerAddressesArray.length\n        );\n        for (\n            uint256 i = 0;\n            i < listings[ipfsHash].buyerAddressesArray.length;\n            i++\n        ) {\n            buyerAddresses[i] = listings[ipfsHash].buyerAddressesArray[i];\n        }\n        return buyerAddresses;\n    }\n\n    function getPriceForListing(string memory ipfsHash)\n        public\n        view\n        returns (uint256)\n    {\n        require(\n            listings[ipfsHash].sellerAddress != address(0x0),\n            \"This listing does not exist\"\n        );\n\n        uint256 price = listings[ipfsHash].price;\n        return price;\n    }\n\n    function getHighestBuyerForAuction(string memory ipfsHash)\n        public\n        view\n        returns (address)\n    {\n        require(\n            listings[ipfsHash].sellerAddress != address(0x0),\n            \"This listing does not exist\"\n        );\n        require(\n            listings[ipfsHash].buyerAddressesArray.length > 0,\n            \"There are no buyers for this auction\"\n        );\n        address highestBuyer;\n        uint256 highestBid = getHighestAmountForAuction(ipfsHash);\n\n        for (\n            uint256 i = 0;\n            i < listings[ipfsHash].buyerAddressesArray.length;\n            i++\n        ) {\n            if (\n                listings[ipfsHash].buyerAddresses[\n                    listings[ipfsHash].buyerAddressesArray[i]\n                ] == highestBid\n            ) {\n                highestBuyer = listings[ipfsHash].buyerAddressesArray[i];\n            }\n        }\n        return highestBuyer;\n    }\n\n    function getHighestAmountForAuction(string memory ipfsHash)\n        public\n        view\n        returns (uint256)\n    {\n        require(\n            listings[ipfsHash].sellerAddress != address(0x0),\n            \"This listing does not exist\"\n        );\n        require(\n            listings[ipfsHash].buyerAddressesArray.length > 0,\n            \"There are no buyers for this auction\"\n        );\n\n        return highestOffer(ipfsHash);\n    }\n\n    function highestOffer(string memory ipfsHash)\n        private\n        view\n        returns (uint256)\n    {\n        uint256 highestBid = 0;\n        for (\n            uint256 i = 0;\n            i < listings[ipfsHash].buyerAddressesArray.length;\n            i++\n        ) {\n            if (\n                listings[ipfsHash].buyerAddresses[\n                    listings[ipfsHash].buyerAddressesArray[i]\n                ] > highestBid\n            ) {\n                highestBid = listings[ipfsHash].buyerAddresses[\n                    listings[ipfsHash].buyerAddressesArray[i]\n                ];\n            }\n        }\n        return highestBid;\n    }\n\n    function getOfferForBuyerInAuction(string memory ipfsHash, address buyer)\n        public\n        view\n        returns (uint256)\n    {\n        require(\n            listings[ipfsHash].sellerAddress != address(0x0),\n            \"This listing does not exist\"\n        );\n        require(\n            listings[ipfsHash].isAuction == true,\n            \"Can't get the offer price in an auction - use getPriceForStandardListing instead\"\n        );\n\n        require(\n            listings[ipfsHash].buyerAddresses[buyer] != 0,\n            \"There are no offers from this address\"\n        );\n\n        uint256 offer = listings[ipfsHash].buyerAddresses[buyer];\n        return offer;\n    }\n\n    function getSellerForListing(string memory ipfsHash)\n        public\n        view\n        returns (address)\n    {\n        require(\n            listings[ipfsHash].sellerAddress != address(0x0),\n            \"This listing does not exist\"\n        );\n\n        address sellerAddress = listings[ipfsHash].sellerAddress;\n        return sellerAddress;\n    }\n\n    function getThirdPartyForListing(string memory ipfsHash)\n        public\n        view\n        returns (address)\n    {\n        require(\n            listings[ipfsHash].sellerAddress != address(0x0),\n            \"This listing does not exist\"\n        );\n\n        require(\n            listings[ipfsHash].useThirdPartyAddress != address(0x0),\n            \"This listing isn't using a third party\"\n        );\n\n        address useThirdPartyAddress = listings[ipfsHash].useThirdPartyAddress;\n        return useThirdPartyAddress;\n    }\n\n    function getDateForListing(string memory ipfsHash)\n        public\n        view\n        returns (uint256)\n    {\n        require(\n            listings[ipfsHash].sellerAddress != address(0x0),\n            \"This listing does not exist\"\n        );\n\n        uint256 date = listings[ipfsHash].date;\n        return date;\n    }\n\n    function getBoughtForListing(string memory ipfsHash)\n        public\n        view\n        returns (bool)\n    {\n        require(\n            listings[ipfsHash].sellerAddress != address(0x0),\n            \"This listing does not exist\"\n        );\n\n        bool bought = listings[ipfsHash].bought;\n        return bought;\n    }\n\n    function getFinalBuyerForListing(string memory ipfsHash)\n        public\n        view\n        returns (address)\n    {\n        require(\n            listings[ipfsHash].sellerAddress != address(0x0),\n            \"This listing does not exist\"\n        );\n\n        require(\n            listings[ipfsHash].finalBuyer != address(0x0),\n            \"There is no final buyer for this contract\"\n        );\n\n        address finalBuyer = listings[ipfsHash].finalBuyer;\n        return finalBuyer;\n    }\n\n    function getIsAcceptedForListing(string memory ipfsHash)\n        public\n        view\n        returns (bool)\n    {\n        require(\n            listings[ipfsHash].isAuction,\n            \"Standard listings do not need to be accepted\"\n        );\n        require(\n            listings[ipfsHash].sellerAddress != address(0x0),\n            \"This listing does not exist\"\n        );\n\n        if (listings[ipfsHash].acceptedBuyer == address(0x0)) {\n            return false;\n        }\n        return true;\n    }\n\n    function getIsAuction(string memory ipfsHash) public view returns (bool) {\n        require(\n            listings[ipfsHash].sellerAddress != address(0x0),\n            \"This listing does not exist\"\n        );\n        bool isAuction = listings[ipfsHash].isAuction;\n        return isAuction;\n    }\n\n    function getIsThirdParty(string memory ipfsHash)\n        public\n        view\n        returns (bool)\n    {\n        require(\n            listings[ipfsHash].sellerAddress != address(0x0),\n            \"This listing does not exist\"\n        );\n        return listings[ipfsHash].useThirdPartyAddress != address(0x0);\n    }\n\n    /// @dev this method calls selfdestruct() and removes the contract from the blockchain.\n    function kill() public onlyCEO whenNotPaused {\n        selfdestruct(ceoAddress);\n    }\n}\n",
  "sourcePath": "/Users/berniesnell/Blockchain/barrio/evm/contracts/Listings.sol",
  "compiler": {
    "name": "solc",
    "version": "0.8.7+commit.e28d00a7.Emscripten.clang"
  },
  "schemaVersion": "3.4.7",
  "updatedAt": "2022-05-26T08:52:59.325Z",
  "devdoc": {
    "events": {
      "BuyConfirmed(address,string,uint256)": {
        "details": "emitted whenever a buy is confirmed on a listing"
      },
      "ListingSubmitted(address,string,uint256)": {
        "details": "emitted whenever a new listing is submitted"
      },
      "OfferAccepted(address,string,uint256)": {
        "details": "emitted whenever an offer is accepted on an auction (only auctions)"
      },
      "OfferMade(address,string,uint256)": {
        "details": "emitted whenever an offer is made on a listing from a seller"
      }
    },
    "kind": "dev",
    "methods": {
      "confirmBuy(string)": {
        "details": "Confirm a buy has taken place and transfer funds"
      },
      "createListing(string,uint256,bool,bool)": {
        "details": "List an item for sale, where the metadata is stored in IPFS"
      },
      "kill()": {
        "details": "this method calls selfdestruct() and removes the contract from the blockchain."
      },
      "makeOffer(string)": {
        "details": "Make an offer to buy a listing"
      },
      "pause()": {
        "details": "Called by any \"C-level\" role to pause the contract. Used only when  a bug or exploit is detected and we need to limit damage."
      },
      "performUpkeep(bytes)": {
        "details": "The input to this method should not be trusted, and the caller of the method should not even be restricted to any single registry. Anyone should be able call it, and the input should be validated, there is no guarantee that the data passed in is the performData returned from checkUpkeep. This could happen due to malicious keepers, racing keepers, or simply a state change while the performUpkeep transaction is waiting for confirmation. Always validate the data passed in.",
        "params": {
          "performData": "is the data which was passed back from the checkData simulation. If it is encoded, it can easily be decoded into other types by calling `abi.decode`. This data should not be trusted, and should be validated against the contract's current state."
        }
      },
      "setCEO(address)": {
        "details": "Assigns a new address to act as the CEO. Only available to the current CEO.",
        "params": {
          "_newCEO": "The address of the new CEO"
        }
      },
      "setCFO(address)": {
        "details": "Assigns a new address to act as the CFO. Only available to the current CEO.",
        "params": {
          "_newCFO": "The address of the new CFO"
        }
      },
      "setCOO(address)": {
        "details": "Assigns a new address to act as the COO. Only available to the current CEO.",
        "params": {
          "_newCOO": "The address of the new COO"
        }
      },
      "setInterval(uint256)": {
        "details": "Change the interval used for wiping data"
      },
      "unpause()": {
        "details": "Unpauses the smart contract. Can only be called by the CEO, since  one reason we may pause the contract is when CFO or COO accounts are  compromised."
      }
    },
    "stateVariables": {
      "listings": {
        "details": "stores all of the submitted Listings"
      },
      "listingsArray": {
        "details": "Also store listings hash as an array in order to loop over later during upkeep"
      }
    },
    "title": "Listings manages buying and selling of listed items",
    "version": 1
  },
  "userdoc": {
    "kind": "user",
    "methods": {
      "performUpkeep(bytes)": {
        "notice": "method that is actually executed by the keepers, via the registry. The data returned by the checkUpkeep simulation will be passed into this method to actually be executed."
      },
      "unpause()": {
        "notice": "This is public rather than external so it can be called by  derived contracts."
      }
    },
    "version": 1
  }
}