{
  "contractName": "Listings",
  "abi": [
    {
      "inputs": [],
      "stateMutability": "nonpayable",
      "type": "constructor"
    },
    {
      "inputs": [],
      "name": "OnlySimulatedBackend",
      "type": "error"
    },
    {
      "anonymous": false,
      "inputs": [
        {
          "indexed": false,
          "internalType": "address",
          "name": "newContract",
          "type": "address"
        }
      ],
      "name": "ContractUpgrade",
      "type": "event"
    },
    {
      "anonymous": false,
      "inputs": [
        {
          "indexed": false,
          "internalType": "uint256",
          "name": "date",
          "type": "uint256"
        },
        {
          "indexed": false,
          "internalType": "string[]",
          "name": "listingsArray",
          "type": "string[]"
        },
        {
          "indexed": false,
          "internalType": "bool",
          "name": "updateNeeded",
          "type": "bool"
        }
      ],
      "name": "Debug",
      "type": "event"
    },
    {
      "anonymous": false,
      "inputs": [
        {
          "indexed": false,
          "internalType": "address",
          "name": "sellerAddress",
          "type": "address"
        },
        {
          "indexed": false,
          "internalType": "string",
          "name": "ipfsHash",
          "type": "string"
        },
        {
          "indexed": false,
          "internalType": "uint256",
          "name": "price",
          "type": "uint256"
        }
      ],
      "name": "ListingSubmitted",
      "type": "event"
    },
    {
      "anonymous": false,
      "inputs": [
        {
          "indexed": false,
          "internalType": "address",
          "name": "buyerAddress",
          "type": "address"
        },
        {
          "indexed": false,
          "internalType": "string",
          "name": "ipfsHash",
          "type": "string"
        }
      ],
      "name": "OfferMade",
      "type": "event"
    },
    {
      "inputs": [],
      "name": "ceoAddress",
      "outputs": [
        {
          "internalType": "address payable",
          "name": "",
          "type": "address"
        }
      ],
      "stateMutability": "view",
      "type": "function"
    },
    {
      "inputs": [],
      "name": "cfoAddress",
      "outputs": [
        {
          "internalType": "address",
          "name": "",
          "type": "address"
        }
      ],
      "stateMutability": "view",
      "type": "function"
    },
    {
      "inputs": [],
      "name": "cooAddress",
      "outputs": [
        {
          "internalType": "address",
          "name": "",
          "type": "address"
        }
      ],
      "stateMutability": "view",
      "type": "function"
    },
    {
      "inputs": [],
      "name": "interval",
      "outputs": [
        {
          "internalType": "uint256",
          "name": "",
          "type": "uint256"
        }
      ],
      "stateMutability": "view",
      "type": "function"
    },
    {
      "inputs": [],
      "name": "lastTimeStamp",
      "outputs": [
        {
          "internalType": "uint256",
          "name": "",
          "type": "uint256"
        }
      ],
      "stateMutability": "view",
      "type": "function"
    },
    {
      "inputs": [
        {
          "internalType": "string",
          "name": "",
          "type": "string"
        }
      ],
      "name": "listings",
      "outputs": [
        {
          "internalType": "address payable",
          "name": "sellerAddress",
          "type": "address"
        },
        {
          "internalType": "uint256",
          "name": "price",
          "type": "uint256"
        },
        {
          "internalType": "uint256",
          "name": "date",
          "type": "uint256"
        },
        {
          "internalType": "bool",
          "name": "bought",
          "type": "bool"
        }
      ],
      "stateMutability": "view",
      "type": "function"
    },
    {
      "inputs": [
        {
          "internalType": "uint256",
          "name": "",
          "type": "uint256"
        }
      ],
      "name": "listingsArray",
      "outputs": [
        {
          "internalType": "string",
          "name": "",
          "type": "string"
        }
      ],
      "stateMutability": "view",
      "type": "function"
    },
    {
      "inputs": [],
      "name": "pause",
      "outputs": [],
      "stateMutability": "nonpayable",
      "type": "function"
    },
    {
      "inputs": [],
      "name": "paused",
      "outputs": [
        {
          "internalType": "bool",
          "name": "",
          "type": "bool"
        }
      ],
      "stateMutability": "view",
      "type": "function"
    },
    {
      "inputs": [
        {
          "internalType": "address",
          "name": "_newCEO",
          "type": "address"
        }
      ],
      "name": "setCEO",
      "outputs": [],
      "stateMutability": "nonpayable",
      "type": "function"
    },
    {
      "inputs": [
        {
          "internalType": "address",
          "name": "_newCFO",
          "type": "address"
        }
      ],
      "name": "setCFO",
      "outputs": [],
      "stateMutability": "nonpayable",
      "type": "function"
    },
    {
      "inputs": [
        {
          "internalType": "address",
          "name": "_newCOO",
          "type": "address"
        }
      ],
      "name": "setCOO",
      "outputs": [],
      "stateMutability": "nonpayable",
      "type": "function"
    },
    {
      "inputs": [],
      "name": "unpause",
      "outputs": [],
      "stateMutability": "nonpayable",
      "type": "function"
    },
    {
      "inputs": [
        {
          "internalType": "uint256",
          "name": "newInterval",
          "type": "uint256"
        }
      ],
      "name": "setInterval",
      "outputs": [],
      "stateMutability": "nonpayable",
      "type": "function"
    },
    {
      "inputs": [
        {
          "internalType": "string",
          "name": "ipfsHash",
          "type": "string"
        },
        {
          "internalType": "uint256",
          "name": "price",
          "type": "uint256"
        }
      ],
      "name": "createListing",
      "outputs": [],
      "stateMutability": "payable",
      "type": "function"
    },
    {
      "inputs": [
        {
          "internalType": "string",
          "name": "ipfsHash",
          "type": "string"
        }
      ],
      "name": "makeOffer",
      "outputs": [],
      "stateMutability": "payable",
      "type": "function"
    },
    {
      "inputs": [
        {
          "internalType": "string",
          "name": "ipfsHash",
          "type": "string"
        }
      ],
      "name": "confirmBuy",
      "outputs": [],
      "stateMutability": "nonpayable",
      "type": "function"
    },
    {
      "inputs": [
        {
          "internalType": "bytes",
          "name": "",
          "type": "bytes"
        }
      ],
      "name": "checkUpkeep",
      "outputs": [
        {
          "internalType": "bool",
          "name": "upkeepNeeded",
          "type": "bool"
        },
        {
          "internalType": "bytes",
          "name": "performData",
          "type": "bytes"
        }
      ],
      "stateMutability": "view",
      "type": "function"
    },
    {
      "inputs": [
        {
          "internalType": "bytes",
          "name": "performData",
          "type": "bytes"
        }
      ],
      "name": "performUpkeep",
      "outputs": [],
      "stateMutability": "nonpayable",
      "type": "function"
    },
    {
      "inputs": [],
      "name": "getListingsArray",
      "outputs": [
        {
          "internalType": "string[]",
          "name": "",
          "type": "string[]"
        }
      ],
      "stateMutability": "view",
      "type": "function"
    },
    {
      "inputs": [
        {
          "internalType": "string",
          "name": "ipfsHash",
          "type": "string"
        }
      ],
      "name": "getBuyersForListing",
      "outputs": [
        {
          "internalType": "address[]",
          "name": "",
          "type": "address[]"
        }
      ],
      "stateMutability": "view",
      "type": "function"
    },
    {
      "inputs": [
        {
          "internalType": "string",
          "name": "ipfsHash",
          "type": "string"
        }
      ],
      "name": "getPriceForListing",
      "outputs": [
        {
          "internalType": "uint256",
          "name": "",
          "type": "uint256"
        }
      ],
      "stateMutability": "view",
      "type": "function"
    },
    {
      "inputs": [
        {
          "internalType": "string",
          "name": "ipfsHash",
          "type": "string"
        }
      ],
      "name": "getSellerForListing",
      "outputs": [
        {
          "internalType": "address",
          "name": "",
          "type": "address"
        }
      ],
      "stateMutability": "view",
      "type": "function"
    },
    {
      "inputs": [
        {
          "internalType": "string",
          "name": "ipfsHash",
          "type": "string"
        }
      ],
      "name": "getBoughtForListing",
      "outputs": [
        {
          "internalType": "bool",
          "name": "",
          "type": "bool"
        }
      ],
      "stateMutability": "view",
      "type": "function"
    },
    {
      "inputs": [],
      "name": "kill",
      "outputs": [],
      "stateMutability": "nonpayable",
      "type": "function"
    }
  ],
  "bytecode": "0x60806040526000600260146101000a81548160ff02191690831515021790555062093a8060065534801561003257600080fd5b50336000806101000a81548173ffffffffffffffffffffffffffffffffffffffff021916908373ffffffffffffffffffffffffffffffffffffffff16021790555042600581905550612b43806100896000396000f3fe6080604052600436106101665760003560e01c806348fb8c22116100d15780638456cb591161008a578063c6db546411610064578063c6db5464146104d8578063ceb6440414610515578063e1b9ae6614610552578063e2fabbe81461058f57610166565b80638456cb591461046b578063947a36fb14610482578063b047fb50146104ad57610166565b806348fb8c221461031f5780634e0a33791461035c5780635c975abb146103855780636748fbe3146103b05780636e04ff0d146103ed57806377dec6c31461042b57610166565b80633f3b3b27116101235780633f3b3b27146102655780633f4ba83a1461029057806340b0f375146102a757806341c0e1b5146102c357806344fdf249146102da5780634585e33b146102f657610166565b80630519ce791461016b5780630a0f81681461019657806322a90082146101c157806327d7874c146101ea5780632ba73c15146102135780633e3c82dc1461023c575b600080fd5b34801561017757600080fd5b506101806105ba565b60405161018d9190612566565b60405180910390f35b3480156101a257600080fd5b506101ab6105e0565b6040516101b89190612581565b60405180910390f35b3480156101cd57600080fd5b506101e860048036038101906101e39190612266565b610604565b005b3480156101f657600080fd5b50610211600480360381019061020c91906120fe565b610730565b005b34801561021f57600080fd5b5061023a600480360381019061023591906120fe565b610805565b005b34801561024857600080fd5b50610263600480360381019061025e91906121c1565b6108db565b005b34801561027157600080fd5b5061027a610c34565b6040516102879190612700565b60405180910390f35b34801561029c57600080fd5b506102a5610c3a565b005b6102c160048036038101906102bc91906121c1565b610cc8565b005b3480156102cf57600080fd5b506102d8610f7b565b005b6102f460048036038101906102ef919061220a565b611026565b005b34801561030257600080fd5b5061031d60048036038101906103189190612174565b6111e1565b005b34801561032b57600080fd5b5061034660048036038101906103419190612266565b611286565b60405161035391906126de565b60405180910390f35b34801561036857600080fd5b50610383600480360381019061037e91906120fe565b611332565b005b34801561039157600080fd5b5061039a611408565b6040516103a79190612693565b60405180910390f35b3480156103bc57600080fd5b506103d760048036038101906103d291906121c1565b61141b565b6040516103e49190612693565b60405180910390f35b3480156103f957600080fd5b50610414600480360381019061040f9190612174565b6114d3565b6040516104229291906126ae565b60405180910390f35b34801561043757600080fd5b50610452600480360381019061044d91906121c1565b6116cf565b604051610462949392919061259c565b60405180910390f35b34801561047757600080fd5b50610480611742565b005b34801561048e57600080fd5b50610497611881565b6040516104a49190612700565b60405180910390f35b3480156104b957600080fd5b506104c2611887565b6040516104cf9190612566565b60405180910390f35b3480156104e457600080fd5b506104ff60048036038101906104fa91906121c1565b6118ad565b60405161050c919061264f565b60405180910390f35b34801561052157600080fd5b5061053c600480360381019061053791906121c1565b611a92565b6040516105499190612566565b60405180910390f35b34801561055e57600080fd5b50610579600480360381019061057491906121c1565b611b5d565b6040516105869190612700565b60405180910390f35b34801561059b57600080fd5b506105a4611c08565b6040516105b19190612671565b60405180910390f35b600160009054906101000a900473ffffffffffffffffffffffffffffffffffffffff1681565b60008054906101000a900473ffffffffffffffffffffffffffffffffffffffff1681565b600260149054906101000a900460ff161561061e57600080fd5b600260009054906101000a900473ffffffffffffffffffffffffffffffffffffffff1673ffffffffffffffffffffffffffffffffffffffff163373ffffffffffffffffffffffffffffffffffffffff1614806106c5575060008054906101000a900473ffffffffffffffffffffffffffffffffffffffff1673ffffffffffffffffffffffffffffffffffffffff163373ffffffffffffffffffffffffffffffffffffffff16145b8061071d5750600160009054906101000a900473ffffffffffffffffffffffffffffffffffffffff1673ffffffffffffffffffffffffffffffffffffffff163373ffffffffffffffffffffffffffffffffffffffff16145b61072657600080fd5b8060068190555050565b60008054906101000a900473ffffffffffffffffffffffffffffffffffffffff1673ffffffffffffffffffffffffffffffffffffffff163373ffffffffffffffffffffffffffffffffffffffff161461078857600080fd5b600073ffffffffffffffffffffffffffffffffffffffff168173ffffffffffffffffffffffffffffffffffffffff1614156107c257600080fd5b806000806101000a81548173ffffffffffffffffffffffffffffffffffffffff021916908373ffffffffffffffffffffffffffffffffffffffff16021790555050565b60008054906101000a900473ffffffffffffffffffffffffffffffffffffffff1673ffffffffffffffffffffffffffffffffffffffff163373ffffffffffffffffffffffffffffffffffffffff161461085d57600080fd5b600073ffffffffffffffffffffffffffffffffffffffff168173ffffffffffffffffffffffffffffffffffffffff16141561089757600080fd5b80600260006101000a81548173ffffffffffffffffffffffffffffffffffffffff021916908373ffffffffffffffffffffffffffffffffffffffff16021790555050565b600260149054906101000a900460ff16156108f557600080fd5b600115156003826040516109099190612538565b908152602001604051809103902060010160003373ffffffffffffffffffffffffffffffffffffffff1673ffffffffffffffffffffffffffffffffffffffff16815260200190815260200160002060009054906101000a900460ff1615151461097157600080fd5b600015156003826040516109859190612538565b908152602001604051809103902060050160009054906101000a900460ff161515146109b057600080fd5b60005b6003826040516109c39190612538565b908152602001604051809103902060020180549050811015610bf6573373ffffffffffffffffffffffffffffffffffffffff16600383604051610a069190612538565b90815260200160405180910390206002018281548110610a2957610a28612a52565b5b9060005260206000200160009054906101000a900473ffffffffffffffffffffffffffffffffffffffff1673ffffffffffffffffffffffffffffffffffffffff1614610b3957600382604051610a7f9190612538565b90815260200160405180910390206002018181548110610aa257610aa1612a52565b5b9060005260206000200160009054906101000a900473ffffffffffffffffffffffffffffffffffffffff1673ffffffffffffffffffffffffffffffffffffffff166108fc600384604051610af69190612538565b9081526020016040518091039020600301549081150290604051600060405180830381858888f19350505050158015610b33573d6000803e3d6000fd5b50610be3565b600382604051610b499190612538565b908152602001604051809103902060000160009054906101000a900473ffffffffffffffffffffffffffffffffffffffff1673ffffffffffffffffffffffffffffffffffffffff166108fc600384604051610ba49190612538565b9081526020016040518091039020600301549081150290604051600060405180830381858888f19350505050158015610be1573d6000803e3d6000fd5b505b8080610bee906129ab565b9150506109b3565b506001600382604051610c099190612538565b908152602001604051809103902060050160006101000a81548160ff02191690831515021790555050565b60055481565b60008054906101000a900473ffffffffffffffffffffffffffffffffffffffff1673ffffffffffffffffffffffffffffffffffffffff163373ffffffffffffffffffffffffffffffffffffffff1614610c9257600080fd5b600260149054906101000a900460ff16610cab57600080fd5b6000600260146101000a81548160ff021916908315150217905550565b600260149054906101000a900460ff1615610ce257600080fd5b3373ffffffffffffffffffffffffffffffffffffffff16600382604051610d099190612538565b908152602001604051809103902060000160009054906101000a900473ffffffffffffffffffffffffffffffffffffffff1673ffffffffffffffffffffffffffffffffffffffff161415610d5c57600080fd5b60001515600382604051610d709190612538565b908152602001604051809103902060050160009054906101000a900460ff16151514610d9b57600080fd5b60011515600382604051610daf9190612538565b908152602001604051809103902060010160003373ffffffffffffffffffffffffffffffffffffffff1673ffffffffffffffffffffffffffffffffffffffff16815260200190815260200160002060009054906101000a900460ff1615151415610e1857600080fd5b34600382604051610e299190612538565b9081526020016040518091039020600301541115610e4657600080fd5b6001600382604051610e589190612538565b908152602001604051809103902060010160003373ffffffffffffffffffffffffffffffffffffffff1673ffffffffffffffffffffffffffffffffffffffff16815260200190815260200160002060006101000a81548160ff021916908315150217905550600381604051610ecd9190612538565b9081526020016040518091039020600201339080600181540180825580915050600190039060005260206000200160009091909190916101000a81548173ffffffffffffffffffffffffffffffffffffffff021916908373ffffffffffffffffffffffffffffffffffffffff1602179055507fe28fc4088b70e584fd0f96ac1eabbafc232d8be85bc1ff8deeed1cb8aa5b93233382604051610f709291906125e1565b60405180910390a150565b60008054906101000a900473ffffffffffffffffffffffffffffffffffffffff1673ffffffffffffffffffffffffffffffffffffffff163373ffffffffffffffffffffffffffffffffffffffff1614610fd357600080fd5b600260149054906101000a900460ff1615610fed57600080fd5b60008054906101000a900473ffffffffffffffffffffffffffffffffffffffff1673ffffffffffffffffffffffffffffffffffffffff16ff5b600260149054906101000a900460ff161561104057600080fd5b600073ffffffffffffffffffffffffffffffffffffffff166003836040516110689190612538565b908152602001604051809103902060000160009054906101000a900473ffffffffffffffffffffffffffffffffffffffff1673ffffffffffffffffffffffffffffffffffffffff16146110ba57600080fd5b336003836040516110cb9190612538565b908152602001604051809103902060000160006101000a81548173ffffffffffffffffffffffffffffffffffffffff021916908373ffffffffffffffffffffffffffffffffffffffff1602179055508060038360405161112b9190612538565b908152602001604051809103902060030181905550426003836040516111519190612538565b9081526020016040518091039020600401819055506004829080600181540180825580915050600190039060005260206000200160009091909190915090805190602001906111a1929190611eaf565b507f117a5dfdea357bc69040f213ba3b30a731d4adddc1b5d1580db9d6b85568ea353383836040516111d593929190612611565b60405180910390a15050565b600082828101906111f2919061212b565b905060005b815181101561128057611244600383838151811061121857611217612a52565b5b602002602001015160405161122d9190612538565b908152602001604051809103902060040154611d51565b1561126d5761126c82828151811061125f5761125e612a52565b5b6020026020010151611d6a565b5b8080611278906129ab565b9150506111f7565b50505050565b6004818154811061129657600080fd5b9060005260206000200160009150905080546112b190612948565b80601f01602080910402602001604051908101604052809291908181526020018280546112dd90612948565b801561132a5780601f106112ff5761010080835404028352916020019161132a565b820191906000526020600020905b81548152906001019060200180831161130d57829003601f168201915b505050505081565b60008054906101000a900473ffffffffffffffffffffffffffffffffffffffff1673ffffffffffffffffffffffffffffffffffffffff163373ffffffffffffffffffffffffffffffffffffffff161461138a57600080fd5b600073ffffffffffffffffffffffffffffffffffffffff168173ffffffffffffffffffffffffffffffffffffffff1614156113c457600080fd5b80600160006101000a81548173ffffffffffffffffffffffffffffffffffffffff021916908373ffffffffffffffffffffffffffffffffffffffff16021790555050565b600260149054906101000a900460ff1681565b60008073ffffffffffffffffffffffffffffffffffffffff166003836040516114449190612538565b908152602001604051809103902060000160009054906101000a900473ffffffffffffffffffffffffffffffffffffffff1673ffffffffffffffffffffffffffffffffffffffff16141561149757600080fd5b60006003836040516114a99190612538565b908152602001604051809103902060050160009054906101000a900460ff16905080915050919050565b60006060600060048054905067ffffffffffffffff8111156114f8576114f7612a81565b5b60405190808252806020026020018201604052801561152b57816020015b60608152602001906001900390816115165790505b5090506000805b6004805490508110156116685761158660036004838154811061155857611557612a52565b5b9060005260206000200160405161156f919061254f565b908152602001604051809103902060040154611d51565b15611655576004818154811061159f5761159e612a52565b5b9060005260206000200180546115b490612948565b80601f01602080910402602001604051908101604052809291908181526020018280546115e090612948565b801561162d5780601f106116025761010080835404028352916020019161162d565b820191906000526020600020905b81548152906001019060200180831161161057829003601f168201915b505050505083828151811061164557611644612a52565b5b6020026020010181905250600191505b8080611660906129ab565b915050611532565b50801561169c57816040516020016116809190612671565b60405160208183030381529060405292506001935050506116c8565b6060806040516020016116af9190612671565b6040516020818303038152906040529350600094505050505b9250929050565b6003818051602081018201805184825260208301602085012081835280955050505050506000915090508060000160009054906101000a900473ffffffffffffffffffffffffffffffffffffffff16908060030154908060040154908060050160009054906101000a900460ff16905084565b600260009054906101000a900473ffffffffffffffffffffffffffffffffffffffff1673ffffffffffffffffffffffffffffffffffffffff163373ffffffffffffffffffffffffffffffffffffffff1614806117e9575060008054906101000a900473ffffffffffffffffffffffffffffffffffffffff1673ffffffffffffffffffffffffffffffffffffffff163373ffffffffffffffffffffffffffffffffffffffff16145b806118415750600160009054906101000a900473ffffffffffffffffffffffffffffffffffffffff1673ffffffffffffffffffffffffffffffffffffffff163373ffffffffffffffffffffffffffffffffffffffff16145b61184a57600080fd5b600260149054906101000a900460ff161561186457600080fd5b6001600260146101000a81548160ff021916908315150217905550565b60065481565b600260009054906101000a900473ffffffffffffffffffffffffffffffffffffffff1681565b6060600073ffffffffffffffffffffffffffffffffffffffff166003836040516118d79190612538565b908152602001604051809103902060000160009054906101000a900473ffffffffffffffffffffffffffffffffffffffff1673ffffffffffffffffffffffffffffffffffffffff16141561192a57600080fd5b600060038360405161193c9190612538565b90815260200160405180910390206002018054905067ffffffffffffffff81111561196a57611969612a81565b5b6040519080825280602002602001820160405280156119985781602001602082028036833780820191505090505b50905060005b6003846040516119ae9190612538565b908152602001604051809103902060020180549050811015611a88576003846040516119da9190612538565b908152602001604051809103902060020181815481106119fd576119fc612a52565b5b9060005260206000200160009054906101000a900473ffffffffffffffffffffffffffffffffffffffff16828281518110611a3b57611a3a612a52565b5b602002602001019073ffffffffffffffffffffffffffffffffffffffff16908173ffffffffffffffffffffffffffffffffffffffff16815250508080611a80906129ab565b91505061199e565b5080915050919050565b60008073ffffffffffffffffffffffffffffffffffffffff16600383604051611abb9190612538565b908152602001604051809103902060000160009054906101000a900473ffffffffffffffffffffffffffffffffffffffff1673ffffffffffffffffffffffffffffffffffffffff161415611b0e57600080fd5b6000600383604051611b209190612538565b908152602001604051809103902060000160009054906101000a900473ffffffffffffffffffffffffffffffffffffffff16905080915050919050565b60008073ffffffffffffffffffffffffffffffffffffffff16600383604051611b869190612538565b908152602001604051809103902060000160009054906101000a900473ffffffffffffffffffffffffffffffffffffffff1673ffffffffffffffffffffffffffffffffffffffff161415611bd957600080fd5b6000600383604051611beb9190612538565b908152602001604051809103902060030154905080915050919050565b6060600060048054905067ffffffffffffffff811115611c2b57611c2a612a81565b5b604051908082528060200260200182016040528015611c5e57816020015b6060815260200190600190039081611c495790505b50905060005b600480549050811015611d495760048181548110611c8557611c84612a52565b5b906000526020600020018054611c9a90612948565b80601f0160208091040260200160405190810160405280929190818152602001828054611cc690612948565b8015611d135780601f10611ce857610100808354040283529160200191611d13565b820191906000526020600020905b815481529060010190602001808311611cf657829003601f168201915b5050505050828281518110611d2b57611d2a612a52565b5b60200260200101819052508080611d41906129ab565b915050611c64565b508091505090565b600060065442611d619190612878565b82109050919050565b60005b600382604051611d7d9190612538565b908152602001604051809103902060020180549050811015611e7157600382604051611da99190612538565b90815260200160405180910390206002018181548110611dcc57611dcb612a52565b5b9060005260206000200160009054906101000a900473ffffffffffffffffffffffffffffffffffffffff1673ffffffffffffffffffffffffffffffffffffffff166108fc600384604051611e209190612538565b9081526020016040518091039020600301549081150290604051600060405180830381858888f19350505050158015611e5d573d6000803e3d6000fd5b508080611e69906129ab565b915050611d6d565b506001600382604051611e849190612538565b908152602001604051809103902060050160006101000a81548160ff02191690831515021790555050565b828054611ebb90612948565b90600052602060002090601f016020900481019282611edd5760008555611f24565b82601f10611ef657805160ff1916838001178555611f24565b82800160010185558215611f24579182015b82811115611f23578251825591602001919060010190611f08565b5b509050611f319190611f35565b5090565b5b80821115611f4e576000816000905550600101611f36565b5090565b6000611f65611f6084612740565b61271b565b90508083825260208201905082856020860282011115611f8857611f87612aba565b5b60005b85811015611fd657813567ffffffffffffffff811115611fae57611fad612ab5565b5b808601611fbb89826120bb565b85526020850194506020840193505050600181019050611f8b565b5050509392505050565b6000611ff3611fee8461276c565b61271b565b90508281526020810184848401111561200f5761200e612abf565b5b61201a848285612906565b509392505050565b60008135905061203181612adf565b92915050565b600082601f83011261204c5761204b612ab5565b5b813561205c848260208601611f52565b91505092915050565b60008083601f84011261207b5761207a612ab5565b5b8235905067ffffffffffffffff81111561209857612097612ab0565b5b6020830191508360018202830111156120b4576120b3612aba565b5b9250929050565b600082601f8301126120d0576120cf612ab5565b5b81356120e0848260208601611fe0565b91505092915050565b6000813590506120f881612af6565b92915050565b60006020828403121561211457612113612ac9565b5b600061212284828501612022565b91505092915050565b60006020828403121561214157612140612ac9565b5b600082013567ffffffffffffffff81111561215f5761215e612ac4565b5b61216b84828501612037565b91505092915050565b6000806020838503121561218b5761218a612ac9565b5b600083013567ffffffffffffffff8111156121a9576121a8612ac4565b5b6121b585828601612065565b92509250509250929050565b6000602082840312156121d7576121d6612ac9565b5b600082013567ffffffffffffffff8111156121f5576121f4612ac4565b5b612201848285016120bb565b91505092915050565b6000806040838503121561222157612220612ac9565b5b600083013567ffffffffffffffff81111561223f5761223e612ac4565b5b61224b858286016120bb565b925050602061225c858286016120e9565b9150509250929050565b60006020828403121561227c5761227b612ac9565b5b600061228a848285016120e9565b91505092915050565b600061229f83836122ce565b60208301905092915050565b60006122b78383612407565b905092915050565b6122c8816128be565b82525050565b6122d7816128ac565b82525050565b6122e6816128ac565b82525050565b60006122f7826127d2565b6123018185612818565b935061230c8361279d565b8060005b8381101561233d5781516123248882612293565b975061232f836127fe565b925050600181019050612310565b5085935050505092915050565b6000612355826127dd565b61235f8185612829565b935083602082028501612371856127ad565b8060005b858110156123ad578484038952815161238e85826122ab565b94506123998361280b565b925060208a01995050600181019050612375565b50829750879550505050505092915050565b6123c8816128d0565b82525050565b60006123d9826127e8565b6123e3818561283a565b93506123f3818560208601612915565b6123fc81612ace565b840191505092915050565b6000612412826127f3565b61241c818561284b565b935061242c818560208601612915565b61243581612ace565b840191505092915050565b600061244b826127f3565b612455818561285c565b9350612465818560208601612915565b61246e81612ace565b840191505092915050565b6000612484826127f3565b61248e818561286d565b935061249e818560208601612915565b80840191505092915050565b600081546124b781612948565b6124c1818661286d565b945060018216600081146124dc57600181146124ed57612520565b60ff19831686528186019350612520565b6124f6856127bd565b60005b83811015612518578154818901526001820191506020810190506124f9565b838801955050505b50505092915050565b612532816128fc565b82525050565b60006125448284612479565b915081905092915050565b600061255b82846124aa565b915081905092915050565b600060208201905061257b60008301846122dd565b92915050565b600060208201905061259660008301846122bf565b92915050565b60006080820190506125b160008301876122bf565b6125be6020830186612529565b6125cb6040830185612529565b6125d860608301846123bf565b95945050505050565b60006040820190506125f660008301856122dd565b81810360208301526126088184612440565b90509392505050565b600060608201905061262660008301866122dd565b81810360208301526126388185612440565b90506126476040830184612529565b949350505050565b6000602082019050818103600083015261266981846122ec565b905092915050565b6000602082019050818103600083015261268b818461234a565b905092915050565b60006020820190506126a860008301846123bf565b92915050565b60006040820190506126c360008301856123bf565b81810360208301526126d581846123ce565b90509392505050565b600060208201905081810360008301526126f88184612440565b905092915050565b60006020820190506127156000830184612529565b92915050565b6000612725612736565b9050612731828261297a565b919050565b6000604051905090565b600067ffffffffffffffff82111561275b5761275a612a81565b5b602082029050602081019050919050565b600067ffffffffffffffff82111561278757612786612a81565b5b61279082612ace565b9050602081019050919050565b6000819050602082019050919050565b6000819050602082019050919050565b60008190508160005260206000209050919050565b600081519050919050565b600081519050919050565b600081519050919050565b600081519050919050565b6000602082019050919050565b6000602082019050919050565b600082825260208201905092915050565b600082825260208201905092915050565b600082825260208201905092915050565b600082825260208201905092915050565b600082825260208201905092915050565b600081905092915050565b6000612883826128fc565b915061288e836128fc565b9250828210156128a1576128a06129f4565b5b828203905092915050565b60006128b7826128dc565b9050919050565b60006128c9826128dc565b9050919050565b60008115159050919050565b600073ffffffffffffffffffffffffffffffffffffffff82169050919050565b6000819050919050565b82818337600083830152505050565b60005b83811015612933578082015181840152602081019050612918565b83811115612942576000848401525b50505050565b6000600282049050600182168061296057607f821691505b6020821081141561297457612973612a23565b5b50919050565b61298382612ace565b810181811067ffffffffffffffff821117156129a2576129a1612a81565b5b80604052505050565b60006129b6826128fc565b91507fffffffffffffffffffffffffffffffffffffffffffffffffffffffffffffffff8214156129e9576129e86129f4565b5b600182019050919050565b7f4e487b7100000000000000000000000000000000000000000000000000000000600052601160045260246000fd5b7f4e487b7100000000000000000000000000000000000000000000000000000000600052602260045260246000fd5b7f4e487b7100000000000000000000000000000000000000000000000000000000600052603260045260246000fd5b7f4e487b7100000000000000000000000000000000000000000000000000000000600052604160045260246000fd5b600080fd5b600080fd5b600080fd5b600080fd5b600080fd5b600080fd5b6000601f19601f8301169050919050565b612ae8816128ac565b8114612af357600080fd5b50565b612aff816128fc565b8114612b0a57600080fd5b5056fea26469706673582212209c4d56be5fe02f0e82c67419ac27af1eff834910cef3cc6531b7fcc32694f5f664736f6c63430008070033",
  "immutableReferences": {},
  "source": "// SPDX-License-Identifier: MIT\npragma solidity >=0.4.22 <0.9.0;\n\nimport \"@chainlink/contracts/src/v0.8/KeeperCompatible.sol\";\nimport \"./AccessControl.sol\";\n\n/// @title Listings manages buying and selling of listed items\ncontract Listings is AccessControl, KeeperCompatible {\n    /// @dev used to store information about a Listing\n    struct Listing {\n        address payable sellerAddress;\n        mapping(address => bool) buyerAddresses;\n        address payable[] buyerAddressesArray;\n        uint256 price;\n        uint256 date;\n        bool bought;\n    }\n\n    /// @dev stores all of the submitted Listings\n    mapping(string => Listing) public listings;\n    /// @dev Also store listings hash as an array in order to loop over later during upkeep\n    string[] public listingsArray;\n\n    /// @dev emitted whenever a new listing is submitted\n    event ListingSubmitted(\n        address sellerAddress,\n        string ipfsHash,\n        uint256 price\n    );\n\n    /// @dev emitted whenever a new listing is submitted\n    event Debug(uint256 date, string[] listingsArray, bool updateNeeded);\n\n    /// @dev emitted whenever an offer is made from a seller\n    event OfferMade(address buyerAddress, string ipfsHash);\n\n    uint256 public lastTimeStamp;\n    uint256 public interval = 604800;\n\n    constructor() {\n        lastTimeStamp = block.timestamp;\n    }\n\n    /// @dev Change the interval used for wiping data\n    function setInterval(uint256 newInterval) public whenNotPaused onlyCLevel {\n        interval = newInterval;\n    }\n\n    /// @dev List an item for sale, where the metadata is stored in IPFS\n    function createListing(string memory ipfsHash, uint256 price)\n        public\n        payable\n        whenNotPaused\n    {\n        require(listings[ipfsHash].sellerAddress == address(0x0));\n\n        listings[ipfsHash].sellerAddress = payable(msg.sender);\n        listings[ipfsHash].price = price;\n        listings[ipfsHash].date = block.timestamp;\n\n        listingsArray.push(ipfsHash);\n\n        emit ListingSubmitted(msg.sender, ipfsHash, price);\n    }\n\n    /// @dev Make an offer to buy a listing\n    function makeOffer(string memory ipfsHash) public payable whenNotPaused {\n        require(listings[ipfsHash].sellerAddress != msg.sender);\n        require(listings[ipfsHash].bought == false);\n        require(listings[ipfsHash].buyerAddresses[msg.sender] != true);\n        require(listings[ipfsHash].price <= msg.value);\n        listings[ipfsHash].buyerAddresses[msg.sender] = true;\n        listings[ipfsHash].buyerAddressesArray.push(payable(msg.sender));\n\n        emit OfferMade(msg.sender, ipfsHash);\n    }\n\n    /// @dev Confirm a buy has taken place and transfer funds\n    function confirmBuy(string memory ipfsHash) public whenNotPaused {\n        require(listings[ipfsHash].buyerAddresses[msg.sender] == true);\n        require(listings[ipfsHash].bought == false);\n\n        for (\n            uint256 i = 0;\n            i < listings[ipfsHash].buyerAddressesArray.length;\n            i++\n        ) {\n            if (listings[ipfsHash].buyerAddressesArray[i] != msg.sender) {\n                listings[ipfsHash].buyerAddressesArray[i].transfer(\n                    listings[ipfsHash].price\n                );\n            } else {\n                // Send funds to seller\n                listings[ipfsHash].sellerAddress.transfer(\n                    listings[ipfsHash].price\n                );\n            }\n        }\n\n        listings[ipfsHash].bought = true;\n    }\n\n    /// @dev Called during performUpkeep to empty unused funds\n    function removeListing(string memory ipfsHash) private {\n        for (\n            uint256 i = 0;\n            i < listings[ipfsHash].buyerAddressesArray.length;\n            i++\n        ) {\n            listings[ipfsHash].buyerAddressesArray[i].transfer(\n                listings[ipfsHash].price\n            );\n        }\n\n        listings[ipfsHash].bought = true;\n    }\n\n    function checkUpkeep(\n        bytes calldata /* checkData */\n    )\n        external\n        view\n        override\n        returns (bool upkeepNeeded, bytes memory performData)\n    {\n        string[] memory listingsToRemove = new string[](listingsArray.length);\n\n        bool updateNeeded = false;\n        for (uint256 i = 0; i < listingsArray.length; i++) {\n            if (checkDateIsOlderThanInterval(listings[listingsArray[i]].date)) {\n                listingsToRemove[i] = listingsArray[i];\n                updateNeeded = true;\n            }\n        }\n\n        if (updateNeeded) {\n            performData = abi.encode(listingsToRemove);\n            return (true, performData);\n        } else {\n            string[] memory emptyListing;\n            performData = abi.encode(emptyListing);\n            return (false, performData);\n        }\n    }\n\n    function performUpkeep(bytes calldata performData) external override {\n        string[] memory decodedValue = abi.decode(performData, (string[]));\n\n        for (uint256 i = 0; i < decodedValue.length; i++) {\n            if (checkDateIsOlderThanInterval(listings[decodedValue[i]].date)) {\n                removeListing(decodedValue[i]);\n            }\n        }\n    }\n\n    /// @dev Ascertain whether a date is older than the interval (i.e. that it's two weeks old compared to current blocktime)\n    function checkDateIsOlderThanInterval(uint256 date)\n        private\n        view\n        returns (bool)\n    {\n        return date < block.timestamp - interval;\n    }\n\n    function getListingsArray() public view returns (string[] memory) {\n        string[] memory allListings = new string[](listingsArray.length);\n        for (uint256 i = 0; i < listingsArray.length; i++) {\n            allListings[i] = listingsArray[i];\n        }\n        return allListings;\n    }\n\n    function getBuyersForListing(string memory ipfsHash)\n        public\n        view\n        returns (address[] memory)\n    {\n        require(listings[ipfsHash].sellerAddress != address(0x0));\n\n        address[] memory buyerAddresses = new address[](\n            listings[ipfsHash].buyerAddressesArray.length\n        );\n        for (\n            uint256 i = 0;\n            i < listings[ipfsHash].buyerAddressesArray.length;\n            i++\n        ) {\n            buyerAddresses[i] = listings[ipfsHash].buyerAddressesArray[i];\n        }\n        return buyerAddresses;\n    }\n\n    function getPriceForListing(string memory ipfsHash)\n        public\n        view\n        returns (uint256)\n    {\n        require(listings[ipfsHash].sellerAddress != address(0x0));\n\n        uint256 price = listings[ipfsHash].price;\n        return price;\n    }\n\n    function getSellerForListing(string memory ipfsHash)\n        public\n        view\n        returns (address)\n    {\n        require(listings[ipfsHash].sellerAddress != address(0x0));\n\n        address sellerAddress = listings[ipfsHash].sellerAddress;\n        return sellerAddress;\n    }\n\n    function getBoughtForListing(string memory ipfsHash)\n        public\n        view\n        returns (bool)\n    {\n        require(listings[ipfsHash].sellerAddress != address(0x0));\n\n        bool bought = listings[ipfsHash].bought;\n        return bought;\n    }\n\n    /// @dev this method calls selfdestruct() and removes the contract from the blockchain.\n    function kill() public onlyCEO whenNotPaused {\n        selfdestruct(ceoAddress);\n    }\n}\n",
  "sourcePath": "/Users/berniesnell/Blockchain/barrio/fe-barrio/contracts/Listings.sol",
  "compiler": {
    "name": "solc",
    "version": "0.8.7+commit.e28d00a7.Emscripten.clang"
  },
  "schemaVersion": "3.4.7",
  "updatedAt": "2022-05-18T16:33:06.419Z",
  "devdoc": {
    "events": {
      "Debug(uint256,string[],bool)": {
        "details": "emitted whenever a new listing is submitted"
      },
      "ListingSubmitted(address,string,uint256)": {
        "details": "emitted whenever a new listing is submitted"
      },
      "OfferMade(address,string)": {
        "details": "emitted whenever an offer is made from a seller"
      }
    },
    "kind": "dev",
    "methods": {
      "confirmBuy(string)": {
        "details": "Confirm a buy has taken place and transfer funds"
      },
      "createListing(string,uint256)": {
        "details": "List an item for sale, where the metadata is stored in IPFS"
      },
      "kill()": {
        "details": "this method calls selfdestruct() and removes the contract from the blockchain."
      },
      "makeOffer(string)": {
        "details": "Make an offer to buy a listing"
      },
      "pause()": {
        "details": "Called by any \"C-level\" role to pause the contract. Used only when  a bug or exploit is detected and we need to limit damage."
      },
      "performUpkeep(bytes)": {
        "details": "The input to this method should not be trusted, and the caller of the method should not even be restricted to any single registry. Anyone should be able call it, and the input should be validated, there is no guarantee that the data passed in is the performData returned from checkUpkeep. This could happen due to malicious keepers, racing keepers, or simply a state change while the performUpkeep transaction is waiting for confirmation. Always validate the data passed in.",
        "params": {
          "performData": "is the data which was passed back from the checkData simulation. If it is encoded, it can easily be decoded into other types by calling `abi.decode`. This data should not be trusted, and should be validated against the contract's current state."
        }
      },
      "setCEO(address)": {
        "details": "Assigns a new address to act as the CEO. Only available to the current CEO.",
        "params": {
          "_newCEO": "The address of the new CEO"
        }
      },
      "setCFO(address)": {
        "details": "Assigns a new address to act as the CFO. Only available to the current CEO.",
        "params": {
          "_newCFO": "The address of the new CFO"
        }
      },
      "setCOO(address)": {
        "details": "Assigns a new address to act as the COO. Only available to the current CEO.",
        "params": {
          "_newCOO": "The address of the new COO"
        }
      },
      "setInterval(uint256)": {
        "details": "Change the interval used for wiping data"
      },
      "unpause()": {
        "details": "Unpauses the smart contract. Can only be called by the CEO, since  one reason we may pause the contract is when CFO or COO accounts are  compromised."
      }
    },
    "stateVariables": {
      "listings": {
        "details": "stores all of the submitted Listings"
      },
      "listingsArray": {
        "details": "Also store listings hash as an array in order to loop over later during upkeep"
      }
    },
    "title": "Listings manages buying and selling of listed items",
    "version": 1
  },
  "userdoc": {
    "kind": "user",
    "methods": {
      "performUpkeep(bytes)": {
        "notice": "method that is actually executed by the keepers, via the registry. The data returned by the checkUpkeep simulation will be passed into this method to actually be executed."
      },
      "unpause()": {
        "notice": "This is public rather than external so it can be called by  derived contracts."
      }
    },
    "version": 1
  }
}