{
  "contractName": "Listings",
  "abi": [
    {
      "inputs": [],
      "stateMutability": "nonpayable",
      "type": "constructor"
    },
    {
      "inputs": [],
      "name": "OnlySimulatedBackend",
      "type": "error"
    },
    {
      "anonymous": false,
      "inputs": [
        {
          "indexed": false,
          "internalType": "address",
          "name": "buyerAddress",
          "type": "address"
        },
        {
          "indexed": false,
          "internalType": "string",
          "name": "ipfsHash",
          "type": "string"
        },
        {
          "indexed": false,
          "internalType": "uint256",
          "name": "amount",
          "type": "uint256"
        }
      ],
      "name": "BuyConfirmed",
      "type": "event"
    },
    {
      "anonymous": false,
      "inputs": [
        {
          "indexed": false,
          "internalType": "address",
          "name": "newContract",
          "type": "address"
        }
      ],
      "name": "ContractUpgrade",
      "type": "event"
    },
    {
      "anonymous": false,
      "inputs": [
        {
          "indexed": false,
          "internalType": "address",
          "name": "sellerAddress",
          "type": "address"
        },
        {
          "indexed": false,
          "internalType": "string",
          "name": "ipfsHash",
          "type": "string"
        },
        {
          "indexed": false,
          "internalType": "uint256",
          "name": "price",
          "type": "uint256"
        }
      ],
      "name": "ListingSubmitted",
      "type": "event"
    },
    {
      "anonymous": false,
      "inputs": [
        {
          "indexed": false,
          "internalType": "address",
          "name": "buyerAddress",
          "type": "address"
        },
        {
          "indexed": false,
          "internalType": "string",
          "name": "ipfsHash",
          "type": "string"
        },
        {
          "indexed": false,
          "internalType": "uint256",
          "name": "amount",
          "type": "uint256"
        }
      ],
      "name": "OfferAccepted",
      "type": "event"
    },
    {
      "anonymous": false,
      "inputs": [
        {
          "indexed": false,
          "internalType": "address",
          "name": "buyerAddress",
          "type": "address"
        },
        {
          "indexed": false,
          "internalType": "string",
          "name": "ipfsHash",
          "type": "string"
        },
        {
          "indexed": false,
          "internalType": "uint256",
          "name": "amount",
          "type": "uint256"
        }
      ],
      "name": "OfferMade",
      "type": "event"
    },
    {
      "inputs": [],
      "name": "ceoAddress",
      "outputs": [
        {
          "internalType": "address payable",
          "name": "",
          "type": "address"
        }
      ],
      "stateMutability": "view",
      "type": "function"
    },
    {
      "inputs": [],
      "name": "cfoAddress",
      "outputs": [
        {
          "internalType": "address",
          "name": "",
          "type": "address"
        }
      ],
      "stateMutability": "view",
      "type": "function"
    },
    {
      "inputs": [],
      "name": "cooAddress",
      "outputs": [
        {
          "internalType": "address",
          "name": "",
          "type": "address"
        }
      ],
      "stateMutability": "view",
      "type": "function"
    },
    {
      "inputs": [],
      "name": "interval",
      "outputs": [
        {
          "internalType": "uint256",
          "name": "",
          "type": "uint256"
        }
      ],
      "stateMutability": "view",
      "type": "function"
    },
    {
      "inputs": [],
      "name": "lastTimeStamp",
      "outputs": [
        {
          "internalType": "uint256",
          "name": "",
          "type": "uint256"
        }
      ],
      "stateMutability": "view",
      "type": "function"
    },
    {
      "inputs": [
        {
          "internalType": "string",
          "name": "",
          "type": "string"
        }
      ],
      "name": "listings",
      "outputs": [
        {
          "internalType": "address payable",
          "name": "sellerAddress",
          "type": "address"
        },
        {
          "internalType": "address",
          "name": "acceptedBuyer",
          "type": "address"
        },
        {
          "internalType": "address",
          "name": "finalBuyer",
          "type": "address"
        },
        {
          "internalType": "uint256",
          "name": "price",
          "type": "uint256"
        },
        {
          "internalType": "bool",
          "name": "priceIsInUSD",
          "type": "bool"
        },
        {
          "internalType": "uint256",
          "name": "date",
          "type": "uint256"
        },
        {
          "internalType": "bool",
          "name": "bought",
          "type": "bool"
        },
        {
          "internalType": "bool",
          "name": "isAuction",
          "type": "bool"
        }
      ],
      "stateMutability": "view",
      "type": "function"
    },
    {
      "inputs": [
        {
          "internalType": "uint256",
          "name": "",
          "type": "uint256"
        }
      ],
      "name": "listingsArray",
      "outputs": [
        {
          "internalType": "string",
          "name": "",
          "type": "string"
        }
      ],
      "stateMutability": "view",
      "type": "function"
    },
    {
      "inputs": [],
      "name": "pause",
      "outputs": [],
      "stateMutability": "nonpayable",
      "type": "function"
    },
    {
      "inputs": [],
      "name": "paused",
      "outputs": [
        {
          "internalType": "bool",
          "name": "",
          "type": "bool"
        }
      ],
      "stateMutability": "view",
      "type": "function"
    },
    {
      "inputs": [
        {
          "internalType": "address",
          "name": "_newCEO",
          "type": "address"
        }
      ],
      "name": "setCEO",
      "outputs": [],
      "stateMutability": "nonpayable",
      "type": "function"
    },
    {
      "inputs": [
        {
          "internalType": "address",
          "name": "_newCFO",
          "type": "address"
        }
      ],
      "name": "setCFO",
      "outputs": [],
      "stateMutability": "nonpayable",
      "type": "function"
    },
    {
      "inputs": [
        {
          "internalType": "address",
          "name": "_newCOO",
          "type": "address"
        }
      ],
      "name": "setCOO",
      "outputs": [],
      "stateMutability": "nonpayable",
      "type": "function"
    },
    {
      "inputs": [],
      "name": "unpause",
      "outputs": [],
      "stateMutability": "nonpayable",
      "type": "function"
    },
    {
      "inputs": [
        {
          "internalType": "uint256",
          "name": "newInterval",
          "type": "uint256"
        }
      ],
      "name": "setInterval",
      "outputs": [],
      "stateMutability": "nonpayable",
      "type": "function"
    },
    {
      "inputs": [
        {
          "internalType": "string",
          "name": "ipfsHash",
          "type": "string"
        },
        {
          "internalType": "uint256",
          "name": "price",
          "type": "uint256"
        },
        {
          "internalType": "bool",
          "name": "isAuction",
          "type": "bool"
        },
        {
          "internalType": "bool",
          "name": "priceIsInUSD",
          "type": "bool"
        }
      ],
      "name": "createListing",
      "outputs": [],
      "stateMutability": "payable",
      "type": "function"
    },
    {
      "inputs": [
        {
          "internalType": "string",
          "name": "ipfsHash",
          "type": "string"
        }
      ],
      "name": "makeOffer",
      "outputs": [],
      "stateMutability": "payable",
      "type": "function"
    },
    {
      "inputs": [
        {
          "internalType": "string",
          "name": "ipfsHash",
          "type": "string"
        }
      ],
      "name": "confirmBuy",
      "outputs": [],
      "stateMutability": "nonpayable",
      "type": "function"
    },
    {
      "inputs": [
        {
          "internalType": "string",
          "name": "ipfsHash",
          "type": "string"
        },
        {
          "internalType": "address",
          "name": "buyerToAccept",
          "type": "address"
        }
      ],
      "name": "acceptOffer",
      "outputs": [],
      "stateMutability": "nonpayable",
      "type": "function"
    },
    {
      "inputs": [
        {
          "internalType": "bytes",
          "name": "",
          "type": "bytes"
        }
      ],
      "name": "checkUpkeep",
      "outputs": [
        {
          "internalType": "bool",
          "name": "upkeepNeeded",
          "type": "bool"
        },
        {
          "internalType": "bytes",
          "name": "performData",
          "type": "bytes"
        }
      ],
      "stateMutability": "view",
      "type": "function"
    },
    {
      "inputs": [
        {
          "internalType": "bytes",
          "name": "performData",
          "type": "bytes"
        }
      ],
      "name": "performUpkeep",
      "outputs": [],
      "stateMutability": "nonpayable",
      "type": "function"
    },
    {
      "inputs": [],
      "name": "getListingsArray",
      "outputs": [
        {
          "internalType": "string[]",
          "name": "",
          "type": "string[]"
        }
      ],
      "stateMutability": "view",
      "type": "function"
    },
    {
      "inputs": [
        {
          "internalType": "string",
          "name": "ipfsHash",
          "type": "string"
        }
      ],
      "name": "getBuyersForListing",
      "outputs": [
        {
          "internalType": "address[]",
          "name": "",
          "type": "address[]"
        }
      ],
      "stateMutability": "view",
      "type": "function"
    },
    {
      "inputs": [
        {
          "internalType": "string",
          "name": "ipfsHash",
          "type": "string"
        }
      ],
      "name": "getPriceForListing",
      "outputs": [
        {
          "internalType": "uint256",
          "name": "",
          "type": "uint256"
        }
      ],
      "stateMutability": "view",
      "type": "function"
    },
    {
      "inputs": [
        {
          "internalType": "string",
          "name": "ipfsHash",
          "type": "string"
        }
      ],
      "name": "getHighestBuyerForAuction",
      "outputs": [
        {
          "internalType": "address",
          "name": "",
          "type": "address"
        }
      ],
      "stateMutability": "view",
      "type": "function"
    },
    {
      "inputs": [
        {
          "internalType": "string",
          "name": "ipfsHash",
          "type": "string"
        }
      ],
      "name": "getHighestAmountForAuction",
      "outputs": [
        {
          "internalType": "uint256",
          "name": "",
          "type": "uint256"
        }
      ],
      "stateMutability": "view",
      "type": "function"
    },
    {
      "inputs": [
        {
          "internalType": "string",
          "name": "ipfsHash",
          "type": "string"
        },
        {
          "internalType": "address",
          "name": "buyer",
          "type": "address"
        }
      ],
      "name": "getOfferForBuyerInAuction",
      "outputs": [
        {
          "internalType": "uint256",
          "name": "",
          "type": "uint256"
        }
      ],
      "stateMutability": "view",
      "type": "function"
    },
    {
      "inputs": [
        {
          "internalType": "string",
          "name": "ipfsHash",
          "type": "string"
        }
      ],
      "name": "getSellerForListing",
      "outputs": [
        {
          "internalType": "address",
          "name": "",
          "type": "address"
        }
      ],
      "stateMutability": "view",
      "type": "function"
    },
    {
      "inputs": [
        {
          "internalType": "string",
          "name": "ipfsHash",
          "type": "string"
        }
      ],
      "name": "getDateForListing",
      "outputs": [
        {
          "internalType": "uint256",
          "name": "",
          "type": "uint256"
        }
      ],
      "stateMutability": "view",
      "type": "function"
    },
    {
      "inputs": [
        {
          "internalType": "string",
          "name": "ipfsHash",
          "type": "string"
        }
      ],
      "name": "getBoughtForListing",
      "outputs": [
        {
          "internalType": "bool",
          "name": "",
          "type": "bool"
        }
      ],
      "stateMutability": "view",
      "type": "function"
    },
    {
      "inputs": [
        {
          "internalType": "string",
          "name": "ipfsHash",
          "type": "string"
        }
      ],
      "name": "getIsAcceptedForListing",
      "outputs": [
        {
          "internalType": "bool",
          "name": "",
          "type": "bool"
        }
      ],
      "stateMutability": "view",
      "type": "function"
    },
    {
      "inputs": [
        {
          "internalType": "string",
          "name": "ipfsHash",
          "type": "string"
        }
      ],
      "name": "getIsAuction",
      "outputs": [
        {
          "internalType": "bool",
          "name": "",
          "type": "bool"
        }
      ],
      "stateMutability": "view",
      "type": "function"
    },
    {
      "inputs": [],
      "name": "kill",
      "outputs": [],
      "stateMutability": "nonpayable",
      "type": "function"
    }
  ],
  "bytecode": "0x60806040526000600260146101000a81548160ff02191690831515021790555062093a8060065534801561003257600080fd5b50336000806101000a81548173ffffffffffffffffffffffffffffffffffffffff021916908373ffffffffffffffffffffffffffffffffffffffff1602179055504260058190555061526b806100896000396000f3fe6080604052600436106101e25760003560e01c80634e0a337911610102578063947a36fb11610095578063ceb6440411610064578063ceb6440414610710578063e1b9ae661461074d578063e2fabbe81461078a578063fad05b02146107b5576101e2565b8063947a36fb14610640578063b047fb501461066b578063c6db546414610696578063cc803934146106d3576101e2565b80636e04ff0d116100d15780636e04ff0d1461057e57806377dec6c3146105bc57806384328e20146106005780638456cb5914610629576101e2565b80634e0a3379146104b05780635c975abb146104d9578063629b5e96146105045780636748fbe314610541576101e2565b80632f97d2151161017a57806340b0f3751161014957806340b0f3751461041757806341c0e1b5146104335780634585e33b1461044a57806348fb8c2214610473576101e2565b80632f97d2151461036f5780633e3c82dc146103ac5780633f3b3b27146103d55780633f4ba83a14610400576101e2565b80631d76fe20116101b65780631d76fe20146102b757806322a90082146102f457806327d7874c1461031d5780632ba73c1514610346576101e2565b806217e8a7146101e75780630519ce79146102245780630a0f81681461024f5780631cd493281461027a575b600080fd5b3480156101f357600080fd5b5061020e60048036038101906102099190613b48565b6107d1565b60405161021b91906146d5565b60405180910390f35b34801561023057600080fd5b506102396108fa565b6040516102469190614272565b60405180910390f35b34801561025b57600080fd5b50610264610920565b604051610271919061428d565b60405180910390f35b34801561028657600080fd5b506102a1600480360381019061029c9190613b48565b610944565b6040516102ae91906143a8565b60405180910390f35b3480156102c357600080fd5b506102de60048036038101906102d99190613b48565b610a32565b6040516102eb91906146d5565b60405180910390f35b34801561030057600080fd5b5061031b60048036038101906103169190613c70565b610b13565b005b34801561032957600080fd5b50610344600480360381019061033f9190613a85565b610c3f565b005b34801561035257600080fd5b5061036d60048036038101906103689190613a85565b610d14565b005b34801561037b57600080fd5b5061039660048036038101906103919190613b91565b610dea565b6040516103a391906146d5565b60405180910390f35b3480156103b857600080fd5b506103d360048036038101906103ce9190613b48565b611020565b005b3480156103e157600080fd5b506103ea6115c5565b6040516103f791906146d5565b60405180910390f35b34801561040c57600080fd5b506104156115cb565b005b610431600480360381019061042c9190613b48565b611659565b005b34801561043f57600080fd5b50610448611a78565b005b34801561045657600080fd5b50610471600480360381019061046c9190613afb565b611b23565b005b34801561047f57600080fd5b5061049a60048036038101906104959190613c70565b611bc8565b6040516104a791906143f3565b60405180910390f35b3480156104bc57600080fd5b506104d760048036038101906104d29190613a85565b611c74565b005b3480156104e557600080fd5b506104ee611d4a565b6040516104fb91906143a8565b60405180910390f35b34801561051057600080fd5b5061052b60048036038101906105269190613b48565b611d5d565b60405161053891906143a8565b60405180910390f35b34801561054d57600080fd5b5061056860048036038101906105639190613b48565b611f07565b60405161057591906143a8565b60405180910390f35b34801561058a57600080fd5b506105a560048036038101906105a09190613afb565b611ff5565b6040516105b39291906143c3565b60405180910390f35b3480156105c857600080fd5b506105e360048036038101906105de9190613b48565b6121f1565b6040516105f79897969594939291906142a8565b60405180910390f35b34801561060c57600080fd5b5061062760048036038101906106229190613b91565b6122d6565b005b34801561063557600080fd5b5061063e612712565b005b34801561064c57600080fd5b50610655612851565b60405161066291906146d5565b60405180910390f35b34801561067757600080fd5b50610680612857565b60405161068d9190614272565b60405180910390f35b3480156106a257600080fd5b506106bd60048036038101906106b89190613b48565b61287d565b6040516106ca9190614364565b60405180910390f35b3480156106df57600080fd5b506106fa60048036038101906106f59190613b48565b612a98565b6040516107079190614272565b60405180910390f35b34801561071c57600080fd5b5061073760048036038101906107329190613b48565b612d30565b6040516107449190614272565b60405180910390f35b34801561075957600080fd5b50610774600480360381019061076f9190613b48565b612e31565b60405161078191906146d5565b60405180910390f35b34801561079657600080fd5b5061079f612f12565b6040516107ac9190614386565b60405180910390f35b6107cf60048036038101906107ca9190613bed565b61305b565b005b60008073ffffffffffffffffffffffffffffffffffffffff166003836040516107fa9190614244565b908152602001604051809103902060000160009054906101000a900473ffffffffffffffffffffffffffffffffffffffff1673ffffffffffffffffffffffffffffffffffffffff161415610883576040517f08c379a000000000000000000000000000000000000000000000000000000000815260040161087a90614475565b60405180910390fd5b60006003836040516108959190614244565b908152602001604051809103902060020180549050116108ea576040517f08c379a00000000000000000000000000000000000000000000000000000000081526004016108e190614575565b60405180910390fd5b6108f3826132fa565b9050919050565b600160009054906101000a900473ffffffffffffffffffffffffffffffffffffffff1681565b60008054906101000a900473ffffffffffffffffffffffffffffffffffffffff1681565b60008073ffffffffffffffffffffffffffffffffffffffff1660038360405161096d9190614244565b908152602001604051809103902060000160009054906101000a900473ffffffffffffffffffffffffffffffffffffffff1673ffffffffffffffffffffffffffffffffffffffff1614156109f6576040517f08c379a00000000000000000000000000000000000000000000000000000000081526004016109ed90614475565b60405180910390fd5b6000600383604051610a089190614244565b908152602001604051809103902060080160019054906101000a900460ff16905080915050919050565b60008073ffffffffffffffffffffffffffffffffffffffff16600383604051610a5b9190614244565b908152602001604051809103902060000160009054906101000a900473ffffffffffffffffffffffffffffffffffffffff1673ffffffffffffffffffffffffffffffffffffffff161415610ae4576040517f08c379a0000000000000000000000000000000000000000000000000000000008152600401610adb90614475565b60405180910390fd5b6000600383604051610af69190614244565b908152602001604051809103902060070154905080915050919050565b600260149054906101000a900460ff1615610b2d57600080fd5b600260009054906101000a900473ffffffffffffffffffffffffffffffffffffffff1673ffffffffffffffffffffffffffffffffffffffff163373ffffffffffffffffffffffffffffffffffffffff161480610bd4575060008054906101000a900473ffffffffffffffffffffffffffffffffffffffff1673ffffffffffffffffffffffffffffffffffffffff163373ffffffffffffffffffffffffffffffffffffffff16145b80610c2c5750600160009054906101000a900473ffffffffffffffffffffffffffffffffffffffff1673ffffffffffffffffffffffffffffffffffffffff163373ffffffffffffffffffffffffffffffffffffffff16145b610c3557600080fd5b8060068190555050565b60008054906101000a900473ffffffffffffffffffffffffffffffffffffffff1673ffffffffffffffffffffffffffffffffffffffff163373ffffffffffffffffffffffffffffffffffffffff1614610c9757600080fd5b600073ffffffffffffffffffffffffffffffffffffffff168173ffffffffffffffffffffffffffffffffffffffff161415610cd157600080fd5b806000806101000a81548173ffffffffffffffffffffffffffffffffffffffff021916908373ffffffffffffffffffffffffffffffffffffffff16021790555050565b60008054906101000a900473ffffffffffffffffffffffffffffffffffffffff1673ffffffffffffffffffffffffffffffffffffffff163373ffffffffffffffffffffffffffffffffffffffff1614610d6c57600080fd5b600073ffffffffffffffffffffffffffffffffffffffff168173ffffffffffffffffffffffffffffffffffffffff161415610da657600080fd5b80600260006101000a81548173ffffffffffffffffffffffffffffffffffffffff021916908373ffffffffffffffffffffffffffffffffffffffff16021790555050565b60008073ffffffffffffffffffffffffffffffffffffffff16600384604051610e139190614244565b908152602001604051809103902060000160009054906101000a900473ffffffffffffffffffffffffffffffffffffffff1673ffffffffffffffffffffffffffffffffffffffff161415610e9c576040517f08c379a0000000000000000000000000000000000000000000000000000000008152600401610e9390614475565b60405180910390fd5b60011515600384604051610eb09190614244565b908152602001604051809103902060080160019054906101000a900460ff16151514610f11576040517f08c379a0000000000000000000000000000000000000000000000000000000008152600401610f0890614535565b60405180910390fd5b6000600384604051610f239190614244565b908152602001604051809103902060010160008473ffffffffffffffffffffffffffffffffffffffff1673ffffffffffffffffffffffffffffffffffffffff168152602001908152602001600020541415610fb3576040517f08c379a0000000000000000000000000000000000000000000000000000000008152600401610faa90614495565b60405180910390fd5b6000600384604051610fc59190614244565b908152602001604051809103902060010160008473ffffffffffffffffffffffffffffffffffffffff1673ffffffffffffffffffffffffffffffffffffffff1681526020019081526020016000205490508091505092915050565b600260149054906101000a900460ff161561103a57600080fd5b600060038260405161104c9190614244565b908152602001604051809103902060010160003373ffffffffffffffffffffffffffffffffffffffff1673ffffffffffffffffffffffffffffffffffffffff16815260200190815260200160002054116110db576040517f08c379a00000000000000000000000000000000000000000000000000000000081526004016110d290614435565b60405180910390fd5b600015156003826040516110ef9190614244565b908152602001604051809103902060080160009054906101000a900460ff16151514611150576040517f08c379a000000000000000000000000000000000000000000000000000000000815260040161114790614515565b60405180910390fd5b600073ffffffffffffffffffffffffffffffffffffffff166003826040516111789190614244565b908152602001604051809103902060040160009054906101000a900473ffffffffffffffffffffffffffffffffffffffff1673ffffffffffffffffffffffffffffffffffffffff1614611200576040517f08c379a00000000000000000000000000000000000000000000000000000000081526004016111f790614455565b60405180910390fd5b611209816134cf565b611248576040517f08c379a000000000000000000000000000000000000000000000000000000000815260040161123f90614695565b60405180910390fd5b60005b60038260405161125b9190614244565b90815260200160405180910390206002018054905081101561148e573373ffffffffffffffffffffffffffffffffffffffff1660038360405161129e9190614244565b908152602001604051809103902060020182815481106112c1576112c0614a27565b5b9060005260206000200160009054906101000a900473ffffffffffffffffffffffffffffffffffffffff1673ffffffffffffffffffffffffffffffffffffffff16146113d1576003826040516113179190614244565b9081526020016040518091039020600201818154811061133a57611339614a27565b5b9060005260206000200160009054906101000a900473ffffffffffffffffffffffffffffffffffffffff1673ffffffffffffffffffffffffffffffffffffffff166108fc60038460405161138e9190614244565b9081526020016040518091039020600501549081150290604051600060405180830381858888f193505050501580156113cb573d6000803e3d6000fd5b5061147b565b6003826040516113e19190614244565b908152602001604051809103902060000160009054906101000a900473ffffffffffffffffffffffffffffffffffffffff1673ffffffffffffffffffffffffffffffffffffffff166108fc60038460405161143c9190614244565b9081526020016040518091039020600501549081150290604051600060405180830381858888f19350505050158015611479573d6000803e3d6000fd5b505b808061148690614980565b91505061124b565b5060016003826040516114a19190614244565b908152602001604051809103902060080160006101000a81548160ff021916908315150217905550336003826040516114da9190614244565b908152602001604051809103902060040160006101000a81548173ffffffffffffffffffffffffffffffffffffffff021916908373ffffffffffffffffffffffffffffffffffffffff1602179055507f732caf405705f1e8b94769d7cec34ccc5962b55698a279b09d9e28030f269f66338260038460405161155c9190614244565b908152602001604051809103902060010160003373ffffffffffffffffffffffffffffffffffffffff1673ffffffffffffffffffffffffffffffffffffffff168152602001908152602001600020546040516115ba93929190614326565b60405180910390a150565b60055481565b60008054906101000a900473ffffffffffffffffffffffffffffffffffffffff1673ffffffffffffffffffffffffffffffffffffffff163373ffffffffffffffffffffffffffffffffffffffff161461162357600080fd5b600260149054906101000a900460ff1661163c57600080fd5b6000600260146101000a81548160ff021916908315150217905550565b600260149054906101000a900460ff161561167357600080fd5b3373ffffffffffffffffffffffffffffffffffffffff1660038260405161169a9190614244565b908152602001604051809103902060000160009054906101000a900473ffffffffffffffffffffffffffffffffffffffff1673ffffffffffffffffffffffffffffffffffffffff161415611723576040517f08c379a000000000000000000000000000000000000000000000000000000000815260040161171a90614555565b60405180910390fd5b600015156003826040516117379190614244565b908152602001604051809103902060080160009054906101000a900460ff16151514611798576040517f08c379a000000000000000000000000000000000000000000000000000000000815260040161178f906144d5565b60405180910390fd5b600073ffffffffffffffffffffffffffffffffffffffff166003826040516117c09190614244565b908152602001604051809103902060040160009054906101000a900473ffffffffffffffffffffffffffffffffffffffff1673ffffffffffffffffffffffffffffffffffffffff1614611848576040517f08c379a000000000000000000000000000000000000000000000000000000000815260040161183f906145d5565b60405180910390fd5b61185181613595565b346003826040516118629190614244565b90815260200160405180910390206005015411156118b5576040517f08c379a00000000000000000000000000000000000000000000000000000000081526004016118ac906144f5565b60405180910390fd5b346003826040516118c69190614244565b908152602001604051809103902060010160003373ffffffffffffffffffffffffffffffffffffffff1673ffffffffffffffffffffffffffffffffffffffff1681526020019081526020016000205410611955576040517f08c379a000000000000000000000000000000000000000000000000000000000815260040161194c90614595565b60405180910390fd5b346003826040516119669190614244565b908152602001604051809103902060010160003373ffffffffffffffffffffffffffffffffffffffff1673ffffffffffffffffffffffffffffffffffffffff168152602001908152602001600020819055506003816040516119c89190614244565b9081526020016040518091039020600201339080600181540180825580915050600190039060005260206000200160009091909190916101000a81548173ffffffffffffffffffffffffffffffffffffffff021916908373ffffffffffffffffffffffffffffffffffffffff1602179055507f3f632af37196b42ae1309788f42170522fbc34e71c4a275d9ebc5dad19ad7e1c338234604051611a6d93929190614326565b60405180910390a150565b60008054906101000a900473ffffffffffffffffffffffffffffffffffffffff1673ffffffffffffffffffffffffffffffffffffffff163373ffffffffffffffffffffffffffffffffffffffff1614611ad057600080fd5b600260149054906101000a900460ff1615611aea57600080fd5b60008054906101000a900473ffffffffffffffffffffffffffffffffffffffff1673ffffffffffffffffffffffffffffffffffffffff16ff5b60008282810190611b349190613ab2565b905060005b8151811015611bc257611b866003838381518110611b5a57611b59614a27565b5b6020026020010151604051611b6f9190614244565b9081526020016040518091039020600701546136c3565b15611baf57611bae828281518110611ba157611ba0614a27565b5b60200260200101516136dc565b5b8080611bba90614980565b915050611b39565b50505050565b60048181548110611bd857600080fd5b906000526020600020016000915090508054611bf39061491d565b80601f0160208091040260200160405190810160405280929190818152602001828054611c1f9061491d565b8015611c6c5780601f10611c4157610100808354040283529160200191611c6c565b820191906000526020600020905b815481529060010190602001808311611c4f57829003601f168201915b505050505081565b60008054906101000a900473ffffffffffffffffffffffffffffffffffffffff1673ffffffffffffffffffffffffffffffffffffffff163373ffffffffffffffffffffffffffffffffffffffff1614611ccc57600080fd5b600073ffffffffffffffffffffffffffffffffffffffff168173ffffffffffffffffffffffffffffffffffffffff161415611d0657600080fd5b80600160006101000a81548173ffffffffffffffffffffffffffffffffffffffff021916908373ffffffffffffffffffffffffffffffffffffffff16021790555050565b600260149054906101000a900460ff1681565b6000600382604051611d6f9190614244565b908152602001604051809103902060080160019054906101000a900460ff16611dcd576040517f08c379a0000000000000000000000000000000000000000000000000000000008152600401611dc490614615565b60405180910390fd5b600073ffffffffffffffffffffffffffffffffffffffff16600383604051611df59190614244565b908152602001604051809103902060000160009054906101000a900473ffffffffffffffffffffffffffffffffffffffff1673ffffffffffffffffffffffffffffffffffffffff161415611e7e576040517f08c379a0000000000000000000000000000000000000000000000000000000008152600401611e7590614475565b60405180910390fd5b600073ffffffffffffffffffffffffffffffffffffffff16600383604051611ea69190614244565b908152602001604051809103902060030160009054906101000a900473ffffffffffffffffffffffffffffffffffffffff1673ffffffffffffffffffffffffffffffffffffffff161415611efd5760009050611f02565b600190505b919050565b60008073ffffffffffffffffffffffffffffffffffffffff16600383604051611f309190614244565b908152602001604051809103902060000160009054906101000a900473ffffffffffffffffffffffffffffffffffffffff1673ffffffffffffffffffffffffffffffffffffffff161415611fb9576040517f08c379a0000000000000000000000000000000000000000000000000000000008152600401611fb090614475565b60405180910390fd5b6000600383604051611fcb9190614244565b908152602001604051809103902060080160009054906101000a900460ff16905080915050919050565b60006060600060048054905067ffffffffffffffff81111561201a57612019614a56565b5b60405190808252806020026020018201604052801561204d57816020015b60608152602001906001900390816120385790505b5090506000805b60048054905081101561218a576120a860036004838154811061207a57612079614a27565b5b90600052602060002001604051612091919061425b565b9081526020016040518091039020600701546136c3565b1561217757600481815481106120c1576120c0614a27565b5b9060005260206000200180546120d69061491d565b80601f01602080910402602001604051908101604052809291908181526020018280546121029061491d565b801561214f5780601f106121245761010080835404028352916020019161214f565b820191906000526020600020905b81548152906001019060200180831161213257829003601f168201915b505050505083828151811061216757612166614a27565b5b6020026020010181905250600191505b808061218290614980565b915050612054565b5080156121be57816040516020016121a29190614386565b60405160208183030381529060405292506001935050506121ea565b6060806040516020016121d19190614386565b6040516020818303038152906040529350600094505050505b9250929050565b6003818051602081018201805184825260208301602085012081835280955050505050506000915090508060000160009054906101000a900473ffffffffffffffffffffffffffffffffffffffff16908060030160009054906101000a900473ffffffffffffffffffffffffffffffffffffffff16908060040160009054906101000a900473ffffffffffffffffffffffffffffffffffffffff16908060050154908060060160009054906101000a900460ff16908060070154908060080160009054906101000a900460ff16908060080160019054906101000a900460ff16905088565b600260149054906101000a900460ff16156122f057600080fd5b600115156003836040516123049190614244565b908152602001604051809103902060080160019054906101000a900460ff16151514612365576040517f08c379a000000000000000000000000000000000000000000000000000000000815260040161235c90614675565b60405180910390fd5b3373ffffffffffffffffffffffffffffffffffffffff1660038360405161238c9190614244565b908152602001604051809103902060000160009054906101000a900473ffffffffffffffffffffffffffffffffffffffff1673ffffffffffffffffffffffffffffffffffffffff1614612414576040517f08c379a000000000000000000000000000000000000000000000000000000000815260040161240b90614655565b60405180910390fd5b600073ffffffffffffffffffffffffffffffffffffffff1660038360405161243c9190614244565b908152602001604051809103902060040160009054906101000a900473ffffffffffffffffffffffffffffffffffffffff1673ffffffffffffffffffffffffffffffffffffffff16146124c4576040517f08c379a00000000000000000000000000000000000000000000000000000000081526004016124bb906146b5565b60405180910390fd5b60006003836040516124d69190614244565b908152602001604051809103902060010160008373ffffffffffffffffffffffffffffffffffffffff1673ffffffffffffffffffffffffffffffffffffffff1681526020019081526020016000205411612565576040517f08c379a000000000000000000000000000000000000000000000000000000000815260040161255c90614635565b60405180910390fd5b600073ffffffffffffffffffffffffffffffffffffffff1660038360405161258d9190614244565b908152602001604051809103902060030160009054906101000a900473ffffffffffffffffffffffffffffffffffffffff1673ffffffffffffffffffffffffffffffffffffffff1614612615576040517f08c379a000000000000000000000000000000000000000000000000000000000815260040161260c906145b5565b60405180910390fd5b806003836040516126269190614244565b908152602001604051809103902060030160006101000a81548173ffffffffffffffffffffffffffffffffffffffff021916908373ffffffffffffffffffffffffffffffffffffffff1602179055507f0b60c70910b915912c63957910ea661ff735c3cff274e7f95ca0e2b69b15074d33836003856040516126a89190614244565b908152602001604051809103902060010160008573ffffffffffffffffffffffffffffffffffffffff1673ffffffffffffffffffffffffffffffffffffffff1681526020019081526020016000205460405161270693929190614326565b60405180910390a15050565b600260009054906101000a900473ffffffffffffffffffffffffffffffffffffffff1673ffffffffffffffffffffffffffffffffffffffff163373ffffffffffffffffffffffffffffffffffffffff1614806127b9575060008054906101000a900473ffffffffffffffffffffffffffffffffffffffff1673ffffffffffffffffffffffffffffffffffffffff163373ffffffffffffffffffffffffffffffffffffffff16145b806128115750600160009054906101000a900473ffffffffffffffffffffffffffffffffffffffff1673ffffffffffffffffffffffffffffffffffffffff163373ffffffffffffffffffffffffffffffffffffffff16145b61281a57600080fd5b600260149054906101000a900460ff161561283457600080fd5b6001600260146101000a81548160ff021916908315150217905550565b60065481565b600260009054906101000a900473ffffffffffffffffffffffffffffffffffffffff1681565b6060600073ffffffffffffffffffffffffffffffffffffffff166003836040516128a79190614244565b908152602001604051809103902060000160009054906101000a900473ffffffffffffffffffffffffffffffffffffffff1673ffffffffffffffffffffffffffffffffffffffff161415612930576040517f08c379a000000000000000000000000000000000000000000000000000000000815260040161292790614475565b60405180910390fd5b60006003836040516129429190614244565b90815260200160405180910390206002018054905067ffffffffffffffff8111156129705761296f614a56565b5b60405190808252806020026020018201604052801561299e5781602001602082028036833780820191505090505b50905060005b6003846040516129b49190614244565b908152602001604051809103902060020180549050811015612a8e576003846040516129e09190614244565b90815260200160405180910390206002018181548110612a0357612a02614a27565b5b9060005260206000200160009054906101000a900473ffffffffffffffffffffffffffffffffffffffff16828281518110612a4157612a40614a27565b5b602002602001019073ffffffffffffffffffffffffffffffffffffffff16908173ffffffffffffffffffffffffffffffffffffffff16815250508080612a8690614980565b9150506129a4565b5080915050919050565b60008073ffffffffffffffffffffffffffffffffffffffff16600383604051612ac19190614244565b908152602001604051809103902060000160009054906101000a900473ffffffffffffffffffffffffffffffffffffffff1673ffffffffffffffffffffffffffffffffffffffff161415612b4a576040517f08c379a0000000000000000000000000000000000000000000000000000000008152600401612b4190614475565b60405180910390fd5b6000600383604051612b5c9190614244565b90815260200160405180910390206002018054905011612bb1576040517f08c379a0000000000000000000000000000000000000000000000000000000008152600401612ba890614575565b60405180910390fd5b600080612bbd846107d1565b905060005b600385604051612bd29190614244565b908152602001604051809103902060020180549050811015612d255781600386604051612bff9190614244565b90815260200160405180910390206001016000600388604051612c229190614244565b90815260200160405180910390206002018481548110612c4557612c44614a27565b5b9060005260206000200160009054906101000a900473ffffffffffffffffffffffffffffffffffffffff1673ffffffffffffffffffffffffffffffffffffffff1673ffffffffffffffffffffffffffffffffffffffff168152602001908152602001600020541415612d1257600385604051612cc19190614244565b90815260200160405180910390206002018181548110612ce457612ce3614a27565b5b9060005260206000200160009054906101000a900473ffffffffffffffffffffffffffffffffffffffff1692505b8080612d1d90614980565b915050612bc2565b508192505050919050565b60008073ffffffffffffffffffffffffffffffffffffffff16600383604051612d599190614244565b908152602001604051809103902060000160009054906101000a900473ffffffffffffffffffffffffffffffffffffffff1673ffffffffffffffffffffffffffffffffffffffff161415612de2576040517f08c379a0000000000000000000000000000000000000000000000000000000008152600401612dd990614475565b60405180910390fd5b6000600383604051612df49190614244565b908152602001604051809103902060000160009054906101000a900473ffffffffffffffffffffffffffffffffffffffff16905080915050919050565b60008073ffffffffffffffffffffffffffffffffffffffff16600383604051612e5a9190614244565b908152602001604051809103902060000160009054906101000a900473ffffffffffffffffffffffffffffffffffffffff1673ffffffffffffffffffffffffffffffffffffffff161415612ee3576040517f08c379a0000000000000000000000000000000000000000000000000000000008152600401612eda90614475565b60405180910390fd5b6000600383604051612ef59190614244565b908152602001604051809103902060050154905080915050919050565b6060600060048054905067ffffffffffffffff811115612f3557612f34614a56565b5b604051908082528060200260200182016040528015612f6857816020015b6060815260200190600190039081612f535790505b50905060005b6004805490508110156130535760048181548110612f8f57612f8e614a27565b5b906000526020600020018054612fa49061491d565b80601f0160208091040260200160405190810160405280929190818152602001828054612fd09061491d565b801561301d5780601f10612ff25761010080835404028352916020019161301d565b820191906000526020600020905b81548152906001019060200180831161300057829003601f168201915b505050505082828151811061303557613034614a27565b5b6020026020010181905250808061304b90614980565b915050612f6e565b508091505090565b600260149054906101000a900460ff161561307557600080fd5b600073ffffffffffffffffffffffffffffffffffffffff1660038560405161309d9190614244565b908152602001604051809103902060000160009054906101000a900473ffffffffffffffffffffffffffffffffffffffff1673ffffffffffffffffffffffffffffffffffffffff1614613125576040517f08c379a000000000000000000000000000000000000000000000000000000000815260040161311c906145f5565b60405180910390fd5b336003856040516131369190614244565b908152602001604051809103902060000160006101000a81548173ffffffffffffffffffffffffffffffffffffffff021916908373ffffffffffffffffffffffffffffffffffffffff160217905550826003856040516131969190614244565b908152602001604051809103902060050181905550426003856040516131bc9190614244565b90815260200160405180910390206007018190555060006003856040516131e39190614244565b908152602001604051809103902060060160006101000a81548160ff0219169083151502179055508160038560405161321c9190614244565b908152602001604051809103902060080160016101000a81548160ff021916908315150217905550806003856040516132559190614244565b908152602001604051809103902060060160006101000a81548160ff0219169083151502179055506004849080600181540180825580915050600190039060005260206000200160009091909190915090805190602001906132b8929190613821565b507f117a5dfdea357bc69040f213ba3b30a731d4adddc1b5d1580db9d6b85568ea353385856040516132ec93929190614326565b60405180910390a150505050565b6000806000905060005b6003846040516133149190614244565b9081526020016040518091039020600201805490508110156134c557816003856040516133419190614244565b908152602001604051809103902060010160006003876040516133649190614244565b9081526020016040518091039020600201848154811061338757613386614a27565b5b9060005260206000200160009054906101000a900473ffffffffffffffffffffffffffffffffffffffff1673ffffffffffffffffffffffffffffffffffffffff1673ffffffffffffffffffffffffffffffffffffffff1681526020019081526020016000205411156134b2576003846040516134039190614244565b908152602001604051809103902060010160006003866040516134269190614244565b9081526020016040518091039020600201838154811061344957613448614a27565b5b9060005260206000200160009054906101000a900473ffffffffffffffffffffffffffffffffffffffff1673ffffffffffffffffffffffffffffffffffffffff1673ffffffffffffffffffffffffffffffffffffffff1681526020019081526020016000205491505b80806134bd90614980565b915050613304565b5080915050919050565b60006003826040516134e19190614244565b908152602001604051809103902060080160019054906101000a900460ff1661350d5760019050613590565b3373ffffffffffffffffffffffffffffffffffffffff166003836040516135349190614244565b908152602001604051809103902060030160009054906101000a900473ffffffffffffffffffffffffffffffffffffffff1673ffffffffffffffffffffffffffffffffffffffff16141561358b5760019050613590565b600090505b919050565b6003816040516135a59190614244565b908152602001604051809103902060080160019054906101000a900460ff161561361e5760006135d4826132fa565b9050348110613618576040517f08c379a000000000000000000000000000000000000000000000000000000000815260040161360f90614415565b60405180910390fd5b506136c0565b60006003826040516136309190614244565b908152602001604051809103902060010160003373ffffffffffffffffffffffffffffffffffffffff1673ffffffffffffffffffffffffffffffffffffffff16815260200190815260200160002054146136bf576040517f08c379a00000000000000000000000000000000000000000000000000000000081526004016136b6906144b5565b60405180910390fd5b5b50565b6000600654426136d3919061484d565b82109050919050565b60005b6003826040516136ef9190614244565b9081526020016040518091039020600201805490508110156137e35760038260405161371b9190614244565b9081526020016040518091039020600201818154811061373e5761373d614a27565b5b9060005260206000200160009054906101000a900473ffffffffffffffffffffffffffffffffffffffff1673ffffffffffffffffffffffffffffffffffffffff166108fc6003846040516137929190614244565b9081526020016040518091039020600501549081150290604051600060405180830381858888f193505050501580156137cf573d6000803e3d6000fd5b5080806137db90614980565b9150506136df565b5060016003826040516137f69190614244565b908152602001604051809103902060080160006101000a81548160ff02191690831515021790555050565b82805461382d9061491d565b90600052602060002090601f01602090048101928261384f5760008555613896565b82601f1061386857805160ff1916838001178555613896565b82800160010185558215613896579182015b8281111561389557825182559160200191906001019061387a565b5b5090506138a391906138a7565b5090565b5b808211156138c05760008160009055506001016138a8565b5090565b60006138d76138d284614715565b6146f0565b905080838252602082019050828560208602820111156138fa576138f9614a8f565b5b60005b8581101561394857813567ffffffffffffffff8111156139205761391f614a8a565b5b80860161392d8982613a42565b855260208501945060208401935050506001810190506138fd565b5050509392505050565b600061396561396084614741565b6146f0565b90508281526020810184848401111561398157613980614a94565b5b61398c8482856148db565b509392505050565b6000813590506139a3816151f0565b92915050565b600082601f8301126139be576139bd614a8a565b5b81356139ce8482602086016138c4565b91505092915050565b6000813590506139e681615207565b92915050565b60008083601f840112613a0257613a01614a8a565b5b8235905067ffffffffffffffff811115613a1f57613a1e614a85565b5b602083019150836001820283011115613a3b57613a3a614a8f565b5b9250929050565b600082601f830112613a5757613a56614a8a565b5b8135613a67848260208601613952565b91505092915050565b600081359050613a7f8161521e565b92915050565b600060208284031215613a9b57613a9a614a9e565b5b6000613aa984828501613994565b91505092915050565b600060208284031215613ac857613ac7614a9e565b5b600082013567ffffffffffffffff811115613ae657613ae5614a99565b5b613af2848285016139a9565b91505092915050565b60008060208385031215613b1257613b11614a9e565b5b600083013567ffffffffffffffff811115613b3057613b2f614a99565b5b613b3c858286016139ec565b92509250509250929050565b600060208284031215613b5e57613b5d614a9e565b5b600082013567ffffffffffffffff811115613b7c57613b7b614a99565b5b613b8884828501613a42565b91505092915050565b60008060408385031215613ba857613ba7614a9e565b5b600083013567ffffffffffffffff811115613bc657613bc5614a99565b5b613bd285828601613a42565b9250506020613be385828601613994565b9150509250929050565b60008060008060808587031215613c0757613c06614a9e565b5b600085013567ffffffffffffffff811115613c2557613c24614a99565b5b613c3187828801613a42565b9450506020613c4287828801613a70565b9350506040613c53878288016139d7565b9250506060613c64878288016139d7565b91505092959194509250565b600060208284031215613c8657613c85614a9e565b5b6000613c9484828501613a70565b91505092915050565b6000613ca98383613cd8565b60208301905092915050565b6000613cc18383613e11565b905092915050565b613cd281614893565b82525050565b613ce181614881565b82525050565b613cf081614881565b82525050565b6000613d01826147a7565b613d0b81856147ed565b9350613d1683614772565b8060005b83811015613d47578151613d2e8882613c9d565b9750613d39836147d3565b925050600181019050613d1a565b5085935050505092915050565b6000613d5f826147b2565b613d6981856147fe565b935083602082028501613d7b85614782565b8060005b85811015613db75784840389528151613d988582613cb5565b9450613da3836147e0565b925060208a01995050600181019050613d7f565b50829750879550505050505092915050565b613dd2816148a5565b82525050565b6000613de3826147bd565b613ded818561480f565b9350613dfd8185602086016148ea565b613e0681614aa3565b840191505092915050565b6000613e1c826147c8565b613e268185614820565b9350613e368185602086016148ea565b613e3f81614aa3565b840191505092915050565b6000613e55826147c8565b613e5f8185614831565b9350613e6f8185602086016148ea565b613e7881614aa3565b840191505092915050565b6000613e8e826147c8565b613e988185614842565b9350613ea88185602086016148ea565b80840191505092915050565b60008154613ec18161491d565b613ecb8186614842565b94506001821660008114613ee65760018114613ef757613f2a565b60ff19831686528186019350613f2a565b613f0085614792565b60005b83811015613f2257815481890152600182019150602081019050613f03565b838801955050505b50505092915050565b6000613f40606483614831565b9150613f4b82614ab4565b608082019050919050565b6000613f63602c83614831565b9150613f6e82614b4f565b604082019050919050565b6000613f86602683614831565b9150613f9182614b9e565b604082019050919050565b6000613fa9601b83614831565b9150613fb482614bed565b602082019050919050565b6000613fcc602583614831565b9150613fd782614c16565b604082019050919050565b6000613fef602c83614831565b9150613ffa82614c65565b604082019050919050565b6000614012601e83614831565b915061401d82614cb4565b602082019050919050565b6000614035603183614831565b915061404082614cdd565b604082019050919050565b6000614058602283614831565b915061406382614d2c565b604082019050919050565b600061407b605083614831565b915061408682614d7b565b606082019050919050565b600061409e603a83614831565b91506140a982614df0565b604082019050919050565b60006140c1602483614831565b91506140cc82614e3f565b604082019050919050565b60006140e4605e83614831565b91506140ef82614e8e565b606082019050919050565b6000614107602983614831565b915061411282614f03565b604082019050919050565b600061412a603b83614831565b915061413582614f52565b604082019050919050565b600061414d602f83614831565b915061415882614fa1565b604082019050919050565b6000614170602c83614831565b915061417b82614ff0565b604082019050919050565b6000614193602c83614831565b915061419e8261503f565b604082019050919050565b60006141b6602383614831565b91506141c18261508e565b604082019050919050565b60006141d9602883614831565b91506141e4826150dd565b604082019050919050565b60006141fc604a83614831565b91506142078261512c565b606082019050919050565b600061421f602d83614831565b915061422a826151a1565b604082019050919050565b61423e816148d1565b82525050565b60006142508284613e83565b915081905092915050565b60006142678284613eb4565b915081905092915050565b60006020820190506142876000830184613ce7565b92915050565b60006020820190506142a26000830184613cc9565b92915050565b6000610100820190506142be600083018b613cc9565b6142cb602083018a613ce7565b6142d86040830189613ce7565b6142e56060830188614235565b6142f26080830187613dc9565b6142ff60a0830186614235565b61430c60c0830185613dc9565b61431960e0830184613dc9565b9998505050505050505050565b600060608201905061433b6000830186613ce7565b818103602083015261434d8185613e4a565b905061435c6040830184614235565b949350505050565b6000602082019050818103600083015261437e8184613cf6565b905092915050565b600060208201905081810360008301526143a08184613d54565b905092915050565b60006020820190506143bd6000830184613dc9565b92915050565b60006040820190506143d86000830185613dc9565b81810360208301526143ea8184613dd8565b90509392505050565b6000602082019050818103600083015261440d8184613e4a565b905092915050565b6000602082019050818103600083015261442e81613f33565b9050919050565b6000602082019050818103600083015261444e81613f56565b9050919050565b6000602082019050818103600083015261446e81613f79565b9050919050565b6000602082019050818103600083015261448e81613f9c565b9050919050565b600060208201905081810360008301526144ae81613fbf565b9050919050565b600060208201905081810360008301526144ce81613fe2565b9050919050565b600060208201905081810360008301526144ee81614005565b9050919050565b6000602082019050818103600083015261450e81614028565b9050919050565b6000602082019050818103600083015261452e8161404b565b9050919050565b6000602082019050818103600083015261454e8161406e565b9050919050565b6000602082019050818103600083015261456e81614091565b9050919050565b6000602082019050818103600083015261458e816140b4565b9050919050565b600060208201905081810360008301526145ae816140d7565b9050919050565b600060208201905081810360008301526145ce816140fa565b9050919050565b600060208201905081810360008301526145ee8161411d565b9050919050565b6000602082019050818103600083015261460e81614140565b9050919050565b6000602082019050818103600083015261462e81614163565b9050919050565b6000602082019050818103600083015261464e81614186565b9050919050565b6000602082019050818103600083015261466e816141a9565b9050919050565b6000602082019050818103600083015261468e816141cc565b9050919050565b600060208201905081810360008301526146ae816141ef565b9050919050565b600060208201905081810360008301526146ce81614212565b9050919050565b60006020820190506146ea6000830184614235565b92915050565b60006146fa61470b565b9050614706828261494f565b919050565b6000604051905090565b600067ffffffffffffffff8211156147305761472f614a56565b5b602082029050602081019050919050565b600067ffffffffffffffff82111561475c5761475b614a56565b5b61476582614aa3565b9050602081019050919050565b6000819050602082019050919050565b6000819050602082019050919050565b60008190508160005260206000209050919050565b600081519050919050565b600081519050919050565b600081519050919050565b600081519050919050565b6000602082019050919050565b6000602082019050919050565b600082825260208201905092915050565b600082825260208201905092915050565b600082825260208201905092915050565b600082825260208201905092915050565b600082825260208201905092915050565b600081905092915050565b6000614858826148d1565b9150614863836148d1565b925082821015614876576148756149c9565b5b828203905092915050565b600061488c826148b1565b9050919050565b600061489e826148b1565b9050919050565b60008115159050919050565b600073ffffffffffffffffffffffffffffffffffffffff82169050919050565b6000819050919050565b82818337600083830152505050565b60005b838110156149085780820151818401526020810190506148ed565b83811115614917576000848401525b50505050565b6000600282049050600182168061493557607f821691505b60208210811415614949576149486149f8565b5b50919050565b61495882614aa3565b810181811067ffffffffffffffff8211171561497757614976614a56565b5b80604052505050565b600061498b826148d1565b91507fffffffffffffffffffffffffffffffffffffffffffffffffffffffffffffffff8214156149be576149bd6149c9565b5b600182019050919050565b7f4e487b7100000000000000000000000000000000000000000000000000000000600052601160045260246000fd5b7f4e487b7100000000000000000000000000000000000000000000000000000000600052602260045260246000fd5b7f4e487b7100000000000000000000000000000000000000000000000000000000600052603260045260246000fd5b7f4e487b7100000000000000000000000000000000000000000000000000000000600052604160045260246000fd5b600080fd5b600080fd5b600080fd5b600080fd5b600080fd5b600080fd5b6000601f19601f8301169050919050565b7f546f206d616b652061206e6577206f66666572206f6e2074686973206c69737460008201527f696e6720796f75206e65656420746f20656e746572206120686967686572206160208201527f6d6f756e74207468616e207468652063757272656e742068696768657374206f60408201527f6666657200000000000000000000000000000000000000000000000000000000606082015250565b7f5468657265206973206e6f206f66666572206173736f6369617465642077697460008201527f6820746869732062757965720000000000000000000000000000000000000000602082015250565b7f54686973206c697374696e6720616c72656164792068617320612066696e616c60008201527f2062757965720000000000000000000000000000000000000000000000000000602082015250565b7f54686973206c697374696e6720646f6573206e6f742065786973740000000000600082015250565b7f546865726520617265206e6f206f66666572732066726f6d207468697320616460008201527f6472657373000000000000000000000000000000000000000000000000000000602082015250565b7f596f7527766520616c7265616479206d61646520616e206f66666572206f6e2060008201527f74686973206c697374696e670000000000000000000000000000000000000000602082015250565b7f54686973206c697374696e6720697320616c726561647920626f756768740000600082015250565b7f596f7572206f6666657220646f6573206e6f74206d65657420746865206d696e60008201527f696d756d206c6973746564207072696365000000000000000000000000000000602082015250565b7f54686973206c697374696e672068617320616c7265616479206265656e20736f60008201527f6c64000000000000000000000000000000000000000000000000000000000000602082015250565b7f43616e27742067657420746865206f6666657220707269636520696e20616e2060008201527f61756374696f6e202d20757365206765745072696365466f725374616e64617260208201527f644c697374696e6720696e737465616400000000000000000000000000000000604082015250565b7f596f752061726520612073656c6c6572206f662074686973206c697374696e6760008201527f2c20796f752063616e6e6f74206d616b6520616e206f66666572000000000000602082015250565b7f546865726520617265206e6f2062757965727320666f7220746869732061756360008201527f74696f6e00000000000000000000000000000000000000000000000000000000602082015250565b7f546f206d616b652061206e6577206f66666572206f6e2074686973206c69737460008201527f696e6720796f75206e65656420746f20656e746572206120686967686572206160208201527f6d6f756e74207468616e20796f75722070726576696f7573206f666665720000604082015250565b7f596f7527766520616c726561647920616363657074656420612064696666657260008201527f656e74206f666665720000000000000000000000000000000000000000000000602082015250565b7f546865726520697320616c726561647920612066696e616c206275796572206160008201527f73736f63696174656420776974682074686973206c697374696e670000000000602082015250565b7f546865726520697320616c72656164792061206c697374696e67207573696e6760008201527f2074686973204950465320686173680000000000000000000000000000000000602082015250565b7f5374616e64617264206c697374696e677320646f206e6f74206e65656420746f60008201527f2062652061636365707465640000000000000000000000000000000000000000602082015250565b7f54686973206164647265737320686173206e6f74206d61646520616e206f666660008201527f657220746f206163636570740000000000000000000000000000000000000000602082015250565b7f4f6e6c79207468652073656c6c65722063616e2061636365707420616e206f6660008201527f6665720000000000000000000000000000000000000000000000000000000000602082015250565b7f4f66666572732063616e206f6e6c7920626520616363657074656420666f722060008201527f61756374696f6e73000000000000000000000000000000000000000000000000602082015250565b7f546865206c697374696e6720697320616e2061756374696f6e20616e6420616e60008201527f206f66666572206861736e2774206265656e20617070726f766564206279207460208201527f6869732077616c6c657400000000000000000000000000000000000000000000604082015250565b7f412066696e616c20627579657220616c72656164792065786973747320666f7260008201527f2074686973206c697374696e6700000000000000000000000000000000000000602082015250565b6151f981614881565b811461520457600080fd5b50565b615210816148a5565b811461521b57600080fd5b50565b615227816148d1565b811461523257600080fd5b5056fea2646970667358221220e170e8f825290ba5910b2b1a13b5d17f43687aeb966e8af9f153e98b8b06d1e764736f6c63430008070033",
  "immutableReferences": {},
  "source": "// SPDX-License-Identifier: MIT\npragma solidity >=0.4.22 <0.9.0;\n\nimport \"@chainlink/contracts/src/v0.8/KeeperCompatible.sol\";\nimport \"./AccessControl.sol\";\n\n/// @title Listings manages buying and selling of listed items\ncontract Listings is AccessControl, KeeperCompatible {\n    /// @dev used to store information about a Listing\n    struct Listing {\n        address payable sellerAddress;\n        mapping(address => uint256) buyerAddresses;\n        address payable[] buyerAddressesArray;\n        address acceptedBuyer;\n        address finalBuyer;\n        uint256 price;\n        bool priceIsInUSD;\n        uint256 date;\n        bool bought;\n        bool isAuction;\n    }\n\n    /// @dev stores all of the submitted Listings\n    mapping(string => Listing) public listings;\n    /// @dev Also store listings hash as an array in order to loop over later during upkeep\n    string[] public listingsArray;\n\n    /// @dev emitted whenever a new listing is submitted\n    event ListingSubmitted(\n        address sellerAddress,\n        string ipfsHash,\n        uint256 price\n    );\n\n    /// @dev emitted whenever an offer is made on a listing from a seller\n    event OfferMade(address buyerAddress, string ipfsHash, uint256 amount);\n\n    /// @dev emitted whenever an offer is accepted on an auction (only auctions)\n    event OfferAccepted(address buyerAddress, string ipfsHash, uint256 amount);\n\n    /// @dev emitted whenever a buy is confirmed on a listing\n    event BuyConfirmed(address buyerAddress, string ipfsHash, uint256 amount);\n\n    uint256 public lastTimeStamp;\n    uint256 public interval = 604800;\n\n    constructor() {\n        lastTimeStamp = block.timestamp;\n    }\n\n    /// @dev Change the interval used for wiping data\n    function setInterval(uint256 newInterval) public whenNotPaused onlyCLevel {\n        interval = newInterval;\n    }\n\n    /// @dev List an item for sale, where the metadata is stored in IPFS\n    function createListing(\n        string memory ipfsHash,\n        uint256 price,\n        bool isAuction,\n        bool priceIsInUSD\n    ) public payable whenNotPaused {\n        require(\n            listings[ipfsHash].sellerAddress == address(0x0),\n            \"There is already a listing using this IPFS hash\"\n        );\n\n        listings[ipfsHash].sellerAddress = payable(msg.sender);\n        listings[ipfsHash].price = price;\n        listings[ipfsHash].date = block.timestamp;\n        listings[ipfsHash].priceIsInUSD = false;\n        listings[ipfsHash].isAuction = isAuction;\n        listings[ipfsHash].priceIsInUSD = priceIsInUSD;\n        listingsArray.push(ipfsHash);\n\n        emit ListingSubmitted(msg.sender, ipfsHash, price);\n    }\n\n    /// @dev Make an offer to buy a listing\n    /// This works equally for both standard and auction listings\n    function makeOffer(string memory ipfsHash) public payable whenNotPaused {\n        require(\n            listings[ipfsHash].sellerAddress != msg.sender,\n            \"You are a seller of this listing, you cannot make an offer\"\n        );\n        require(\n            listings[ipfsHash].bought == false,\n            \"This listing is already bought\"\n        );\n        require(\n            listings[ipfsHash].finalBuyer == address(0x0),\n            \"There is already a final buyer associated with this listing\"\n        );\n        canMakeNewOffer(ipfsHash);\n        require(\n            listings[ipfsHash].price <= msg.value,\n            \"Your offer does not meet the minimum listed price\"\n        );\n        require(\n            listings[ipfsHash].buyerAddresses[msg.sender] < msg.value,\n            \"To make a new offer on this listing you need to enter a higher amount than your previous offer\"\n        );\n        listings[ipfsHash].buyerAddresses[msg.sender] = msg.value;\n        listings[ipfsHash].buyerAddressesArray.push(payable(msg.sender));\n\n        emit OfferMade(msg.sender, ipfsHash, msg.value);\n    }\n\n    function canMakeNewOffer(string memory ipfsHash) private view {\n        if (listings[ipfsHash].isAuction) {\n            uint256 highestBid = highestOffer(ipfsHash);\n\n            require(\n                highestBid < msg.value,\n                \"To make a new offer on this listing you need to enter a higher amount than the current highest offer\"\n            );\n        } else {\n            require(\n                listings[ipfsHash].buyerAddresses[msg.sender] == 0,\n                \"You've already made an offer on this listing\"\n            );\n        }\n    }\n\n    /// @dev Confirm a buy has taken place and transfer funds\n    /// If the listing is just a standard price, the buyer can confirm the buy straight away\n    /// If a listing is an auction, the buy can only be confirmed after a seller accepts\n    function confirmBuy(string memory ipfsHash) public whenNotPaused {\n        require(\n            listings[ipfsHash].buyerAddresses[msg.sender] > 0,\n            \"There is no offer associated with this buyer\"\n        );\n        require(\n            listings[ipfsHash].bought == false,\n            \"This listing has already been sold\"\n        );\n        require(\n            listings[ipfsHash].finalBuyer == address(0x0),\n            \"This listing already has a final buyer\"\n        );\n        require(\n            ifAuctionEnsureOfferAccepted(ipfsHash),\n            \"The listing is an auction and an offer hasn't been approved by this wallet\"\n        );\n\n        for (\n            uint256 i = 0;\n            i < listings[ipfsHash].buyerAddressesArray.length;\n            i++\n        ) {\n            if (listings[ipfsHash].buyerAddressesArray[i] != msg.sender) {\n                listings[ipfsHash].buyerAddressesArray[i].transfer(\n                    listings[ipfsHash].price\n                );\n            } else {\n                // Send funds to seller\n                listings[ipfsHash].sellerAddress.transfer(\n                    listings[ipfsHash].price\n                );\n            }\n        }\n\n        listings[ipfsHash].bought = true;\n        listings[ipfsHash].finalBuyer = msg.sender;\n\n        emit BuyConfirmed(\n            msg.sender,\n            ipfsHash,\n            listings[ipfsHash].buyerAddresses[msg.sender]\n        );\n    }\n\n    function acceptOffer(string memory ipfsHash, address buyerToAccept)\n        public\n        whenNotPaused\n    {\n        require(\n            listings[ipfsHash].isAuction == true,\n            \"Offers can only be accepted for auctions\"\n        );\n        require(\n            listings[ipfsHash].sellerAddress == msg.sender,\n            \"Only the seller can accept an offer\"\n        );\n        require(\n            listings[ipfsHash].finalBuyer == address(0x0),\n            \"A final buyer already exists for this listing\"\n        );\n        require(\n            listings[ipfsHash].buyerAddresses[buyerToAccept] > 0,\n            \"This address has not made an offer to accept\"\n        );\n        require(\n            listings[ipfsHash].acceptedBuyer == address(0x0),\n            \"You've already accepted a different offer\"\n        );\n\n        listings[ipfsHash].acceptedBuyer = buyerToAccept;\n\n        emit OfferAccepted(\n            msg.sender,\n            ipfsHash,\n            listings[ipfsHash].buyerAddresses[buyerToAccept]\n        );\n    }\n\n    function ifAuctionEnsureOfferAccepted(string memory ipfsHash)\n        private\n        view\n        returns (bool)\n    {\n        if (!listings[ipfsHash].isAuction) return true;\n        if (listings[ipfsHash].acceptedBuyer == msg.sender) return true;\n        return false;\n    }\n\n    /// @dev Called during performUpkeep to empty unused funds\n    function removeListing(string memory ipfsHash) private {\n        for (\n            uint256 i = 0;\n            i < listings[ipfsHash].buyerAddressesArray.length;\n            i++\n        ) {\n            listings[ipfsHash].buyerAddressesArray[i].transfer(\n                listings[ipfsHash].price\n            );\n        }\n\n        listings[ipfsHash].bought = true;\n    }\n\n    function checkUpkeep(\n        bytes calldata /* checkData */\n    )\n        external\n        view\n        override\n        returns (bool upkeepNeeded, bytes memory performData)\n    {\n        string[] memory listingsToRemove = new string[](listingsArray.length);\n\n        bool updateNeeded = false;\n        for (uint256 i = 0; i < listingsArray.length; i++) {\n            if (checkDateIsOlderThanInterval(listings[listingsArray[i]].date)) {\n                listingsToRemove[i] = listingsArray[i];\n                updateNeeded = true;\n            }\n        }\n\n        if (updateNeeded) {\n            performData = abi.encode(listingsToRemove);\n            return (true, performData);\n        } else {\n            string[] memory emptyListing;\n            performData = abi.encode(emptyListing);\n            return (false, performData);\n        }\n    }\n\n    function performUpkeep(bytes calldata performData) external override {\n        string[] memory decodedValue = abi.decode(performData, (string[]));\n\n        for (uint256 i = 0; i < decodedValue.length; i++) {\n            if (checkDateIsOlderThanInterval(listings[decodedValue[i]].date)) {\n                removeListing(decodedValue[i]);\n            }\n        }\n    }\n\n    /// @dev Ascertain whether a date is older than the interval (i.e. that it's two weeks old compared to current blocktime)\n    function checkDateIsOlderThanInterval(uint256 date)\n        private\n        view\n        returns (bool)\n    {\n        return date < block.timestamp - interval;\n    }\n\n    function getListingsArray() public view returns (string[] memory) {\n        string[] memory allListings = new string[](listingsArray.length);\n        for (uint256 i = 0; i < listingsArray.length; i++) {\n            allListings[i] = listingsArray[i];\n        }\n        return allListings;\n    }\n\n    function getBuyersForListing(string memory ipfsHash)\n        public\n        view\n        returns (address[] memory)\n    {\n        require(\n            listings[ipfsHash].sellerAddress != address(0x0),\n            \"This listing does not exist\"\n        );\n\n        address[] memory buyerAddresses = new address[](\n            listings[ipfsHash].buyerAddressesArray.length\n        );\n        for (\n            uint256 i = 0;\n            i < listings[ipfsHash].buyerAddressesArray.length;\n            i++\n        ) {\n            buyerAddresses[i] = listings[ipfsHash].buyerAddressesArray[i];\n        }\n        return buyerAddresses;\n    }\n\n    function getPriceForListing(string memory ipfsHash)\n        public\n        view\n        returns (uint256)\n    {\n        require(\n            listings[ipfsHash].sellerAddress != address(0x0),\n            \"This listing does not exist\"\n        );\n\n        uint256 price = listings[ipfsHash].price;\n        return price;\n    }\n\n    function getHighestBuyerForAuction(string memory ipfsHash)\n        public\n        view\n        returns (address)\n    {\n        require(\n            listings[ipfsHash].sellerAddress != address(0x0),\n            \"This listing does not exist\"\n        );\n        require(\n            listings[ipfsHash].buyerAddressesArray.length > 0,\n            \"There are no buyers for this auction\"\n        );\n        address highestBuyer;\n        uint256 highestBid = getHighestAmountForAuction(ipfsHash);\n\n        for (\n            uint256 i = 0;\n            i < listings[ipfsHash].buyerAddressesArray.length;\n            i++\n        ) {\n            if (\n                listings[ipfsHash].buyerAddresses[\n                    listings[ipfsHash].buyerAddressesArray[i]\n                ] == highestBid\n            ) {\n                highestBuyer = listings[ipfsHash].buyerAddressesArray[i];\n            }\n        }\n        return highestBuyer;\n    }\n\n    function getHighestAmountForAuction(string memory ipfsHash)\n        public\n        view\n        returns (uint256)\n    {\n        require(\n            listings[ipfsHash].sellerAddress != address(0x0),\n            \"This listing does not exist\"\n        );\n        require(\n            listings[ipfsHash].buyerAddressesArray.length > 0,\n            \"There are no buyers for this auction\"\n        );\n\n        return highestOffer(ipfsHash);\n    }\n\n    function highestOffer(string memory ipfsHash)\n        private\n        view\n        returns (uint256)\n    {\n        uint256 highestBid = 0;\n        for (\n            uint256 i = 0;\n            i < listings[ipfsHash].buyerAddressesArray.length;\n            i++\n        ) {\n            if (\n                listings[ipfsHash].buyerAddresses[\n                    listings[ipfsHash].buyerAddressesArray[i]\n                ] > highestBid\n            ) {\n                highestBid = listings[ipfsHash].buyerAddresses[\n                    listings[ipfsHash].buyerAddressesArray[i]\n                ];\n            }\n        }\n        return highestBid;\n    }\n\n    function getOfferForBuyerInAuction(string memory ipfsHash, address buyer)\n        public\n        view\n        returns (uint256)\n    {\n        require(\n            listings[ipfsHash].sellerAddress != address(0x0),\n            \"This listing does not exist\"\n        );\n        require(\n            listings[ipfsHash].isAuction == true,\n            \"Can't get the offer price in an auction - use getPriceForStandardListing instead\"\n        );\n\n        require(\n            listings[ipfsHash].buyerAddresses[buyer] != 0,\n            \"There are no offers from this address\"\n        );\n\n        uint256 offer = listings[ipfsHash].buyerAddresses[buyer];\n        return offer;\n    }\n\n    function getSellerForListing(string memory ipfsHash)\n        public\n        view\n        returns (address)\n    {\n        require(\n            listings[ipfsHash].sellerAddress != address(0x0),\n            \"This listing does not exist\"\n        );\n\n        address sellerAddress = listings[ipfsHash].sellerAddress;\n        return sellerAddress;\n    }\n\n    function getDateForListing(string memory ipfsHash)\n        public\n        view\n        returns (uint256)\n    {\n        require(\n            listings[ipfsHash].sellerAddress != address(0x0),\n            \"This listing does not exist\"\n        );\n\n        uint256 date = listings[ipfsHash].date;\n        return date;\n    }\n\n    function getBoughtForListing(string memory ipfsHash)\n        public\n        view\n        returns (bool)\n    {\n        require(\n            listings[ipfsHash].sellerAddress != address(0x0),\n            \"This listing does not exist\"\n        );\n\n        bool bought = listings[ipfsHash].bought;\n        return bought;\n    }\n\n    function getIsAcceptedForListing(string memory ipfsHash)\n        public\n        view\n        returns (bool)\n    {\n        require(\n            listings[ipfsHash].isAuction,\n            \"Standard listings do not need to be accepted\"\n        );\n        require(\n            listings[ipfsHash].sellerAddress != address(0x0),\n            \"This listing does not exist\"\n        );\n\n        if (listings[ipfsHash].acceptedBuyer == address(0x0)) {\n            return false;\n        }\n        return true;\n    }\n\n    function getIsAuction(string memory ipfsHash) public view returns (bool) {\n        require(\n            listings[ipfsHash].sellerAddress != address(0x0),\n            \"This listing does not exist\"\n        );\n        bool isAuction = listings[ipfsHash].isAuction;\n        return isAuction;\n    }\n\n    /// @dev this method calls selfdestruct() and removes the contract from the blockchain.\n    function kill() public onlyCEO whenNotPaused {\n        selfdestruct(ceoAddress);\n    }\n}\n",
  "sourcePath": "/Users/berniesnell/Blockchain/barrio/fe-barrio/contracts/Listings.sol",
  "compiler": {
    "name": "solc",
    "version": "0.8.7+commit.e28d00a7.Emscripten.clang"
  },
  "schemaVersion": "3.4.7",
  "updatedAt": "2022-05-20T22:09:28.544Z",
  "devdoc": {
    "events": {
      "BuyConfirmed(address,string,uint256)": {
        "details": "emitted whenever a buy is confirmed on a listing"
      },
      "ListingSubmitted(address,string,uint256)": {
        "details": "emitted whenever a new listing is submitted"
      },
      "OfferAccepted(address,string,uint256)": {
        "details": "emitted whenever an offer is accepted on an auction (only auctions)"
      },
      "OfferMade(address,string,uint256)": {
        "details": "emitted whenever an offer is made on a listing from a seller"
      }
    },
    "kind": "dev",
    "methods": {
      "confirmBuy(string)": {
        "details": "Confirm a buy has taken place and transfer funds If the listing is just a standard price, the buyer can confirm the buy straight away If a listing is an auction, the buy can only be confirmed after a seller accepts"
      },
      "createListing(string,uint256,bool,bool)": {
        "details": "List an item for sale, where the metadata is stored in IPFS"
      },
      "kill()": {
        "details": "this method calls selfdestruct() and removes the contract from the blockchain."
      },
      "makeOffer(string)": {
        "details": "Make an offer to buy a listing This works equally for both standard and auction listings"
      },
      "pause()": {
        "details": "Called by any \"C-level\" role to pause the contract. Used only when  a bug or exploit is detected and we need to limit damage."
      },
      "performUpkeep(bytes)": {
        "details": "The input to this method should not be trusted, and the caller of the method should not even be restricted to any single registry. Anyone should be able call it, and the input should be validated, there is no guarantee that the data passed in is the performData returned from checkUpkeep. This could happen due to malicious keepers, racing keepers, or simply a state change while the performUpkeep transaction is waiting for confirmation. Always validate the data passed in.",
        "params": {
          "performData": "is the data which was passed back from the checkData simulation. If it is encoded, it can easily be decoded into other types by calling `abi.decode`. This data should not be trusted, and should be validated against the contract's current state."
        }
      },
      "setCEO(address)": {
        "details": "Assigns a new address to act as the CEO. Only available to the current CEO.",
        "params": {
          "_newCEO": "The address of the new CEO"
        }
      },
      "setCFO(address)": {
        "details": "Assigns a new address to act as the CFO. Only available to the current CEO.",
        "params": {
          "_newCFO": "The address of the new CFO"
        }
      },
      "setCOO(address)": {
        "details": "Assigns a new address to act as the COO. Only available to the current CEO.",
        "params": {
          "_newCOO": "The address of the new COO"
        }
      },
      "setInterval(uint256)": {
        "details": "Change the interval used for wiping data"
      },
      "unpause()": {
        "details": "Unpauses the smart contract. Can only be called by the CEO, since  one reason we may pause the contract is when CFO or COO accounts are  compromised."
      }
    },
    "stateVariables": {
      "listings": {
        "details": "stores all of the submitted Listings"
      },
      "listingsArray": {
        "details": "Also store listings hash as an array in order to loop over later during upkeep"
      }
    },
    "title": "Listings manages buying and selling of listed items",
    "version": 1
  },
  "userdoc": {
    "kind": "user",
    "methods": {
      "performUpkeep(bytes)": {
        "notice": "method that is actually executed by the keepers, via the registry. The data returned by the checkUpkeep simulation will be passed into this method to actually be executed."
      },
      "unpause()": {
        "notice": "This is public rather than external so it can be called by  derived contracts."
      }
    },
    "version": 1
  }
}