{
  "contractName": "Listings",
  "abi": [
    {
      "inputs": [],
      "stateMutability": "nonpayable",
      "type": "constructor"
    },
    {
      "inputs": [],
      "name": "OnlySimulatedBackend",
      "type": "error"
    },
    {
      "anonymous": false,
      "inputs": [
        {
          "indexed": false,
          "internalType": "address",
          "name": "buyerAddress",
          "type": "address"
        },
        {
          "indexed": false,
          "internalType": "string",
          "name": "ipfsHash",
          "type": "string"
        },
        {
          "indexed": false,
          "internalType": "uint256",
          "name": "amount",
          "type": "uint256"
        }
      ],
      "name": "BuyConfirmed",
      "type": "event"
    },
    {
      "anonymous": false,
      "inputs": [
        {
          "indexed": false,
          "internalType": "address",
          "name": "newContract",
          "type": "address"
        }
      ],
      "name": "ContractUpgrade",
      "type": "event"
    },
    {
      "anonymous": false,
      "inputs": [
        {
          "indexed": false,
          "internalType": "address",
          "name": "sellerAddress",
          "type": "address"
        },
        {
          "indexed": false,
          "internalType": "string",
          "name": "ipfsHash",
          "type": "string"
        },
        {
          "indexed": false,
          "internalType": "uint256",
          "name": "price",
          "type": "uint256"
        }
      ],
      "name": "ListingSubmitted",
      "type": "event"
    },
    {
      "anonymous": false,
      "inputs": [
        {
          "indexed": false,
          "internalType": "address",
          "name": "buyerAddress",
          "type": "address"
        },
        {
          "indexed": false,
          "internalType": "string",
          "name": "ipfsHash",
          "type": "string"
        },
        {
          "indexed": false,
          "internalType": "uint256",
          "name": "amount",
          "type": "uint256"
        }
      ],
      "name": "OfferAccepted",
      "type": "event"
    },
    {
      "anonymous": false,
      "inputs": [
        {
          "indexed": false,
          "internalType": "address",
          "name": "buyerAddress",
          "type": "address"
        },
        {
          "indexed": false,
          "internalType": "string",
          "name": "ipfsHash",
          "type": "string"
        },
        {
          "indexed": false,
          "internalType": "uint256",
          "name": "amount",
          "type": "uint256"
        }
      ],
      "name": "OfferMade",
      "type": "event"
    },
    {
      "inputs": [],
      "name": "ceoAddress",
      "outputs": [
        {
          "internalType": "address payable",
          "name": "",
          "type": "address"
        }
      ],
      "stateMutability": "view",
      "type": "function"
    },
    {
      "inputs": [],
      "name": "cfoAddress",
      "outputs": [
        {
          "internalType": "address",
          "name": "",
          "type": "address"
        }
      ],
      "stateMutability": "view",
      "type": "function"
    },
    {
      "inputs": [],
      "name": "cooAddress",
      "outputs": [
        {
          "internalType": "address",
          "name": "",
          "type": "address"
        }
      ],
      "stateMutability": "view",
      "type": "function"
    },
    {
      "inputs": [],
      "name": "interval",
      "outputs": [
        {
          "internalType": "uint256",
          "name": "",
          "type": "uint256"
        }
      ],
      "stateMutability": "view",
      "type": "function"
    },
    {
      "inputs": [],
      "name": "lastTimeStamp",
      "outputs": [
        {
          "internalType": "uint256",
          "name": "",
          "type": "uint256"
        }
      ],
      "stateMutability": "view",
      "type": "function"
    },
    {
      "inputs": [
        {
          "internalType": "string",
          "name": "",
          "type": "string"
        }
      ],
      "name": "listings",
      "outputs": [
        {
          "internalType": "address payable",
          "name": "sellerAddress",
          "type": "address"
        },
        {
          "internalType": "address",
          "name": "acceptedBuyer",
          "type": "address"
        },
        {
          "internalType": "address",
          "name": "finalBuyer",
          "type": "address"
        },
        {
          "internalType": "uint256",
          "name": "price",
          "type": "uint256"
        },
        {
          "internalType": "bool",
          "name": "priceIsInUSD",
          "type": "bool"
        },
        {
          "internalType": "uint256",
          "name": "date",
          "type": "uint256"
        },
        {
          "internalType": "bool",
          "name": "bought",
          "type": "bool"
        },
        {
          "internalType": "bool",
          "name": "isAuction",
          "type": "bool"
        }
      ],
      "stateMutability": "view",
      "type": "function"
    },
    {
      "inputs": [
        {
          "internalType": "uint256",
          "name": "",
          "type": "uint256"
        }
      ],
      "name": "listingsArray",
      "outputs": [
        {
          "internalType": "string",
          "name": "",
          "type": "string"
        }
      ],
      "stateMutability": "view",
      "type": "function"
    },
    {
      "inputs": [],
      "name": "pause",
      "outputs": [],
      "stateMutability": "nonpayable",
      "type": "function"
    },
    {
      "inputs": [],
      "name": "paused",
      "outputs": [
        {
          "internalType": "bool",
          "name": "",
          "type": "bool"
        }
      ],
      "stateMutability": "view",
      "type": "function"
    },
    {
      "inputs": [
        {
          "internalType": "address",
          "name": "_newCEO",
          "type": "address"
        }
      ],
      "name": "setCEO",
      "outputs": [],
      "stateMutability": "nonpayable",
      "type": "function"
    },
    {
      "inputs": [
        {
          "internalType": "address",
          "name": "_newCFO",
          "type": "address"
        }
      ],
      "name": "setCFO",
      "outputs": [],
      "stateMutability": "nonpayable",
      "type": "function"
    },
    {
      "inputs": [
        {
          "internalType": "address",
          "name": "_newCOO",
          "type": "address"
        }
      ],
      "name": "setCOO",
      "outputs": [],
      "stateMutability": "nonpayable",
      "type": "function"
    },
    {
      "inputs": [],
      "name": "unpause",
      "outputs": [],
      "stateMutability": "nonpayable",
      "type": "function"
    },
    {
      "inputs": [
        {
          "internalType": "uint256",
          "name": "newInterval",
          "type": "uint256"
        }
      ],
      "name": "setInterval",
      "outputs": [],
      "stateMutability": "nonpayable",
      "type": "function"
    },
    {
      "inputs": [
        {
          "internalType": "string",
          "name": "ipfsHash",
          "type": "string"
        },
        {
          "internalType": "uint256",
          "name": "price",
          "type": "uint256"
        },
        {
          "internalType": "bool",
          "name": "isAuction",
          "type": "bool"
        },
        {
          "internalType": "bool",
          "name": "priceIsInUSD",
          "type": "bool"
        }
      ],
      "name": "createListing",
      "outputs": [],
      "stateMutability": "payable",
      "type": "function"
    },
    {
      "inputs": [
        {
          "internalType": "string",
          "name": "ipfsHash",
          "type": "string"
        }
      ],
      "name": "makeOffer",
      "outputs": [],
      "stateMutability": "payable",
      "type": "function"
    },
    {
      "inputs": [
        {
          "internalType": "string",
          "name": "ipfsHash",
          "type": "string"
        }
      ],
      "name": "confirmBuy",
      "outputs": [],
      "stateMutability": "nonpayable",
      "type": "function"
    },
    {
      "inputs": [
        {
          "internalType": "string",
          "name": "ipfsHash",
          "type": "string"
        },
        {
          "internalType": "address",
          "name": "buyerToAccept",
          "type": "address"
        }
      ],
      "name": "acceptOffer",
      "outputs": [],
      "stateMutability": "nonpayable",
      "type": "function"
    },
    {
      "inputs": [
        {
          "internalType": "bytes",
          "name": "",
          "type": "bytes"
        }
      ],
      "name": "checkUpkeep",
      "outputs": [
        {
          "internalType": "bool",
          "name": "upkeepNeeded",
          "type": "bool"
        },
        {
          "internalType": "bytes",
          "name": "performData",
          "type": "bytes"
        }
      ],
      "stateMutability": "view",
      "type": "function"
    },
    {
      "inputs": [
        {
          "internalType": "bytes",
          "name": "performData",
          "type": "bytes"
        }
      ],
      "name": "performUpkeep",
      "outputs": [],
      "stateMutability": "nonpayable",
      "type": "function"
    },
    {
      "inputs": [],
      "name": "getListingsArray",
      "outputs": [
        {
          "internalType": "string[]",
          "name": "",
          "type": "string[]"
        }
      ],
      "stateMutability": "view",
      "type": "function"
    },
    {
      "inputs": [
        {
          "internalType": "string",
          "name": "ipfsHash",
          "type": "string"
        }
      ],
      "name": "getBuyersForListing",
      "outputs": [
        {
          "internalType": "address[]",
          "name": "",
          "type": "address[]"
        }
      ],
      "stateMutability": "view",
      "type": "function"
    },
    {
      "inputs": [
        {
          "internalType": "string",
          "name": "ipfsHash",
          "type": "string"
        }
      ],
      "name": "getPriceForListing",
      "outputs": [
        {
          "internalType": "uint256",
          "name": "",
          "type": "uint256"
        }
      ],
      "stateMutability": "view",
      "type": "function"
    },
    {
      "inputs": [
        {
          "internalType": "string",
          "name": "ipfsHash",
          "type": "string"
        }
      ],
      "name": "getHighestBuyerForAuction",
      "outputs": [
        {
          "internalType": "address",
          "name": "",
          "type": "address"
        }
      ],
      "stateMutability": "view",
      "type": "function"
    },
    {
      "inputs": [
        {
          "internalType": "string",
          "name": "ipfsHash",
          "type": "string"
        }
      ],
      "name": "getHighestAmountForAuction",
      "outputs": [
        {
          "internalType": "uint256",
          "name": "",
          "type": "uint256"
        }
      ],
      "stateMutability": "view",
      "type": "function"
    },
    {
      "inputs": [
        {
          "internalType": "string",
          "name": "ipfsHash",
          "type": "string"
        },
        {
          "internalType": "address",
          "name": "buyer",
          "type": "address"
        }
      ],
      "name": "getOfferForBuyerInAuction",
      "outputs": [
        {
          "internalType": "uint256",
          "name": "",
          "type": "uint256"
        }
      ],
      "stateMutability": "view",
      "type": "function"
    },
    {
      "inputs": [
        {
          "internalType": "string",
          "name": "ipfsHash",
          "type": "string"
        }
      ],
      "name": "getSellerForListing",
      "outputs": [
        {
          "internalType": "address",
          "name": "",
          "type": "address"
        }
      ],
      "stateMutability": "view",
      "type": "function"
    },
    {
      "inputs": [
        {
          "internalType": "string",
          "name": "ipfsHash",
          "type": "string"
        }
      ],
      "name": "getDateForListing",
      "outputs": [
        {
          "internalType": "uint256",
          "name": "",
          "type": "uint256"
        }
      ],
      "stateMutability": "view",
      "type": "function"
    },
    {
      "inputs": [
        {
          "internalType": "string",
          "name": "ipfsHash",
          "type": "string"
        }
      ],
      "name": "getBoughtForListing",
      "outputs": [
        {
          "internalType": "bool",
          "name": "",
          "type": "bool"
        }
      ],
      "stateMutability": "view",
      "type": "function"
    },
    {
      "inputs": [
        {
          "internalType": "string",
          "name": "ipfsHash",
          "type": "string"
        }
      ],
      "name": "getIsAuction",
      "outputs": [
        {
          "internalType": "bool",
          "name": "",
          "type": "bool"
        }
      ],
      "stateMutability": "view",
      "type": "function"
    },
    {
      "inputs": [],
      "name": "kill",
      "outputs": [],
      "stateMutability": "nonpayable",
      "type": "function"
    }
  ],
  "bytecode": "0x60806040526000600260146101000a81548160ff02191690831515021790555062093a8060065534801561003257600080fd5b50336000806101000a81548173ffffffffffffffffffffffffffffffffffffffff021916908373ffffffffffffffffffffffffffffffffffffffff16021790555042600581905550614e26806100896000396000f3fe6080604052600436106101d75760003560e01c806348fb8c2211610102578063947a36fb11610095578063ceb6440411610064578063ceb64404146106c8578063e1b9ae6614610705578063e2fabbe814610742578063fad05b021461076d576101d7565b8063947a36fb146105f8578063b047fb5014610623578063c6db54641461064e578063cc8039341461068b576101d7565b80636e04ff0d116100d15780636e04ff0d1461053657806377dec6c31461057457806384328e20146105b85780638456cb59146105e1576101d7565b806348fb8c22146104685780634e0a3379146104a55780635c975abb146104ce5780636748fbe3146104f9576101d7565b80632ba73c151161017a5780633f4ba83a116101495780633f4ba83a146103f557806340b0f3751461040c57806341c0e1b5146104285780634585e33b1461043f576101d7565b80632ba73c151461033b5780632f97d215146103645780633e3c82dc146103a15780633f3b3b27146103ca576101d7565b80631cd49328116101b65780631cd493281461026f5780631d76fe20146102ac57806322a90082146102e957806327d7874c14610312576101d7565b806217e8a7146101dc5780630519ce79146102195780630a0f816814610244575b600080fd5b3480156101e857600080fd5b5061020360048036038101906101fe9190613905565b610789565b60405161021091906143c9565b60405180910390f35b34801561022557600080fd5b5061022e610a96565b60405161023b9190613fc6565b60405180910390f35b34801561025057600080fd5b50610259610abc565b6040516102669190613fe1565b60405180910390f35b34801561027b57600080fd5b5061029660048036038101906102919190613905565b610ae0565b6040516102a391906140fc565b60405180910390f35b3480156102b857600080fd5b506102d360048036038101906102ce9190613905565b610bce565b6040516102e091906143c9565b60405180910390f35b3480156102f557600080fd5b50610310600480360381019061030b9190613a2d565b610caf565b005b34801561031e57600080fd5b5061033960048036038101906103349190613842565b610ddb565b005b34801561034757600080fd5b50610362600480360381019061035d9190613842565b610eb0565b005b34801561037057600080fd5b5061038b6004803603810190610386919061394e565b610f86565b60405161039891906143c9565b60405180910390f35b3480156103ad57600080fd5b506103c860048036038101906103c39190613905565b6111bc565b005b3480156103d657600080fd5b506103df611761565b6040516103ec91906143c9565b60405180910390f35b34801561040157600080fd5b5061040a611767565b005b61042660048036038101906104219190613905565b6117f5565b005b34801561043457600080fd5b5061043d611c14565b005b34801561044b57600080fd5b50610466600480360381019061046191906138b8565b611cbf565b005b34801561047457600080fd5b5061048f600480360381019061048a9190613a2d565b611d64565b60405161049c9190614147565b60405180910390f35b3480156104b157600080fd5b506104cc60048036038101906104c79190613842565b611e10565b005b3480156104da57600080fd5b506104e3611ee6565b6040516104f091906140fc565b60405180910390f35b34801561050557600080fd5b50610520600480360381019061051b9190613905565b611ef9565b60405161052d91906140fc565b60405180910390f35b34801561054257600080fd5b5061055d600480360381019061055891906138b8565b611fe7565b60405161056b929190614117565b60405180910390f35b34801561058057600080fd5b5061059b60048036038101906105969190613905565b6121e3565b6040516105af989796959493929190613ffc565b60405180910390f35b3480156105c457600080fd5b506105df60048036038101906105da919061394e565b6122c8565b005b3480156105ed57600080fd5b506105f6612654565b005b34801561060457600080fd5b5061060d612793565b60405161061a91906143c9565b60405180910390f35b34801561062f57600080fd5b50610638612799565b6040516106459190613fc6565b60405180910390f35b34801561065a57600080fd5b5061067560048036038101906106709190613905565b6127bf565b60405161068291906140b8565b60405180910390f35b34801561069757600080fd5b506106b260048036038101906106ad9190613905565b6129da565b6040516106bf9190613fc6565b60405180910390f35b3480156106d457600080fd5b506106ef60048036038101906106ea9190613905565b612c72565b6040516106fc9190613fc6565b60405180910390f35b34801561071157600080fd5b5061072c60048036038101906107279190613905565b612d73565b60405161073991906143c9565b60405180910390f35b34801561074e57600080fd5b50610757612e54565b60405161076491906140da565b60405180910390f35b610787600480360381019061078291906139aa565b612f9d565b005b60008073ffffffffffffffffffffffffffffffffffffffff166003836040516107b29190613f98565b908152602001604051809103902060000160009054906101000a900473ffffffffffffffffffffffffffffffffffffffff1673ffffffffffffffffffffffffffffffffffffffff16141561083b576040517f08c379a0000000000000000000000000000000000000000000000000000000008152600401610832906141a9565b60405180910390fd5b600060038360405161084d9190613f98565b908152602001604051809103902060020180549050116108a2576040517f08c379a0000000000000000000000000000000000000000000000000000000008152600401610899906142a9565b60405180910390fd5b60006003836040516108b49190613f98565b908152602001604051809103902060050154905060005b6003846040516108db9190613f98565b908152602001604051809103902060020180549050811015610a8c57816003856040516109089190613f98565b9081526020016040518091039020600101600060038760405161092b9190613f98565b9081526020016040518091039020600201848154811061094e5761094d61471b565b5b9060005260206000200160009054906101000a900473ffffffffffffffffffffffffffffffffffffffff1673ffffffffffffffffffffffffffffffffffffffff1673ffffffffffffffffffffffffffffffffffffffff168152602001908152602001600020541115610a79576003846040516109ca9190613f98565b908152602001604051809103902060010160006003866040516109ed9190613f98565b90815260200160405180910390206002018381548110610a1057610a0f61471b565b5b9060005260206000200160009054906101000a900473ffffffffffffffffffffffffffffffffffffffff1673ffffffffffffffffffffffffffffffffffffffff1673ffffffffffffffffffffffffffffffffffffffff1681526020019081526020016000205491505b8080610a8490614674565b9150506108cb565b5080915050919050565b600160009054906101000a900473ffffffffffffffffffffffffffffffffffffffff1681565b60008054906101000a900473ffffffffffffffffffffffffffffffffffffffff1681565b60008073ffffffffffffffffffffffffffffffffffffffff16600383604051610b099190613f98565b908152602001604051809103902060000160009054906101000a900473ffffffffffffffffffffffffffffffffffffffff1673ffffffffffffffffffffffffffffffffffffffff161415610b92576040517f08c379a0000000000000000000000000000000000000000000000000000000008152600401610b89906141a9565b60405180910390fd5b6000600383604051610ba49190613f98565b908152602001604051809103902060080160019054906101000a900460ff16905080915050919050565b60008073ffffffffffffffffffffffffffffffffffffffff16600383604051610bf79190613f98565b908152602001604051809103902060000160009054906101000a900473ffffffffffffffffffffffffffffffffffffffff1673ffffffffffffffffffffffffffffffffffffffff161415610c80576040517f08c379a0000000000000000000000000000000000000000000000000000000008152600401610c77906141a9565b60405180910390fd5b6000600383604051610c929190613f98565b908152602001604051809103902060070154905080915050919050565b600260149054906101000a900460ff1615610cc957600080fd5b600260009054906101000a900473ffffffffffffffffffffffffffffffffffffffff1673ffffffffffffffffffffffffffffffffffffffff163373ffffffffffffffffffffffffffffffffffffffff161480610d70575060008054906101000a900473ffffffffffffffffffffffffffffffffffffffff1673ffffffffffffffffffffffffffffffffffffffff163373ffffffffffffffffffffffffffffffffffffffff16145b80610dc85750600160009054906101000a900473ffffffffffffffffffffffffffffffffffffffff1673ffffffffffffffffffffffffffffffffffffffff163373ffffffffffffffffffffffffffffffffffffffff16145b610dd157600080fd5b8060068190555050565b60008054906101000a900473ffffffffffffffffffffffffffffffffffffffff1673ffffffffffffffffffffffffffffffffffffffff163373ffffffffffffffffffffffffffffffffffffffff1614610e3357600080fd5b600073ffffffffffffffffffffffffffffffffffffffff168173ffffffffffffffffffffffffffffffffffffffff161415610e6d57600080fd5b806000806101000a81548173ffffffffffffffffffffffffffffffffffffffff021916908373ffffffffffffffffffffffffffffffffffffffff16021790555050565b60008054906101000a900473ffffffffffffffffffffffffffffffffffffffff1673ffffffffffffffffffffffffffffffffffffffff163373ffffffffffffffffffffffffffffffffffffffff1614610f0857600080fd5b600073ffffffffffffffffffffffffffffffffffffffff168173ffffffffffffffffffffffffffffffffffffffff161415610f4257600080fd5b80600260006101000a81548173ffffffffffffffffffffffffffffffffffffffff021916908373ffffffffffffffffffffffffffffffffffffffff16021790555050565b60008073ffffffffffffffffffffffffffffffffffffffff16600384604051610faf9190613f98565b908152602001604051809103902060000160009054906101000a900473ffffffffffffffffffffffffffffffffffffffff1673ffffffffffffffffffffffffffffffffffffffff161415611038576040517f08c379a000000000000000000000000000000000000000000000000000000000815260040161102f906141a9565b60405180910390fd5b6001151560038460405161104c9190613f98565b908152602001604051809103902060080160019054906101000a900460ff161515146110ad576040517f08c379a00000000000000000000000000000000000000000000000000000000081526004016110a490614269565b60405180910390fd5b60006003846040516110bf9190613f98565b908152602001604051809103902060010160008473ffffffffffffffffffffffffffffffffffffffff1673ffffffffffffffffffffffffffffffffffffffff16815260200190815260200160002054141561114f576040517f08c379a0000000000000000000000000000000000000000000000000000000008152600401611146906141c9565b60405180910390fd5b60006003846040516111619190613f98565b908152602001604051809103902060010160008473ffffffffffffffffffffffffffffffffffffffff1673ffffffffffffffffffffffffffffffffffffffff1681526020019081526020016000205490508091505092915050565b600260149054906101000a900460ff16156111d657600080fd5b60006003826040516111e89190613f98565b908152602001604051809103902060010160003373ffffffffffffffffffffffffffffffffffffffff1673ffffffffffffffffffffffffffffffffffffffff1681526020019081526020016000205411611277576040517f08c379a000000000000000000000000000000000000000000000000000000000815260040161126e90614169565b60405180910390fd5b6000151560038260405161128b9190613f98565b908152602001604051809103902060080160009054906101000a900460ff161515146112ec576040517f08c379a00000000000000000000000000000000000000000000000000000000081526004016112e390614249565b60405180910390fd5b600073ffffffffffffffffffffffffffffffffffffffff166003826040516113149190613f98565b908152602001604051809103902060040160009054906101000a900473ffffffffffffffffffffffffffffffffffffffff1673ffffffffffffffffffffffffffffffffffffffff161461139c576040517f08c379a000000000000000000000000000000000000000000000000000000000815260040161139390614189565b60405180910390fd5b6113a58161323c565b6113e4576040517f08c379a00000000000000000000000000000000000000000000000000000000081526004016113db90614389565b60405180910390fd5b60005b6003826040516113f79190613f98565b90815260200160405180910390206002018054905081101561162a573373ffffffffffffffffffffffffffffffffffffffff1660038360405161143a9190613f98565b9081526020016040518091039020600201828154811061145d5761145c61471b565b5b9060005260206000200160009054906101000a900473ffffffffffffffffffffffffffffffffffffffff1673ffffffffffffffffffffffffffffffffffffffff161461156d576003826040516114b39190613f98565b908152602001604051809103902060020181815481106114d6576114d561471b565b5b9060005260206000200160009054906101000a900473ffffffffffffffffffffffffffffffffffffffff1673ffffffffffffffffffffffffffffffffffffffff166108fc60038460405161152a9190613f98565b9081526020016040518091039020600501549081150290604051600060405180830381858888f19350505050158015611567573d6000803e3d6000fd5b50611617565b60038260405161157d9190613f98565b908152602001604051809103902060000160009054906101000a900473ffffffffffffffffffffffffffffffffffffffff1673ffffffffffffffffffffffffffffffffffffffff166108fc6003846040516115d89190613f98565b9081526020016040518091039020600501549081150290604051600060405180830381858888f19350505050158015611615573d6000803e3d6000fd5b505b808061162290614674565b9150506113e7565b50600160038260405161163d9190613f98565b908152602001604051809103902060080160006101000a81548160ff021916908315150217905550336003826040516116769190613f98565b908152602001604051809103902060040160006101000a81548173ffffffffffffffffffffffffffffffffffffffff021916908373ffffffffffffffffffffffffffffffffffffffff1602179055507f732caf405705f1e8b94769d7cec34ccc5962b55698a279b09d9e28030f269f6633826003846040516116f89190613f98565b908152602001604051809103902060010160003373ffffffffffffffffffffffffffffffffffffffff1673ffffffffffffffffffffffffffffffffffffffff168152602001908152602001600020546040516117569392919061407a565b60405180910390a150565b60055481565b60008054906101000a900473ffffffffffffffffffffffffffffffffffffffff1673ffffffffffffffffffffffffffffffffffffffff163373ffffffffffffffffffffffffffffffffffffffff16146117bf57600080fd5b600260149054906101000a900460ff166117d857600080fd5b6000600260146101000a81548160ff021916908315150217905550565b600260149054906101000a900460ff161561180f57600080fd5b3373ffffffffffffffffffffffffffffffffffffffff166003826040516118369190613f98565b908152602001604051809103902060000160009054906101000a900473ffffffffffffffffffffffffffffffffffffffff1673ffffffffffffffffffffffffffffffffffffffff1614156118bf576040517f08c379a00000000000000000000000000000000000000000000000000000000081526004016118b690614289565b60405180910390fd5b600015156003826040516118d39190613f98565b908152602001604051809103902060080160009054906101000a900460ff16151514611934576040517f08c379a000000000000000000000000000000000000000000000000000000000815260040161192b90614209565b60405180910390fd5b600073ffffffffffffffffffffffffffffffffffffffff1660038260405161195c9190613f98565b908152602001604051809103902060040160009054906101000a900473ffffffffffffffffffffffffffffffffffffffff1673ffffffffffffffffffffffffffffffffffffffff16146119e4576040517f08c379a00000000000000000000000000000000000000000000000000000000081526004016119db906142e9565b60405180910390fd5b6119ed81613302565b346003826040516119fe9190613f98565b9081526020016040518091039020600501541115611a51576040517f08c379a0000000000000000000000000000000000000000000000000000000008152600401611a4890614229565b60405180910390fd5b34600382604051611a629190613f98565b908152602001604051809103902060010160003373ffffffffffffffffffffffffffffffffffffffff1673ffffffffffffffffffffffffffffffffffffffff1681526020019081526020016000205410611af1576040517f08c379a0000000000000000000000000000000000000000000000000000000008152600401611ae8906142c9565b60405180910390fd5b34600382604051611b029190613f98565b908152602001604051809103902060010160003373ffffffffffffffffffffffffffffffffffffffff1673ffffffffffffffffffffffffffffffffffffffff16815260200190815260200160002081905550600381604051611b649190613f98565b9081526020016040518091039020600201339080600181540180825580915050600190039060005260206000200160009091909190916101000a81548173ffffffffffffffffffffffffffffffffffffffff021916908373ffffffffffffffffffffffffffffffffffffffff1602179055507f3f632af37196b42ae1309788f42170522fbc34e71c4a275d9ebc5dad19ad7e1c338234604051611c099392919061407a565b60405180910390a150565b60008054906101000a900473ffffffffffffffffffffffffffffffffffffffff1673ffffffffffffffffffffffffffffffffffffffff163373ffffffffffffffffffffffffffffffffffffffff1614611c6c57600080fd5b600260149054906101000a900460ff1615611c8657600080fd5b60008054906101000a900473ffffffffffffffffffffffffffffffffffffffff1673ffffffffffffffffffffffffffffffffffffffff16ff5b60008282810190611cd0919061386f565b905060005b8151811015611d5e57611d226003838381518110611cf657611cf561471b565b5b6020026020010151604051611d0b9190613f98565b908152602001604051809103902060070154613480565b15611d4b57611d4a828281518110611d3d57611d3c61471b565b5b6020026020010151613499565b5b8080611d5690614674565b915050611cd5565b50505050565b60048181548110611d7457600080fd5b906000526020600020016000915090508054611d8f90614611565b80601f0160208091040260200160405190810160405280929190818152602001828054611dbb90614611565b8015611e085780601f10611ddd57610100808354040283529160200191611e08565b820191906000526020600020905b815481529060010190602001808311611deb57829003601f168201915b505050505081565b60008054906101000a900473ffffffffffffffffffffffffffffffffffffffff1673ffffffffffffffffffffffffffffffffffffffff163373ffffffffffffffffffffffffffffffffffffffff1614611e6857600080fd5b600073ffffffffffffffffffffffffffffffffffffffff168173ffffffffffffffffffffffffffffffffffffffff161415611ea257600080fd5b80600160006101000a81548173ffffffffffffffffffffffffffffffffffffffff021916908373ffffffffffffffffffffffffffffffffffffffff16021790555050565b600260149054906101000a900460ff1681565b60008073ffffffffffffffffffffffffffffffffffffffff16600383604051611f229190613f98565b908152602001604051809103902060000160009054906101000a900473ffffffffffffffffffffffffffffffffffffffff1673ffffffffffffffffffffffffffffffffffffffff161415611fab576040517f08c379a0000000000000000000000000000000000000000000000000000000008152600401611fa2906141a9565b60405180910390fd5b6000600383604051611fbd9190613f98565b908152602001604051809103902060080160009054906101000a900460ff16905080915050919050565b60006060600060048054905067ffffffffffffffff81111561200c5761200b61474a565b5b60405190808252806020026020018201604052801561203f57816020015b606081526020019060019003908161202a5790505b5090506000805b60048054905081101561217c5761209a60036004838154811061206c5761206b61471b565b5b906000526020600020016040516120839190613faf565b908152602001604051809103902060070154613480565b1561216957600481815481106120b3576120b261471b565b5b9060005260206000200180546120c890614611565b80601f01602080910402602001604051908101604052809291908181526020018280546120f490614611565b80156121415780601f1061211657610100808354040283529160200191612141565b820191906000526020600020905b81548152906001019060200180831161212457829003601f168201915b50505050508382815181106121595761215861471b565b5b6020026020010181905250600191505b808061217490614674565b915050612046565b5080156121b0578160405160200161219491906140da565b60405160208183030381529060405292506001935050506121dc565b6060806040516020016121c391906140da565b6040516020818303038152906040529350600094505050505b9250929050565b6003818051602081018201805184825260208301602085012081835280955050505050506000915090508060000160009054906101000a900473ffffffffffffffffffffffffffffffffffffffff16908060030160009054906101000a900473ffffffffffffffffffffffffffffffffffffffff16908060040160009054906101000a900473ffffffffffffffffffffffffffffffffffffffff16908060050154908060060160009054906101000a900460ff16908060070154908060080160009054906101000a900460ff16908060080160019054906101000a900460ff16905088565b600260149054906101000a900460ff16156122e257600080fd5b600115156003836040516122f69190613f98565b908152602001604051809103902060080160019054906101000a900460ff16151514612357576040517f08c379a000000000000000000000000000000000000000000000000000000000815260040161234e90614369565b60405180910390fd5b3373ffffffffffffffffffffffffffffffffffffffff1660038360405161237e9190613f98565b908152602001604051809103902060000160009054906101000a900473ffffffffffffffffffffffffffffffffffffffff1673ffffffffffffffffffffffffffffffffffffffff1614612406576040517f08c379a00000000000000000000000000000000000000000000000000000000081526004016123fd90614349565b60405180910390fd5b600073ffffffffffffffffffffffffffffffffffffffff1660038360405161242e9190613f98565b908152602001604051809103902060040160009054906101000a900473ffffffffffffffffffffffffffffffffffffffff1673ffffffffffffffffffffffffffffffffffffffff16146124b6576040517f08c379a00000000000000000000000000000000000000000000000000000000081526004016124ad906143a9565b60405180910390fd5b60006003836040516124c89190613f98565b908152602001604051809103902060010160008373ffffffffffffffffffffffffffffffffffffffff1673ffffffffffffffffffffffffffffffffffffffff1681526020019081526020016000205411612557576040517f08c379a000000000000000000000000000000000000000000000000000000000815260040161254e90614329565b60405180910390fd5b806003836040516125689190613f98565b908152602001604051809103902060030160006101000a81548173ffffffffffffffffffffffffffffffffffffffff021916908373ffffffffffffffffffffffffffffffffffffffff1602179055507f0b60c70910b915912c63957910ea661ff735c3cff274e7f95ca0e2b69b15074d33836003856040516125ea9190613f98565b908152602001604051809103902060010160008573ffffffffffffffffffffffffffffffffffffffff1673ffffffffffffffffffffffffffffffffffffffff168152602001908152602001600020546040516126489392919061407a565b60405180910390a15050565b600260009054906101000a900473ffffffffffffffffffffffffffffffffffffffff1673ffffffffffffffffffffffffffffffffffffffff163373ffffffffffffffffffffffffffffffffffffffff1614806126fb575060008054906101000a900473ffffffffffffffffffffffffffffffffffffffff1673ffffffffffffffffffffffffffffffffffffffff163373ffffffffffffffffffffffffffffffffffffffff16145b806127535750600160009054906101000a900473ffffffffffffffffffffffffffffffffffffffff1673ffffffffffffffffffffffffffffffffffffffff163373ffffffffffffffffffffffffffffffffffffffff16145b61275c57600080fd5b600260149054906101000a900460ff161561277657600080fd5b6001600260146101000a81548160ff021916908315150217905550565b60065481565b600260009054906101000a900473ffffffffffffffffffffffffffffffffffffffff1681565b6060600073ffffffffffffffffffffffffffffffffffffffff166003836040516127e99190613f98565b908152602001604051809103902060000160009054906101000a900473ffffffffffffffffffffffffffffffffffffffff1673ffffffffffffffffffffffffffffffffffffffff161415612872576040517f08c379a0000000000000000000000000000000000000000000000000000000008152600401612869906141a9565b60405180910390fd5b60006003836040516128849190613f98565b90815260200160405180910390206002018054905067ffffffffffffffff8111156128b2576128b161474a565b5b6040519080825280602002602001820160405280156128e05781602001602082028036833780820191505090505b50905060005b6003846040516128f69190613f98565b9081526020016040518091039020600201805490508110156129d0576003846040516129229190613f98565b908152602001604051809103902060020181815481106129455761294461471b565b5b9060005260206000200160009054906101000a900473ffffffffffffffffffffffffffffffffffffffff168282815181106129835761298261471b565b5b602002602001019073ffffffffffffffffffffffffffffffffffffffff16908173ffffffffffffffffffffffffffffffffffffffff168152505080806129c890614674565b9150506128e6565b5080915050919050565b60008073ffffffffffffffffffffffffffffffffffffffff16600383604051612a039190613f98565b908152602001604051809103902060000160009054906101000a900473ffffffffffffffffffffffffffffffffffffffff1673ffffffffffffffffffffffffffffffffffffffff161415612a8c576040517f08c379a0000000000000000000000000000000000000000000000000000000008152600401612a83906141a9565b60405180910390fd5b6000600383604051612a9e9190613f98565b90815260200160405180910390206002018054905011612af3576040517f08c379a0000000000000000000000000000000000000000000000000000000008152600401612aea906142a9565b60405180910390fd5b600080612aff84610789565b905060005b600385604051612b149190613f98565b908152602001604051809103902060020180549050811015612c675781600386604051612b419190613f98565b90815260200160405180910390206001016000600388604051612b649190613f98565b90815260200160405180910390206002018481548110612b8757612b8661471b565b5b9060005260206000200160009054906101000a900473ffffffffffffffffffffffffffffffffffffffff1673ffffffffffffffffffffffffffffffffffffffff1673ffffffffffffffffffffffffffffffffffffffff168152602001908152602001600020541415612c5457600385604051612c039190613f98565b90815260200160405180910390206002018181548110612c2657612c2561471b565b5b9060005260206000200160009054906101000a900473ffffffffffffffffffffffffffffffffffffffff1692505b8080612c5f90614674565b915050612b04565b508192505050919050565b60008073ffffffffffffffffffffffffffffffffffffffff16600383604051612c9b9190613f98565b908152602001604051809103902060000160009054906101000a900473ffffffffffffffffffffffffffffffffffffffff1673ffffffffffffffffffffffffffffffffffffffff161415612d24576040517f08c379a0000000000000000000000000000000000000000000000000000000008152600401612d1b906141a9565b60405180910390fd5b6000600383604051612d369190613f98565b908152602001604051809103902060000160009054906101000a900473ffffffffffffffffffffffffffffffffffffffff16905080915050919050565b60008073ffffffffffffffffffffffffffffffffffffffff16600383604051612d9c9190613f98565b908152602001604051809103902060000160009054906101000a900473ffffffffffffffffffffffffffffffffffffffff1673ffffffffffffffffffffffffffffffffffffffff161415612e25576040517f08c379a0000000000000000000000000000000000000000000000000000000008152600401612e1c906141a9565b60405180910390fd5b6000600383604051612e379190613f98565b908152602001604051809103902060050154905080915050919050565b6060600060048054905067ffffffffffffffff811115612e7757612e7661474a565b5b604051908082528060200260200182016040528015612eaa57816020015b6060815260200190600190039081612e955790505b50905060005b600480549050811015612f955760048181548110612ed157612ed061471b565b5b906000526020600020018054612ee690614611565b80601f0160208091040260200160405190810160405280929190818152602001828054612f1290614611565b8015612f5f5780601f10612f3457610100808354040283529160200191612f5f565b820191906000526020600020905b815481529060010190602001808311612f4257829003601f168201915b5050505050828281518110612f7757612f7661471b565b5b60200260200101819052508080612f8d90614674565b915050612eb0565b508091505090565b600260149054906101000a900460ff1615612fb757600080fd5b600073ffffffffffffffffffffffffffffffffffffffff16600385604051612fdf9190613f98565b908152602001604051809103902060000160009054906101000a900473ffffffffffffffffffffffffffffffffffffffff1673ffffffffffffffffffffffffffffffffffffffff1614613067576040517f08c379a000000000000000000000000000000000000000000000000000000000815260040161305e90614309565b60405180910390fd5b336003856040516130789190613f98565b908152602001604051809103902060000160006101000a81548173ffffffffffffffffffffffffffffffffffffffff021916908373ffffffffffffffffffffffffffffffffffffffff160217905550826003856040516130d89190613f98565b908152602001604051809103902060050181905550426003856040516130fe9190613f98565b90815260200160405180910390206007018190555060006003856040516131259190613f98565b908152602001604051809103902060060160006101000a81548160ff0219169083151502179055508160038560405161315e9190613f98565b908152602001604051809103902060080160016101000a81548160ff021916908315150217905550806003856040516131979190613f98565b908152602001604051809103902060060160006101000a81548160ff0219169083151502179055506004849080600181540180825580915050600190039060005260206000200160009091909190915090805190602001906131fa9291906135de565b507f117a5dfdea357bc69040f213ba3b30a731d4adddc1b5d1580db9d6b85568ea3533858560405161322e9392919061407a565b60405180910390a150505050565b600060038260405161324e9190613f98565b908152602001604051809103902060080160019054906101000a900460ff1661327a57600190506132fd565b3373ffffffffffffffffffffffffffffffffffffffff166003836040516132a19190613f98565b908152602001604051809103902060030160009054906101000a900473ffffffffffffffffffffffffffffffffffffffff1673ffffffffffffffffffffffffffffffffffffffff1614156132f857600190506132fd565b600090505b919050565b6003816040516133129190613f98565b908152602001604051809103902060080160019054906101000a900460ff16156133db57346003826040516133479190613f98565b908152602001604051809103902060010160003373ffffffffffffffffffffffffffffffffffffffff1673ffffffffffffffffffffffffffffffffffffffff16815260200190815260200160002054106133d6576040517f08c379a00000000000000000000000000000000000000000000000000000000081526004016133cd906142c9565b60405180910390fd5b61347d565b60006003826040516133ed9190613f98565b908152602001604051809103902060010160003373ffffffffffffffffffffffffffffffffffffffff1673ffffffffffffffffffffffffffffffffffffffff168152602001908152602001600020541461347c576040517f08c379a0000000000000000000000000000000000000000000000000000000008152600401613473906141e9565b60405180910390fd5b5b50565b6000600654426134909190614541565b82109050919050565b60005b6003826040516134ac9190613f98565b9081526020016040518091039020600201805490508110156135a0576003826040516134d89190613f98565b908152602001604051809103902060020181815481106134fb576134fa61471b565b5b9060005260206000200160009054906101000a900473ffffffffffffffffffffffffffffffffffffffff1673ffffffffffffffffffffffffffffffffffffffff166108fc60038460405161354f9190613f98565b9081526020016040518091039020600501549081150290604051600060405180830381858888f1935050505015801561358c573d6000803e3d6000fd5b50808061359890614674565b91505061349c565b5060016003826040516135b39190613f98565b908152602001604051809103902060080160006101000a81548160ff02191690831515021790555050565b8280546135ea90614611565b90600052602060002090601f01602090048101928261360c5760008555613653565b82601f1061362557805160ff1916838001178555613653565b82800160010185558215613653579182015b82811115613652578251825591602001919060010190613637565b5b5090506136609190613664565b5090565b5b8082111561367d576000816000905550600101613665565b5090565b600061369461368f84614409565b6143e4565b905080838252602082019050828560208602820111156136b7576136b6614783565b5b60005b8581101561370557813567ffffffffffffffff8111156136dd576136dc61477e565b5b8086016136ea89826137ff565b855260208501945060208401935050506001810190506136ba565b5050509392505050565b600061372261371d84614435565b6143e4565b90508281526020810184848401111561373e5761373d614788565b5b6137498482856145cf565b509392505050565b60008135905061376081614dab565b92915050565b600082601f83011261377b5761377a61477e565b5b813561378b848260208601613681565b91505092915050565b6000813590506137a381614dc2565b92915050565b60008083601f8401126137bf576137be61477e565b5b8235905067ffffffffffffffff8111156137dc576137db614779565b5b6020830191508360018202830111156137f8576137f7614783565b5b9250929050565b600082601f8301126138145761381361477e565b5b813561382484826020860161370f565b91505092915050565b60008135905061383c81614dd9565b92915050565b60006020828403121561385857613857614792565b5b600061386684828501613751565b91505092915050565b60006020828403121561388557613884614792565b5b600082013567ffffffffffffffff8111156138a3576138a261478d565b5b6138af84828501613766565b91505092915050565b600080602083850312156138cf576138ce614792565b5b600083013567ffffffffffffffff8111156138ed576138ec61478d565b5b6138f9858286016137a9565b92509250509250929050565b60006020828403121561391b5761391a614792565b5b600082013567ffffffffffffffff8111156139395761393861478d565b5b613945848285016137ff565b91505092915050565b6000806040838503121561396557613964614792565b5b600083013567ffffffffffffffff8111156139835761398261478d565b5b61398f858286016137ff565b92505060206139a085828601613751565b9150509250929050565b600080600080608085870312156139c4576139c3614792565b5b600085013567ffffffffffffffff8111156139e2576139e161478d565b5b6139ee878288016137ff565b94505060206139ff8782880161382d565b9350506040613a1087828801613794565b9250506060613a2187828801613794565b91505092959194509250565b600060208284031215613a4357613a42614792565b5b6000613a518482850161382d565b91505092915050565b6000613a668383613a95565b60208301905092915050565b6000613a7e8383613bce565b905092915050565b613a8f81614587565b82525050565b613a9e81614575565b82525050565b613aad81614575565b82525050565b6000613abe8261449b565b613ac881856144e1565b9350613ad383614466565b8060005b83811015613b04578151613aeb8882613a5a565b9750613af6836144c7565b925050600181019050613ad7565b5085935050505092915050565b6000613b1c826144a6565b613b2681856144f2565b935083602082028501613b3885614476565b8060005b85811015613b745784840389528151613b558582613a72565b9450613b60836144d4565b925060208a01995050600181019050613b3c565b50829750879550505050505092915050565b613b8f81614599565b82525050565b6000613ba0826144b1565b613baa8185614503565b9350613bba8185602086016145de565b613bc381614797565b840191505092915050565b6000613bd9826144bc565b613be38185614514565b9350613bf38185602086016145de565b613bfc81614797565b840191505092915050565b6000613c12826144bc565b613c1c8185614525565b9350613c2c8185602086016145de565b613c3581614797565b840191505092915050565b6000613c4b826144bc565b613c558185614536565b9350613c658185602086016145de565b80840191505092915050565b60008154613c7e81614611565b613c888186614536565b94506001821660008114613ca35760018114613cb457613ce7565b60ff19831686528186019350613ce7565b613cbd85614486565b60005b83811015613cdf57815481890152600182019150602081019050613cc0565b838801955050505b50505092915050565b6000613cfd602c83614525565b9150613d08826147a8565b604082019050919050565b6000613d20602683614525565b9150613d2b826147f7565b604082019050919050565b6000613d43601b83614525565b9150613d4e82614846565b602082019050919050565b6000613d66602583614525565b9150613d718261486f565b604082019050919050565b6000613d89602c83614525565b9150613d94826148be565b604082019050919050565b6000613dac601e83614525565b9150613db78261490d565b602082019050919050565b6000613dcf603183614525565b9150613dda82614936565b604082019050919050565b6000613df2602283614525565b9150613dfd82614985565b604082019050919050565b6000613e15605083614525565b9150613e20826149d4565b606082019050919050565b6000613e38603a83614525565b9150613e4382614a49565b604082019050919050565b6000613e5b602483614525565b9150613e6682614a98565b604082019050919050565b6000613e7e605e83614525565b9150613e8982614ae7565b606082019050919050565b6000613ea1603b83614525565b9150613eac82614b5c565b604082019050919050565b6000613ec4602f83614525565b9150613ecf82614bab565b604082019050919050565b6000613ee7602c83614525565b9150613ef282614bfa565b604082019050919050565b6000613f0a602383614525565b9150613f1582614c49565b604082019050919050565b6000613f2d602883614525565b9150613f3882614c98565b604082019050919050565b6000613f50604a83614525565b9150613f5b82614ce7565b606082019050919050565b6000613f73602d83614525565b9150613f7e82614d5c565b604082019050919050565b613f92816145c5565b82525050565b6000613fa48284613c40565b915081905092915050565b6000613fbb8284613c71565b915081905092915050565b6000602082019050613fdb6000830184613aa4565b92915050565b6000602082019050613ff66000830184613a86565b92915050565b600061010082019050614012600083018b613a86565b61401f602083018a613aa4565b61402c6040830189613aa4565b6140396060830188613f89565b6140466080830187613b86565b61405360a0830186613f89565b61406060c0830185613b86565b61406d60e0830184613b86565b9998505050505050505050565b600060608201905061408f6000830186613aa4565b81810360208301526140a18185613c07565b90506140b06040830184613f89565b949350505050565b600060208201905081810360008301526140d28184613ab3565b905092915050565b600060208201905081810360008301526140f48184613b11565b905092915050565b60006020820190506141116000830184613b86565b92915050565b600060408201905061412c6000830185613b86565b818103602083015261413e8184613b95565b90509392505050565b600060208201905081810360008301526141618184613c07565b905092915050565b6000602082019050818103600083015261418281613cf0565b9050919050565b600060208201905081810360008301526141a281613d13565b9050919050565b600060208201905081810360008301526141c281613d36565b9050919050565b600060208201905081810360008301526141e281613d59565b9050919050565b6000602082019050818103600083015261420281613d7c565b9050919050565b6000602082019050818103600083015261422281613d9f565b9050919050565b6000602082019050818103600083015261424281613dc2565b9050919050565b6000602082019050818103600083015261426281613de5565b9050919050565b6000602082019050818103600083015261428281613e08565b9050919050565b600060208201905081810360008301526142a281613e2b565b9050919050565b600060208201905081810360008301526142c281613e4e565b9050919050565b600060208201905081810360008301526142e281613e71565b9050919050565b6000602082019050818103600083015261430281613e94565b9050919050565b6000602082019050818103600083015261432281613eb7565b9050919050565b6000602082019050818103600083015261434281613eda565b9050919050565b6000602082019050818103600083015261436281613efd565b9050919050565b6000602082019050818103600083015261438281613f20565b9050919050565b600060208201905081810360008301526143a281613f43565b9050919050565b600060208201905081810360008301526143c281613f66565b9050919050565b60006020820190506143de6000830184613f89565b92915050565b60006143ee6143ff565b90506143fa8282614643565b919050565b6000604051905090565b600067ffffffffffffffff8211156144245761442361474a565b5b602082029050602081019050919050565b600067ffffffffffffffff8211156144505761444f61474a565b5b61445982614797565b9050602081019050919050565b6000819050602082019050919050565b6000819050602082019050919050565b60008190508160005260206000209050919050565b600081519050919050565b600081519050919050565b600081519050919050565b600081519050919050565b6000602082019050919050565b6000602082019050919050565b600082825260208201905092915050565b600082825260208201905092915050565b600082825260208201905092915050565b600082825260208201905092915050565b600082825260208201905092915050565b600081905092915050565b600061454c826145c5565b9150614557836145c5565b92508282101561456a576145696146bd565b5b828203905092915050565b6000614580826145a5565b9050919050565b6000614592826145a5565b9050919050565b60008115159050919050565b600073ffffffffffffffffffffffffffffffffffffffff82169050919050565b6000819050919050565b82818337600083830152505050565b60005b838110156145fc5780820151818401526020810190506145e1565b8381111561460b576000848401525b50505050565b6000600282049050600182168061462957607f821691505b6020821081141561463d5761463c6146ec565b5b50919050565b61464c82614797565b810181811067ffffffffffffffff8211171561466b5761466a61474a565b5b80604052505050565b600061467f826145c5565b91507fffffffffffffffffffffffffffffffffffffffffffffffffffffffffffffffff8214156146b2576146b16146bd565b5b600182019050919050565b7f4e487b7100000000000000000000000000000000000000000000000000000000600052601160045260246000fd5b7f4e487b7100000000000000000000000000000000000000000000000000000000600052602260045260246000fd5b7f4e487b7100000000000000000000000000000000000000000000000000000000600052603260045260246000fd5b7f4e487b7100000000000000000000000000000000000000000000000000000000600052604160045260246000fd5b600080fd5b600080fd5b600080fd5b600080fd5b600080fd5b600080fd5b6000601f19601f8301169050919050565b7f5468657265206973206e6f206f66666572206173736f6369617465642077697460008201527f6820746869732062757965720000000000000000000000000000000000000000602082015250565b7f54686973206c697374696e6720616c72656164792068617320612066696e616c60008201527f2062757965720000000000000000000000000000000000000000000000000000602082015250565b7f54686973206c697374696e6720646f6573206e6f742065786973740000000000600082015250565b7f546865726520617265206e6f206f66666572732066726f6d207468697320616460008201527f6472657373000000000000000000000000000000000000000000000000000000602082015250565b7f596f7527766520616c7265616479206d61646520616e206f66666572206f6e2060008201527f74686973206c697374696e670000000000000000000000000000000000000000602082015250565b7f54686973206c697374696e6720697320616c726561647920626f756768740000600082015250565b7f596f7572206f6666657220646f6573206e6f74206d65657420746865206d696e60008201527f696d756d206c6973746564207072696365000000000000000000000000000000602082015250565b7f54686973206c697374696e672068617320616c7265616479206265656e20736f60008201527f6c64000000000000000000000000000000000000000000000000000000000000602082015250565b7f43616e27742067657420746865206f6666657220707269636520696e20616e2060008201527f61756374696f6e202d20757365206765745072696365466f725374616e64617260208201527f644c697374696e6720696e737465616400000000000000000000000000000000604082015250565b7f596f752061726520612073656c6c6572206f662074686973206c697374696e6760008201527f2c20796f752063616e6e6f74206d616b6520616e206f66666572000000000000602082015250565b7f546865726520617265206e6f2062757965727320666f7220746869732061756360008201527f74696f6e00000000000000000000000000000000000000000000000000000000602082015250565b7f546f206d616b652061206e6577206f66666572206f6e2074686973206c69737460008201527f696e6720796f75206e65656420746f20656e746572206120686967686572206160208201527f6d6f756e74207468616e20796f75722070726576696f7573206f666665720000604082015250565b7f546865726520697320616c726561647920612066696e616c206275796572206160008201527f73736f63696174656420776974682074686973206c697374696e670000000000602082015250565b7f546865726520697320616c72656164792061206c697374696e67207573696e6760008201527f2074686973204950465320686173680000000000000000000000000000000000602082015250565b7f54686973206164647265737320686173206e6f74206d61646520616e206f666660008201527f657220746f206163636570740000000000000000000000000000000000000000602082015250565b7f4f6e6c79207468652073656c6c65722063616e2061636365707420616e206f6660008201527f6665720000000000000000000000000000000000000000000000000000000000602082015250565b7f4f66666572732063616e206f6e6c7920626520616363657074656420666f722060008201527f61756374696f6e73000000000000000000000000000000000000000000000000602082015250565b7f546865206c697374696e6720697320616e2061756374696f6e20616e6420616e60008201527f206f66666572206861736e2774206265656e20617070726f766564206279207460208201527f6869732077616c6c657400000000000000000000000000000000000000000000604082015250565b7f412066696e616c20627579657220616c72656164792065786973747320666f7260008201527f2074686973206c697374696e6700000000000000000000000000000000000000602082015250565b614db481614575565b8114614dbf57600080fd5b50565b614dcb81614599565b8114614dd657600080fd5b50565b614de2816145c5565b8114614ded57600080fd5b5056fea2646970667358221220291752458ee8f3272739447635b5bbd5bbee94a32211a6f4fe54121df53060d164736f6c63430008070033",
  "immutableReferences": {},
  "source": "// SPDX-License-Identifier: MIT\npragma solidity >=0.4.22 <0.9.0;\n\nimport \"@chainlink/contracts/src/v0.8/KeeperCompatible.sol\";\nimport \"./AccessControl.sol\";\n\n/// @title Listings manages buying and selling of listed items\ncontract Listings is AccessControl, KeeperCompatible {\n    /// @dev used to store information about a Listing\n    struct Listing {\n        address payable sellerAddress;\n        mapping(address => uint256) buyerAddresses;\n        address payable[] buyerAddressesArray;\n        address acceptedBuyer;\n        address finalBuyer;\n        uint256 price;\n        bool priceIsInUSD;\n        uint256 date;\n        bool bought;\n        bool isAuction;\n    }\n\n    /// @dev stores all of the submitted Listings\n    mapping(string => Listing) public listings;\n    /// @dev Also store listings hash as an array in order to loop over later during upkeep\n    string[] public listingsArray;\n\n    /// @dev emitted whenever a new listing is submitted\n    event ListingSubmitted(\n        address sellerAddress,\n        string ipfsHash,\n        uint256 price\n    );\n\n    /// @dev emitted whenever an offer is made on a listing from a seller\n    event OfferMade(address buyerAddress, string ipfsHash, uint256 amount);\n\n    /// @dev emitted whenever an offer is accepted on an auction (only auctions)\n    event OfferAccepted(address buyerAddress, string ipfsHash, uint256 amount);\n\n    /// @dev emitted whenever a buy is confirmed on a listing\n    event BuyConfirmed(address buyerAddress, string ipfsHash, uint256 amount);\n\n    uint256 public lastTimeStamp;\n    uint256 public interval = 604800;\n\n    constructor() {\n        lastTimeStamp = block.timestamp;\n    }\n\n    /// @dev Change the interval used for wiping data\n    function setInterval(uint256 newInterval) public whenNotPaused onlyCLevel {\n        interval = newInterval;\n    }\n\n    /// @dev List an item for sale, where the metadata is stored in IPFS\n    function createListing(\n        string memory ipfsHash,\n        uint256 price,\n        bool isAuction,\n        bool priceIsInUSD\n    ) public payable whenNotPaused {\n        require(\n            listings[ipfsHash].sellerAddress == address(0x0),\n            \"There is already a listing using this IPFS hash\"\n        );\n\n        listings[ipfsHash].sellerAddress = payable(msg.sender);\n        listings[ipfsHash].price = price;\n        listings[ipfsHash].date = block.timestamp;\n        listings[ipfsHash].priceIsInUSD = false;\n        listings[ipfsHash].isAuction = isAuction;\n        listings[ipfsHash].priceIsInUSD = priceIsInUSD;\n        listingsArray.push(ipfsHash);\n\n        emit ListingSubmitted(msg.sender, ipfsHash, price);\n    }\n\n    /// @dev Make an offer to buy a listing\n    /// This works equally for both standard and auction listings\n    function makeOffer(string memory ipfsHash) public payable whenNotPaused {\n        require(\n            listings[ipfsHash].sellerAddress != msg.sender,\n            \"You are a seller of this listing, you cannot make an offer\"\n        );\n        require(\n            listings[ipfsHash].bought == false,\n            \"This listing is already bought\"\n        );\n        require(\n            listings[ipfsHash].finalBuyer == address(0x0),\n            \"There is already a final buyer associated with this listing\"\n        );\n        canMakeNewOffer(ipfsHash);\n        require(\n            listings[ipfsHash].price <= msg.value,\n            \"Your offer does not meet the minimum listed price\"\n        );\n        require(\n            listings[ipfsHash].buyerAddresses[msg.sender] < msg.value,\n            \"To make a new offer on this listing you need to enter a higher amount than your previous offer\"\n        );\n        listings[ipfsHash].buyerAddresses[msg.sender] = msg.value;\n        listings[ipfsHash].buyerAddressesArray.push(payable(msg.sender));\n\n        emit OfferMade(msg.sender, ipfsHash, msg.value);\n    }\n\n    function canMakeNewOffer(string memory ipfsHash) private view {\n        if (listings[ipfsHash].isAuction) {\n            require(\n                listings[ipfsHash].buyerAddresses[msg.sender] < msg.value,\n                \"To make a new offer on this listing you need to enter a higher amount than your previous offer\"\n            );\n        } else {\n            require(\n                listings[ipfsHash].buyerAddresses[msg.sender] == 0,\n                \"You've already made an offer on this listing\"\n            );\n        }\n    }\n\n    /// @dev Confirm a buy has taken place and transfer funds\n    /// If the listing is just a standard price, the buyer can confirm the buy straight away\n    /// If a listing is an auction, the buy can only be confirmed after a seller accepts\n    function confirmBuy(string memory ipfsHash) public whenNotPaused {\n        require(\n            listings[ipfsHash].buyerAddresses[msg.sender] > 0,\n            \"There is no offer associated with this buyer\"\n        );\n        require(\n            listings[ipfsHash].bought == false,\n            \"This listing has already been sold\"\n        );\n        require(\n            listings[ipfsHash].finalBuyer == address(0x0),\n            \"This listing already has a final buyer\"\n        );\n        require(\n            ifAuctionEnsureOfferAccepted(ipfsHash),\n            \"The listing is an auction and an offer hasn't been approved by this wallet\"\n        );\n\n        for (\n            uint256 i = 0;\n            i < listings[ipfsHash].buyerAddressesArray.length;\n            i++\n        ) {\n            if (listings[ipfsHash].buyerAddressesArray[i] != msg.sender) {\n                listings[ipfsHash].buyerAddressesArray[i].transfer(\n                    listings[ipfsHash].price\n                );\n            } else {\n                // Send funds to seller\n                listings[ipfsHash].sellerAddress.transfer(\n                    listings[ipfsHash].price\n                );\n            }\n        }\n\n        listings[ipfsHash].bought = true;\n        listings[ipfsHash].finalBuyer = msg.sender;\n\n        emit BuyConfirmed(\n            msg.sender,\n            ipfsHash,\n            listings[ipfsHash].buyerAddresses[msg.sender]\n        );\n    }\n\n    function acceptOffer(string memory ipfsHash, address buyerToAccept)\n        public\n        whenNotPaused\n    {\n        require(\n            listings[ipfsHash].isAuction == true,\n            \"Offers can only be accepted for auctions\"\n        );\n        require(\n            listings[ipfsHash].sellerAddress == msg.sender,\n            \"Only the seller can accept an offer\"\n        );\n        require(\n            listings[ipfsHash].finalBuyer == address(0x0),\n            \"A final buyer already exists for this listing\"\n        );\n        require(\n            listings[ipfsHash].buyerAddresses[buyerToAccept] > 0,\n            \"This address has not made an offer to accept\"\n        );\n\n        listings[ipfsHash].acceptedBuyer = buyerToAccept;\n\n        emit OfferAccepted(\n            msg.sender,\n            ipfsHash,\n            listings[ipfsHash].buyerAddresses[buyerToAccept]\n        );\n    }\n\n    function ifAuctionEnsureOfferAccepted(string memory ipfsHash)\n        private\n        view\n        returns (bool)\n    {\n        if (!listings[ipfsHash].isAuction) return true;\n        if (listings[ipfsHash].acceptedBuyer == msg.sender) return true;\n        return false;\n    }\n\n    /// @dev Called during performUpkeep to empty unused funds\n    function removeListing(string memory ipfsHash) private {\n        for (\n            uint256 i = 0;\n            i < listings[ipfsHash].buyerAddressesArray.length;\n            i++\n        ) {\n            listings[ipfsHash].buyerAddressesArray[i].transfer(\n                listings[ipfsHash].price\n            );\n        }\n\n        listings[ipfsHash].bought = true;\n    }\n\n    function checkUpkeep(\n        bytes calldata /* checkData */\n    )\n        external\n        view\n        override\n        returns (bool upkeepNeeded, bytes memory performData)\n    {\n        string[] memory listingsToRemove = new string[](listingsArray.length);\n\n        bool updateNeeded = false;\n        for (uint256 i = 0; i < listingsArray.length; i++) {\n            if (checkDateIsOlderThanInterval(listings[listingsArray[i]].date)) {\n                listingsToRemove[i] = listingsArray[i];\n                updateNeeded = true;\n            }\n        }\n\n        if (updateNeeded) {\n            performData = abi.encode(listingsToRemove);\n            return (true, performData);\n        } else {\n            string[] memory emptyListing;\n            performData = abi.encode(emptyListing);\n            return (false, performData);\n        }\n    }\n\n    function performUpkeep(bytes calldata performData) external override {\n        string[] memory decodedValue = abi.decode(performData, (string[]));\n\n        for (uint256 i = 0; i < decodedValue.length; i++) {\n            if (checkDateIsOlderThanInterval(listings[decodedValue[i]].date)) {\n                removeListing(decodedValue[i]);\n            }\n        }\n    }\n\n    /// @dev Ascertain whether a date is older than the interval (i.e. that it's two weeks old compared to current blocktime)\n    function checkDateIsOlderThanInterval(uint256 date)\n        private\n        view\n        returns (bool)\n    {\n        return date < block.timestamp - interval;\n    }\n\n    function getListingsArray() public view returns (string[] memory) {\n        string[] memory allListings = new string[](listingsArray.length);\n        for (uint256 i = 0; i < listingsArray.length; i++) {\n            allListings[i] = listingsArray[i];\n        }\n        return allListings;\n    }\n\n    function getBuyersForListing(string memory ipfsHash)\n        public\n        view\n        returns (address[] memory)\n    {\n        require(\n            listings[ipfsHash].sellerAddress != address(0x0),\n            \"This listing does not exist\"\n        );\n\n        address[] memory buyerAddresses = new address[](\n            listings[ipfsHash].buyerAddressesArray.length\n        );\n        for (\n            uint256 i = 0;\n            i < listings[ipfsHash].buyerAddressesArray.length;\n            i++\n        ) {\n            buyerAddresses[i] = listings[ipfsHash].buyerAddressesArray[i];\n        }\n        return buyerAddresses;\n    }\n\n    function getPriceForListing(string memory ipfsHash)\n        public\n        view\n        returns (uint256)\n    {\n        require(\n            listings[ipfsHash].sellerAddress != address(0x0),\n            \"This listing does not exist\"\n        );\n\n        uint256 price = listings[ipfsHash].price;\n        return price;\n    }\n\n    function getHighestBuyerForAuction(string memory ipfsHash)\n        public\n        view\n        returns (address)\n    {\n        require(\n            listings[ipfsHash].sellerAddress != address(0x0),\n            \"This listing does not exist\"\n        );\n        require(\n            listings[ipfsHash].buyerAddressesArray.length > 0,\n            \"There are no buyers for this auction\"\n        );\n        address highestBuyer;\n        uint256 highestBid = getHighestAmountForAuction(ipfsHash);\n\n        for (\n            uint256 i = 0;\n            i < listings[ipfsHash].buyerAddressesArray.length;\n            i++\n        ) {\n            if (\n                listings[ipfsHash].buyerAddresses[\n                    listings[ipfsHash].buyerAddressesArray[i]\n                ] == highestBid\n            ) {\n                highestBuyer = listings[ipfsHash].buyerAddressesArray[i];\n            }\n        }\n        return highestBuyer;\n    }\n\n    function getHighestAmountForAuction(string memory ipfsHash)\n        public\n        view\n        returns (uint256)\n    {\n        require(\n            listings[ipfsHash].sellerAddress != address(0x0),\n            \"This listing does not exist\"\n        );\n        require(\n            listings[ipfsHash].buyerAddressesArray.length > 0,\n            \"There are no buyers for this auction\"\n        );\n\n        uint256 highestBid = listings[ipfsHash].price;\n        for (\n            uint256 i = 0;\n            i < listings[ipfsHash].buyerAddressesArray.length;\n            i++\n        ) {\n            if (\n                listings[ipfsHash].buyerAddresses[\n                    listings[ipfsHash].buyerAddressesArray[i]\n                ] > highestBid\n            ) {\n                highestBid = listings[ipfsHash].buyerAddresses[\n                    listings[ipfsHash].buyerAddressesArray[i]\n                ];\n            }\n        }\n        return highestBid;\n    }\n\n    function getOfferForBuyerInAuction(string memory ipfsHash, address buyer)\n        public\n        view\n        returns (uint256)\n    {\n        require(\n            listings[ipfsHash].sellerAddress != address(0x0),\n            \"This listing does not exist\"\n        );\n        require(\n            listings[ipfsHash].isAuction == true,\n            \"Can't get the offer price in an auction - use getPriceForStandardListing instead\"\n        );\n\n        require(\n            listings[ipfsHash].buyerAddresses[buyer] != 0,\n            \"There are no offers from this address\"\n        );\n\n        uint256 offer = listings[ipfsHash].buyerAddresses[buyer];\n        return offer;\n    }\n\n    function getSellerForListing(string memory ipfsHash)\n        public\n        view\n        returns (address)\n    {\n        require(\n            listings[ipfsHash].sellerAddress != address(0x0),\n            \"This listing does not exist\"\n        );\n\n        address sellerAddress = listings[ipfsHash].sellerAddress;\n        return sellerAddress;\n    }\n\n    function getDateForListing(string memory ipfsHash)\n        public\n        view\n        returns (uint256)\n    {\n        require(\n            listings[ipfsHash].sellerAddress != address(0x0),\n            \"This listing does not exist\"\n        );\n\n        uint256 date = listings[ipfsHash].date;\n        return date;\n    }\n\n    function getBoughtForListing(string memory ipfsHash)\n        public\n        view\n        returns (bool)\n    {\n        require(\n            listings[ipfsHash].sellerAddress != address(0x0),\n            \"This listing does not exist\"\n        );\n\n        bool bought = listings[ipfsHash].bought;\n        return bought;\n    }\n\n    function getIsAuction(string memory ipfsHash) public view returns (bool) {\n        require(\n            listings[ipfsHash].sellerAddress != address(0x0),\n            \"This listing does not exist\"\n        );\n        bool isAuction = listings[ipfsHash].isAuction;\n        return isAuction;\n    }\n\n    /// @dev this method calls selfdestruct() and removes the contract from the blockchain.\n    function kill() public onlyCEO whenNotPaused {\n        selfdestruct(ceoAddress);\n    }\n}\n",
  "sourcePath": "/Users/berniesnell/Blockchain/barrio/fe-barrio/contracts/Listings.sol",
  "compiler": {
    "name": "solc",
    "version": "0.8.7+commit.e28d00a7.Emscripten.clang"
  },
  "schemaVersion": "3.4.7",
  "updatedAt": "2022-05-20T11:24:18.109Z",
  "devdoc": {
    "events": {
      "BuyConfirmed(address,string,uint256)": {
        "details": "emitted whenever a buy is confirmed on a listing"
      },
      "ListingSubmitted(address,string,uint256)": {
        "details": "emitted whenever a new listing is submitted"
      },
      "OfferAccepted(address,string,uint256)": {
        "details": "emitted whenever an offer is accepted on an auction (only auctions)"
      },
      "OfferMade(address,string,uint256)": {
        "details": "emitted whenever an offer is made on a listing from a seller"
      }
    },
    "kind": "dev",
    "methods": {
      "confirmBuy(string)": {
        "details": "Confirm a buy has taken place and transfer funds If the listing is just a standard price, the buyer can confirm the buy straight away If a listing is an auction, the buy can only be confirmed after a seller accepts"
      },
      "createListing(string,uint256,bool,bool)": {
        "details": "List an item for sale, where the metadata is stored in IPFS"
      },
      "kill()": {
        "details": "this method calls selfdestruct() and removes the contract from the blockchain."
      },
      "makeOffer(string)": {
        "details": "Make an offer to buy a listing This works equally for both standard and auction listings"
      },
      "pause()": {
        "details": "Called by any \"C-level\" role to pause the contract. Used only when  a bug or exploit is detected and we need to limit damage."
      },
      "performUpkeep(bytes)": {
        "details": "The input to this method should not be trusted, and the caller of the method should not even be restricted to any single registry. Anyone should be able call it, and the input should be validated, there is no guarantee that the data passed in is the performData returned from checkUpkeep. This could happen due to malicious keepers, racing keepers, or simply a state change while the performUpkeep transaction is waiting for confirmation. Always validate the data passed in.",
        "params": {
          "performData": "is the data which was passed back from the checkData simulation. If it is encoded, it can easily be decoded into other types by calling `abi.decode`. This data should not be trusted, and should be validated against the contract's current state."
        }
      },
      "setCEO(address)": {
        "details": "Assigns a new address to act as the CEO. Only available to the current CEO.",
        "params": {
          "_newCEO": "The address of the new CEO"
        }
      },
      "setCFO(address)": {
        "details": "Assigns a new address to act as the CFO. Only available to the current CEO.",
        "params": {
          "_newCFO": "The address of the new CFO"
        }
      },
      "setCOO(address)": {
        "details": "Assigns a new address to act as the COO. Only available to the current CEO.",
        "params": {
          "_newCOO": "The address of the new COO"
        }
      },
      "setInterval(uint256)": {
        "details": "Change the interval used for wiping data"
      },
      "unpause()": {
        "details": "Unpauses the smart contract. Can only be called by the CEO, since  one reason we may pause the contract is when CFO or COO accounts are  compromised."
      }
    },
    "stateVariables": {
      "listings": {
        "details": "stores all of the submitted Listings"
      },
      "listingsArray": {
        "details": "Also store listings hash as an array in order to loop over later during upkeep"
      }
    },
    "title": "Listings manages buying and selling of listed items",
    "version": 1
  },
  "userdoc": {
    "kind": "user",
    "methods": {
      "performUpkeep(bytes)": {
        "notice": "method that is actually executed by the keepers, via the registry. The data returned by the checkUpkeep simulation will be passed into this method to actually be executed."
      },
      "unpause()": {
        "notice": "This is public rather than external so it can be called by  derived contracts."
      }
    },
    "version": 1
  }
}