{
  "contractName": "Ratings",
  "abi": [
    {
      "inputs": [
        {
          "internalType": "address",
          "name": "_listingsContract",
          "type": "address"
        }
      ],
      "stateMutability": "nonpayable",
      "type": "constructor"
    },
    {
      "anonymous": false,
      "inputs": [
        {
          "indexed": false,
          "internalType": "address",
          "name": "newContract",
          "type": "address"
        }
      ],
      "name": "ContractUpgrade",
      "type": "event"
    },
    {
      "anonymous": false,
      "inputs": [
        {
          "indexed": false,
          "internalType": "string",
          "name": "ipfsHash",
          "type": "string"
        },
        {
          "indexed": false,
          "internalType": "uint256",
          "name": "rating",
          "type": "uint256"
        }
      ],
      "name": "RatingRecieved",
      "type": "event"
    },
    {
      "inputs": [
        {
          "internalType": "address",
          "name": "",
          "type": "address"
        },
        {
          "internalType": "uint256",
          "name": "",
          "type": "uint256"
        }
      ],
      "name": "buyerRatings",
      "outputs": [
        {
          "internalType": "uint256",
          "name": "",
          "type": "uint256"
        }
      ],
      "stateMutability": "view",
      "type": "function"
    },
    {
      "inputs": [],
      "name": "ceoAddress",
      "outputs": [
        {
          "internalType": "address payable",
          "name": "",
          "type": "address"
        }
      ],
      "stateMutability": "view",
      "type": "function"
    },
    {
      "inputs": [],
      "name": "cfoAddress",
      "outputs": [
        {
          "internalType": "address",
          "name": "",
          "type": "address"
        }
      ],
      "stateMutability": "view",
      "type": "function"
    },
    {
      "inputs": [],
      "name": "cooAddress",
      "outputs": [
        {
          "internalType": "address",
          "name": "",
          "type": "address"
        }
      ],
      "stateMutability": "view",
      "type": "function"
    },
    {
      "inputs": [],
      "name": "listingsContract",
      "outputs": [
        {
          "internalType": "contract Listings",
          "name": "",
          "type": "address"
        }
      ],
      "stateMutability": "view",
      "type": "function"
    },
    {
      "inputs": [],
      "name": "pause",
      "outputs": [],
      "stateMutability": "nonpayable",
      "type": "function"
    },
    {
      "inputs": [],
      "name": "paused",
      "outputs": [
        {
          "internalType": "bool",
          "name": "",
          "type": "bool"
        }
      ],
      "stateMutability": "view",
      "type": "function"
    },
    {
      "inputs": [
        {
          "internalType": "string",
          "name": "",
          "type": "string"
        }
      ],
      "name": "ratedIpfsListingsForSeller",
      "outputs": [
        {
          "internalType": "bool",
          "name": "",
          "type": "bool"
        }
      ],
      "stateMutability": "view",
      "type": "function"
    },
    {
      "inputs": [
        {
          "internalType": "string",
          "name": "",
          "type": "string"
        }
      ],
      "name": "ratedIpfsListingsListingsForBuyer",
      "outputs": [
        {
          "internalType": "bool",
          "name": "",
          "type": "bool"
        }
      ],
      "stateMutability": "view",
      "type": "function"
    },
    {
      "inputs": [
        {
          "internalType": "address",
          "name": "",
          "type": "address"
        },
        {
          "internalType": "uint256",
          "name": "",
          "type": "uint256"
        }
      ],
      "name": "sellerRatings",
      "outputs": [
        {
          "internalType": "uint256",
          "name": "",
          "type": "uint256"
        }
      ],
      "stateMutability": "view",
      "type": "function"
    },
    {
      "inputs": [
        {
          "internalType": "address",
          "name": "_newCEO",
          "type": "address"
        }
      ],
      "name": "setCEO",
      "outputs": [],
      "stateMutability": "nonpayable",
      "type": "function"
    },
    {
      "inputs": [
        {
          "internalType": "address",
          "name": "_newCFO",
          "type": "address"
        }
      ],
      "name": "setCFO",
      "outputs": [],
      "stateMutability": "nonpayable",
      "type": "function"
    },
    {
      "inputs": [
        {
          "internalType": "address",
          "name": "_newCOO",
          "type": "address"
        }
      ],
      "name": "setCOO",
      "outputs": [],
      "stateMutability": "nonpayable",
      "type": "function"
    },
    {
      "inputs": [],
      "name": "unpause",
      "outputs": [],
      "stateMutability": "nonpayable",
      "type": "function"
    },
    {
      "inputs": [
        {
          "internalType": "string",
          "name": "ipfsHash",
          "type": "string"
        },
        {
          "internalType": "uint256",
          "name": "rating",
          "type": "uint256"
        }
      ],
      "name": "leaveSellerRating",
      "outputs": [],
      "stateMutability": "nonpayable",
      "type": "function"
    },
    {
      "inputs": [
        {
          "internalType": "string",
          "name": "ipfsHash",
          "type": "string"
        },
        {
          "internalType": "uint256",
          "name": "rating",
          "type": "uint256"
        }
      ],
      "name": "leaveBuyerRating",
      "outputs": [],
      "stateMutability": "nonpayable",
      "type": "function"
    },
    {
      "inputs": [
        {
          "internalType": "string",
          "name": "ipfsHash",
          "type": "string"
        }
      ],
      "name": "sellerRatingAvailable",
      "outputs": [
        {
          "internalType": "bool",
          "name": "",
          "type": "bool"
        }
      ],
      "stateMutability": "view",
      "type": "function"
    },
    {
      "inputs": [
        {
          "internalType": "string",
          "name": "ipfsHash",
          "type": "string"
        }
      ],
      "name": "buyerRatingAvailable",
      "outputs": [
        {
          "internalType": "bool",
          "name": "",
          "type": "bool"
        }
      ],
      "stateMutability": "view",
      "type": "function"
    },
    {
      "inputs": [
        {
          "internalType": "address",
          "name": "seller",
          "type": "address"
        }
      ],
      "name": "getSellerRatings",
      "outputs": [
        {
          "internalType": "uint256[]",
          "name": "",
          "type": "uint256[]"
        }
      ],
      "stateMutability": "view",
      "type": "function"
    },
    {
      "inputs": [
        {
          "internalType": "address",
          "name": "seller",
          "type": "address"
        }
      ],
      "name": "getBuyerRatings",
      "outputs": [
        {
          "internalType": "uint256[]",
          "name": "",
          "type": "uint256[]"
        }
      ],
      "stateMutability": "view",
      "type": "function"
    }
  ],
  "bytecode": "0x60806040526000600260146101000a81548160ff0219169083151502179055503480156200002c57600080fd5b506040516200259d3803806200259d8339818101604052810190620000529190620000f1565b336000806101000a81548173ffffffffffffffffffffffffffffffffffffffff021916908373ffffffffffffffffffffffffffffffffffffffff16021790555080600760006101000a81548173ffffffffffffffffffffffffffffffffffffffff021916908373ffffffffffffffffffffffffffffffffffffffff1602179055505062000176565b600081519050620000eb816200015c565b92915050565b6000602082840312156200010a576200010962000157565b5b60006200011a84828501620000da565b91505092915050565b6000620001308262000137565b9050919050565b600073ffffffffffffffffffffffffffffffffffffffff82169050919050565b600080fd5b620001678162000123565b81146200017357600080fd5b50565b61241780620001866000396000f3fe608060405234801561001057600080fd5b506004361061012c5760003560e01c80635c975abb116100ad578063b047fb5011610071578063b047fb5014610331578063b3ed10ff1461034f578063bb09d1ec1461036b578063d11dc87c1461039b578063ece1657f146103b75761012c565b80635c975abb1461028b57806377966776146102a957806382f3ec63146102c75780638456cb59146102f7578063af8c44e5146103015761012c565b80632ba73c15116100f45780632ba73c15146101e957806334c26b57146102055780633a92e56c146102355780633f4ba83a146102655780634e0a33791461026f5761012c565b80630519ce79146101315780630a0f81681461014f5780630f90d6d71461016d57806317b3e8d21461019d57806327d7874c146101cd575b600080fd5b6101396103e7565b6040516101469190611c61565b60405180910390f35b61015761040d565b6040516101649190611c7c565b60405180910390f35b610187600480360381019061018291906118f0565b610431565b6040516101949190611e61565b60405180910390f35b6101b760048036038101906101b29190611930565b610462565b6040516101c49190611cb9565b60405180910390f35b6101e760048036038101906101e291906117f9565b610498565b005b61020360048036038101906101fe91906117f9565b61056d565b005b61021f600480360381019061021a91906117f9565b610643565b60405161022c9190611c97565b60405180910390f35b61024f600480360381019061024a9190611930565b6107b9565b60405161025c9190611cb9565b60405180910390f35b61026d6108b0565b005b610289600480360381019061028491906117f9565b61093e565b005b610293610a14565b6040516102a09190611cb9565b60405180910390f35b6102b1610a27565b6040516102be9190611cd4565b60405180910390f35b6102e160048036038101906102dc9190611930565b610a4d565b6040516102ee9190611cb9565b60405180910390f35b6102ff610b44565b005b61031b600480360381019061031691906118f0565b610c83565b6040516103289190611e61565b60405180910390f35b610339610cb4565b6040516103469190611c61565b60405180910390f35b61036960048036038101906103649190611979565b610cda565b005b61038560048036038101906103809190611930565b611136565b6040516103929190611cb9565b60405180910390f35b6103b560048036038101906103b09190611979565b61116c565b005b6103d160048036038101906103cc91906117f9565b611595565b6040516103de9190611c97565b60405180910390f35b600160009054906101000a900473ffffffffffffffffffffffffffffffffffffffff1681565b60008054906101000a900473ffffffffffffffffffffffffffffffffffffffff1681565b6003602052816000526040600020818154811061044d57600080fd5b90600052602060002001600091509150505481565b6005818051602081018201805184825260208301602085012081835280955050505050506000915054906101000a900460ff1681565b60008054906101000a900473ffffffffffffffffffffffffffffffffffffffff1673ffffffffffffffffffffffffffffffffffffffff163373ffffffffffffffffffffffffffffffffffffffff16146104f057600080fd5b600073ffffffffffffffffffffffffffffffffffffffff168173ffffffffffffffffffffffffffffffffffffffff16141561052a57600080fd5b806000806101000a81548173ffffffffffffffffffffffffffffffffffffffff021916908373ffffffffffffffffffffffffffffffffffffffff16021790555050565b60008054906101000a900473ffffffffffffffffffffffffffffffffffffffff1673ffffffffffffffffffffffffffffffffffffffff163373ffffffffffffffffffffffffffffffffffffffff16146105c557600080fd5b600073ffffffffffffffffffffffffffffffffffffffff168173ffffffffffffffffffffffffffffffffffffffff1614156105ff57600080fd5b80600260006101000a81548173ffffffffffffffffffffffffffffffffffffffff021916908373ffffffffffffffffffffffffffffffffffffffff16021790555050565b60606000600360008473ffffffffffffffffffffffffffffffffffffffff1673ffffffffffffffffffffffffffffffffffffffff1681526020019081526020016000208054905067ffffffffffffffff8111156106a3576106a26120dc565b5b6040519080825280602002602001820160405280156106d15781602001602082028036833780820191505090505b50905060005b600360008573ffffffffffffffffffffffffffffffffffffffff1673ffffffffffffffffffffffffffffffffffffffff168152602001908152602001600020805490508110156107af57600360008573ffffffffffffffffffffffffffffffffffffffff1673ffffffffffffffffffffffffffffffffffffffff1681526020019081526020016000208181548110610772576107716120ad565b5b90600052602060002001548282815181106107905761078f6120ad565b5b60200260200101818152505080806107a790612035565b9150506106d7565b5080915050919050565b600080600760009054906101000a900473ffffffffffffffffffffffffffffffffffffffff1673ffffffffffffffffffffffffffffffffffffffff166377dec6c3846040518263ffffffff1660e01b81526004016108179190611cef565b6101206040518083038186803b15801561083057600080fd5b505afa158015610844573d6000803e3d6000fd5b505050506040513d601f19601f820116820180604052508101906108689190611826565b505096505050505050506006836040516108829190611c4a565b908152602001604051809103902060009054906101000a900460ff161580156108a85750805b915050919050565b60008054906101000a900473ffffffffffffffffffffffffffffffffffffffff1673ffffffffffffffffffffffffffffffffffffffff163373ffffffffffffffffffffffffffffffffffffffff161461090857600080fd5b600260149054906101000a900460ff1661092157600080fd5b6000600260146101000a81548160ff021916908315150217905550565b60008054906101000a900473ffffffffffffffffffffffffffffffffffffffff1673ffffffffffffffffffffffffffffffffffffffff163373ffffffffffffffffffffffffffffffffffffffff161461099657600080fd5b600073ffffffffffffffffffffffffffffffffffffffff168173ffffffffffffffffffffffffffffffffffffffff1614156109d057600080fd5b80600160006101000a81548173ffffffffffffffffffffffffffffffffffffffff021916908373ffffffffffffffffffffffffffffffffffffffff16021790555050565b600260149054906101000a900460ff1681565b600760009054906101000a900473ffffffffffffffffffffffffffffffffffffffff1681565b600080600760009054906101000a900473ffffffffffffffffffffffffffffffffffffffff1673ffffffffffffffffffffffffffffffffffffffff166377dec6c3846040518263ffffffff1660e01b8152600401610aab9190611cef565b6101206040518083038186803b158015610ac457600080fd5b505afa158015610ad8573d6000803e3d6000fd5b505050506040513d601f19601f82011682018060405250810190610afc9190611826565b50509650505050505050600583604051610b169190611c4a565b908152602001604051809103902060009054906101000a900460ff16158015610b3c5750805b915050919050565b600260009054906101000a900473ffffffffffffffffffffffffffffffffffffffff1673ffffffffffffffffffffffffffffffffffffffff163373ffffffffffffffffffffffffffffffffffffffff161480610beb575060008054906101000a900473ffffffffffffffffffffffffffffffffffffffff1673ffffffffffffffffffffffffffffffffffffffff163373ffffffffffffffffffffffffffffffffffffffff16145b80610c435750600160009054906101000a900473ffffffffffffffffffffffffffffffffffffffff1673ffffffffffffffffffffffffffffffffffffffff163373ffffffffffffffffffffffffffffffffffffffff16145b610c4c57600080fd5b600260149054906101000a900460ff1615610c6657600080fd5b6001600260146101000a81548160ff021916908315150217905550565b60046020528160005260406000208181548110610c9f57600080fd5b90600052602060002001600091509150505481565b600260009054906101000a900473ffffffffffffffffffffffffffffffffffffffff1681565b600080600080600760009054906101000a900473ffffffffffffffffffffffffffffffffffffffff1673ffffffffffffffffffffffffffffffffffffffff166377dec6c3876040518263ffffffff1660e01b8152600401610d3b9190611cef565b6101206040518083038186803b158015610d5457600080fd5b505afa158015610d68573d6000803e3d6000fd5b505050506040513d601f19601f82011682018060405250810190610d8c9190611826565b98505097505050509450509350600073ffffffffffffffffffffffffffffffffffffffff168473ffffffffffffffffffffffffffffffffffffffff161415610e09576040517f08c379a0000000000000000000000000000000000000000000000000000000008152600401610e0090611d61565b60405180910390fd5b6001151582151514610e50576040517f08c379a0000000000000000000000000000000000000000000000000000000008152600401610e4790611de1565b60405180910390fd5b3373ffffffffffffffffffffffffffffffffffffffff168373ffffffffffffffffffffffffffffffffffffffff1614610ebe576040517f08c379a0000000000000000000000000000000000000000000000000000000008152600401610eb590611d81565b60405180910390fd5b60001515600587604051610ed29190611c4a565b908152602001604051809103902060009054906101000a900460ff16151514610f30576040517f08c379a0000000000000000000000000000000000000000000000000000000008152600401610f2790611da1565b60405180910390fd5b6000851015610f74576040517f08c379a0000000000000000000000000000000000000000000000000000000008152600401610f6b90611e41565b60405180910390fd5b6005851115610fb8576040517f08c379a0000000000000000000000000000000000000000000000000000000008152600401610faf90611e01565b60405180910390fd5b7f2915d904a76bb5c15878cc65ed391de2614bd01b8af92c87c3f73e0f0a5df3388686604051610fe9929190611d11565b60405180910390a160016005876040516110039190611c4a565b908152602001604051809103902060006101000a81548160ff021916908315150217905550600073ffffffffffffffffffffffffffffffffffffffff168173ffffffffffffffffffffffffffffffffffffffff16146110c757600360008273ffffffffffffffffffffffffffffffffffffffff1673ffffffffffffffffffffffffffffffffffffffff16815260200190815260200160002085908060018154018082558091505060019003906000526020600020016000909190919091505561112e565b600360008573ffffffffffffffffffffffffffffffffffffffff1673ffffffffffffffffffffffffffffffffffffffff1681526020019081526020016000208590806001815401808255809150506001900390600052602060002001600090919091909150555b505050505050565b6006818051602081018201805184825260208301602085012081835280955050505050506000915054906101000a900460ff1681565b6000806000600760009054906101000a900473ffffffffffffffffffffffffffffffffffffffff1673ffffffffffffffffffffffffffffffffffffffff166377dec6c3866040518263ffffffff1660e01b81526004016111cc9190611cef565b6101206040518083038186803b1580156111e557600080fd5b505afa1580156111f9573d6000803e3d6000fd5b505050506040513d601f19601f8201168201806040525081019061121d9190611826565b505096505050509350509250600073ffffffffffffffffffffffffffffffffffffffff168373ffffffffffffffffffffffffffffffffffffffff161415611299576040517f08c379a000000000000000000000000000000000000000000000000000000000815260040161129090611d61565b60405180910390fd5b600073ffffffffffffffffffffffffffffffffffffffff168273ffffffffffffffffffffffffffffffffffffffff161415611309576040517f08c379a000000000000000000000000000000000000000000000000000000000815260040161130090611dc1565b60405180910390fd5b6001151581151514611350576040517f08c379a000000000000000000000000000000000000000000000000000000000815260040161134790611de1565b60405180910390fd5b3373ffffffffffffffffffffffffffffffffffffffff168373ffffffffffffffffffffffffffffffffffffffff16146113be576040517f08c379a00000000000000000000000000000000000000000000000000000000081526004016113b590611e21565b60405180910390fd5b600015156006866040516113d29190611c4a565b908152602001604051809103902060009054906101000a900460ff16151514611430576040517f08c379a000000000000000000000000000000000000000000000000000000000815260040161142790611d41565b60405180910390fd5b6000841015611474576040517f08c379a000000000000000000000000000000000000000000000000000000000815260040161146b90611e41565b60405180910390fd5b60058411156114b8576040517f08c379a00000000000000000000000000000000000000000000000000000000081526004016114af90611e01565b60405180910390fd5b60016006866040516114ca9190611c4a565b908152602001604051809103902060006101000a81548160ff021916908315150217905550600460008373ffffffffffffffffffffffffffffffffffffffff1673ffffffffffffffffffffffffffffffffffffffff1681526020019081526020016000208490806001815401808255809150506001900390600052602060002001600090919091909150557f2915d904a76bb5c15878cc65ed391de2614bd01b8af92c87c3f73e0f0a5df3388585604051611586929190611d11565b60405180910390a15050505050565b60606000600460008473ffffffffffffffffffffffffffffffffffffffff1673ffffffffffffffffffffffffffffffffffffffff1681526020019081526020016000208054905067ffffffffffffffff8111156115f5576115f46120dc565b5b6040519080825280602002602001820160405280156116235781602001602082028036833780820191505090505b50905060005b600460008573ffffffffffffffffffffffffffffffffffffffff1673ffffffffffffffffffffffffffffffffffffffff1681526020019081526020016000208054905081101561170157600460008573ffffffffffffffffffffffffffffffffffffffff1673ffffffffffffffffffffffffffffffffffffffff16815260200190815260200160002081815481106116c4576116c36120ad565b5b90600052602060002001548282815181106116e2576116e16120ad565b5b60200260200101818152505080806116f990612035565b915050611629565b5080915050919050565b600061171e61171984611ea1565b611e7c565b90508281526020810184848401111561173a57611739612110565b5b611745848285611fc2565b509392505050565b60008135905061175c81612385565b92915050565b60008151905061177181612385565b92915050565b6000815190506117868161239c565b92915050565b60008151905061179b816123b3565b92915050565b600082601f8301126117b6576117b561210b565b5b81356117c684826020860161170b565b91505092915050565b6000813590506117de816123ca565b92915050565b6000815190506117f3816123ca565b92915050565b60006020828403121561180f5761180e61211a565b5b600061181d8482850161174d565b91505092915050565b60008060008060008060008060006101208a8c0312156118495761184861211a565b5b60006118578c828d01611777565b99505060206118688c828d01611762565b98505060406118798c828d01611762565b975050606061188a8c828d016117e4565b965050608061189b8c828d0161178c565b95505060a06118ac8c828d016117e4565b94505060c06118bd8c828d0161178c565b93505060e06118ce8c828d0161178c565b9250506101006118e08c828d01611777565b9150509295985092959850929598565b600080604083850312156119075761190661211a565b5b60006119158582860161174d565b9250506020611926858286016117cf565b9150509250929050565b6000602082840312156119465761194561211a565b5b600082013567ffffffffffffffff81111561196457611963612115565b5b611970848285016117a1565b91505092915050565b600080604083850312156119905761198f61211a565b5b600083013567ffffffffffffffff8111156119ae576119ad612115565b5b6119ba858286016117a1565b92505060206119cb858286016117cf565b9150509250929050565b60006119e18383611c2c565b60208301905092915050565b6119f681611f44565b82525050565b611a0581611f32565b82525050565b6000611a1682611ee2565b611a208185611f05565b9350611a2b83611ed2565b8060005b83811015611a5c578151611a4388826119d5565b9750611a4e83611ef8565b925050600181019050611a2f565b5085935050505092915050565b611a7281611f56565b82525050565b611a8181611f8c565b82525050565b6000611a9282611eed565b611a9c8185611f16565b9350611aac818560208601611fd1565b611ab58161211f565b840191505092915050565b6000611acb82611eed565b611ad58185611f27565b9350611ae5818560208601611fd1565b80840191505092915050565b6000611afe603c83611f16565b9150611b0982612130565b604082019050919050565b6000611b21601b83611f16565b9150611b2c8261217f565b602082019050919050565b6000611b44602f83611f16565b9150611b4f826121a8565b604082019050919050565b6000611b67603d83611f16565b9150611b72826121f7565b604082019050919050565b6000611b8a602b83611f16565b9150611b9582612246565b604082019050919050565b6000611bad603383611f16565b9150611bb882612295565b604082019050919050565b6000611bd0601983611f16565b9150611bdb826122e4565b602082019050919050565b6000611bf3603183611f16565b9150611bfe8261230d565b604082019050919050565b6000611c16601c83611f16565b9150611c218261235c565b602082019050919050565b611c3581611f82565b82525050565b611c4481611f82565b82525050565b6000611c568284611ac0565b915081905092915050565b6000602082019050611c7660008301846119fc565b92915050565b6000602082019050611c9160008301846119ed565b92915050565b60006020820190508181036000830152611cb18184611a0b565b905092915050565b6000602082019050611cce6000830184611a69565b92915050565b6000602082019050611ce96000830184611a78565b92915050565b60006020820190508181036000830152611d098184611a87565b905092915050565b60006040820190508181036000830152611d2b8185611a87565b9050611d3a6020830184611c3b565b9392505050565b60006020820190508181036000830152611d5a81611af1565b9050919050565b60006020820190508181036000830152611d7a81611b14565b9050919050565b60006020820190508181036000830152611d9a81611b37565b9050919050565b60006020820190508181036000830152611dba81611b5a565b9050919050565b60006020820190508181036000830152611dda81611b7d565b9050919050565b60006020820190508181036000830152611dfa81611ba0565b9050919050565b60006020820190508181036000830152611e1a81611bc3565b9050919050565b60006020820190508181036000830152611e3a81611be6565b9050919050565b60006020820190508181036000830152611e5a81611c09565b9050919050565b6000602082019050611e766000830184611c3b565b92915050565b6000611e86611e97565b9050611e928282612004565b919050565b6000604051905090565b600067ffffffffffffffff821115611ebc57611ebb6120dc565b5b611ec58261211f565b9050602081019050919050565b6000819050602082019050919050565b600081519050919050565b600081519050919050565b6000602082019050919050565b600082825260208201905092915050565b600082825260208201905092915050565b600081905092915050565b6000611f3d82611f62565b9050919050565b6000611f4f82611f62565b9050919050565b60008115159050919050565b600073ffffffffffffffffffffffffffffffffffffffff82169050919050565b6000819050919050565b6000611f9782611f9e565b9050919050565b6000611fa982611fb0565b9050919050565b6000611fbb82611f62565b9050919050565b82818337600083830152505050565b60005b83811015611fef578082015181840152602081019050611fd4565b83811115611ffe576000848401525b50505050565b61200d8261211f565b810181811067ffffffffffffffff8211171561202c5761202b6120dc565b5b80604052505050565b600061204082611f82565b91507fffffffffffffffffffffffffffffffffffffffffffffffffffffffffffffffff8214156120735761207261207e565b5b600182019050919050565b7f4e487b7100000000000000000000000000000000000000000000000000000000600052601160045260246000fd5b7f4e487b7100000000000000000000000000000000000000000000000000000000600052603260045260246000fd5b7f4e487b7100000000000000000000000000000000000000000000000000000000600052604160045260246000fd5b600080fd5b600080fd5b600080fd5b600080fd5b6000601f19601f8301169050919050565b7f4120726174696e672068617320616c7265616479206265656e206c656674206660008201527f6f7220746865206275796572206f662074686973206c697374696e6700000000602082015250565b7f54686973206c697374696e6720646f6573206e6f742065786973740000000000600082015250565b7f4120646966666572656e742066696e616c20627579657220657869737473206660008201527f6f722074686973206c697374696e670000000000000000000000000000000000602082015250565b7f4120726174696e672068617320616c7265616479206265656e206c656674206660008201527f6f72207468652073656c6c6572206f662074686973206c697374696e67000000602082015250565b7f54686973206c697374696e6720646f65736e2774206861766520612066696e6160008201527f6c20627579657220796574000000000000000000000000000000000000000000602082015250565b7f596f752063616e206f6e6c79206c65617665206120726174696e67206f6e206160008201527f2066696e616c697a656420707572636861736500000000000000000000000000602082015250565b7f596f752063616e206f6e6c79207261746520757020746f203500000000000000600082015250565b7f4f6e6c79207468652073656c6c6572206f662061206c697374696e672063616e60008201527f2072657669657720746865206275796572000000000000000000000000000000602082015250565b7f43616e27742073656e642061206e6567617469766520726174696e6700000000600082015250565b61238e81611f32565b811461239957600080fd5b50565b6123a581611f44565b81146123b057600080fd5b50565b6123bc81611f56565b81146123c757600080fd5b50565b6123d381611f82565b81146123de57600080fd5b5056fea264697066735822122012f56bc6514906f5078175ce276e4110e4f3ff9296e3ff715247f6506a223aa864736f6c63430008070033",
  "immutableReferences": {},
  "source": "// SPDX-License-Identifier: MIT\npragma solidity 0.8.7;\n\nimport \"../contracts/AccessControl.sol\";\nimport \"./Listings.sol\";\n\ncontract Ratings is AccessControl {\n    mapping(address => uint256[]) public sellerRatings;\n    mapping(address => uint256[]) public buyerRatings;\n\n    mapping(string => bool) public ratedIpfsListingsForSeller;\n    mapping(string => bool) public ratedIpfsListingsListingsForBuyer;\n\n    Listings public listingsContract;\n\n    event RatingRecieved(string ipfsHash, uint256 rating);\n\n    constructor(address _listingsContract) {\n        listingsContract = Listings(_listingsContract);\n    }\n\n    function leaveSellerRating(string memory ipfsHash, uint256 rating) public {\n        (\n            address payable sellerAddress,\n            ,\n            address finalBuyer,\n            ,\n            ,\n            ,\n            bool bought,\n            ,\n            address payable useThirdPartyAddress\n        ) = listingsContract.listings(ipfsHash);\n\n        require(sellerAddress != address(0x0), \"This listing does not exist\");\n        require(\n            bought == true,\n            \"You can only leave a rating on a finalized purchase\"\n        );\n        require(\n            finalBuyer == msg.sender,\n            \"A different final buyer exists for this listing\"\n        );\n        require(\n            ratedIpfsListingsForSeller[ipfsHash] == false,\n            \"A rating has already been left for the seller of this listing\"\n        );\n        require(rating >= 0, \"Can't send a negative rating\");\n        require(rating <= 5, \"You can only rate up to 5\");\n\n        emit RatingRecieved(ipfsHash, rating);\n\n        ratedIpfsListingsForSeller[ipfsHash] = true;\n\n        // if they used a third party, the reviews go to them\n        if (useThirdPartyAddress != address(0x0)) {\n            sellerRatings[useThirdPartyAddress].push(rating);\n        } else {\n            sellerRatings[sellerAddress].push(rating);\n        }\n    }\n\n    function leaveBuyerRating(string memory ipfsHash, uint256 rating) public {\n        (\n            address payable sellerAddress,\n            ,\n            address finalBuyer,\n            ,\n            ,\n            ,\n            bool bought,\n            ,\n\n        ) = listingsContract.listings(ipfsHash);\n\n        require(sellerAddress != address(0x0), \"This listing does not exist\");\n        require(\n            finalBuyer != address(0x0),\n            \"This listing doesn't have a final buyer yet\"\n        );\n\n        require(\n            bought == true,\n            \"You can only leave a rating on a finalized purchase\"\n        );\n        require(\n            sellerAddress == msg.sender,\n            \"Only the seller of a listing can review the buyer\"\n        );\n        require(\n            ratedIpfsListingsListingsForBuyer[ipfsHash] == false,\n            \"A rating has already been left for the buyer of this listing\"\n        );\n        require(rating >= 0, \"Can't send a negative rating\");\n        require(rating <= 5, \"You can only rate up to 5\");\n\n        ratedIpfsListingsListingsForBuyer[ipfsHash] = true;\n        buyerRatings[finalBuyer].push(rating);\n\n        emit RatingRecieved(ipfsHash, rating);\n    }\n\n    function sellerRatingAvailable(string memory ipfsHash)\n        public\n        view\n        returns (bool)\n    {\n        (, , , , , , bool bought, , ) = listingsContract.listings(ipfsHash);\n\n        return !ratedIpfsListingsForSeller[ipfsHash] && bought;\n    }\n\n    function buyerRatingAvailable(string memory ipfsHash)\n        public\n        view\n        returns (bool)\n    {\n        (, , , , , , bool bought, , ) = listingsContract.listings(ipfsHash);\n\n        return !ratedIpfsListingsListingsForBuyer[ipfsHash] && bought;\n    }\n\n    function getSellerRatings(address seller)\n        public\n        view\n        returns (uint256[] memory)\n    {\n        uint256[] memory ratings = new uint256[](sellerRatings[seller].length);\n        for (uint256 i = 0; i < sellerRatings[seller].length; i++) {\n            ratings[i] = sellerRatings[seller][i];\n        }\n        return ratings;\n    }\n\n    function getBuyerRatings(address seller)\n        public\n        view\n        returns (uint256[] memory)\n    {\n        uint256[] memory ratings = new uint256[](buyerRatings[seller].length);\n        for (uint256 i = 0; i < buyerRatings[seller].length; i++) {\n            ratings[i] = buyerRatings[seller][i];\n        }\n        return ratings;\n    }\n}\n",
  "sourcePath": "/Users/berniesnell/Blockchain/barrio/evm/contracts/Ratings.sol",
  "compiler": {
    "name": "solc",
    "version": "0.8.7+commit.e28d00a7.Emscripten.clang"
  },
  "schemaVersion": "3.4.7",
  "updatedAt": "2022-05-26T08:52:59.346Z",
  "devdoc": {
    "kind": "dev",
    "methods": {
      "pause()": {
        "details": "Called by any \"C-level\" role to pause the contract. Used only when  a bug or exploit is detected and we need to limit damage."
      },
      "setCEO(address)": {
        "details": "Assigns a new address to act as the CEO. Only available to the current CEO.",
        "params": {
          "_newCEO": "The address of the new CEO"
        }
      },
      "setCFO(address)": {
        "details": "Assigns a new address to act as the CFO. Only available to the current CEO.",
        "params": {
          "_newCFO": "The address of the new CFO"
        }
      },
      "setCOO(address)": {
        "details": "Assigns a new address to act as the COO. Only available to the current CEO.",
        "params": {
          "_newCOO": "The address of the new COO"
        }
      },
      "unpause()": {
        "details": "Unpauses the smart contract. Can only be called by the CEO, since  one reason we may pause the contract is when CFO or COO accounts are  compromised."
      }
    },
    "version": 1
  },
  "userdoc": {
    "kind": "user",
    "methods": {
      "unpause()": {
        "notice": "This is public rather than external so it can be called by  derived contracts."
      }
    },
    "version": 1
  }
}