{
  "contractName": "Ratings",
  "abi": [
    {
      "inputs": [
        {
          "internalType": "address",
          "name": "_listingsContract",
          "type": "address"
        }
      ],
      "stateMutability": "nonpayable",
      "type": "constructor"
    },
    {
      "anonymous": false,
      "inputs": [
        {
          "indexed": false,
          "internalType": "uint8[]",
          "name": "ratings",
          "type": "uint8[]"
        },
        {
          "indexed": false,
          "internalType": "address",
          "name": "buyer",
          "type": "address"
        }
      ],
      "name": "BuyerRatingsUpdated",
      "type": "event"
    },
    {
      "anonymous": false,
      "inputs": [
        {
          "indexed": false,
          "internalType": "address",
          "name": "newContract",
          "type": "address"
        }
      ],
      "name": "ContractUpgrade",
      "type": "event"
    },
    {
      "anonymous": false,
      "inputs": [
        {
          "indexed": false,
          "internalType": "uint8",
          "name": "rating",
          "type": "uint8"
        }
      ],
      "name": "RatingRecieved",
      "type": "event"
    },
    {
      "anonymous": false,
      "inputs": [
        {
          "indexed": false,
          "internalType": "uint8[]",
          "name": "ratings",
          "type": "uint8[]"
        },
        {
          "indexed": false,
          "internalType": "address",
          "name": "seller",
          "type": "address"
        }
      ],
      "name": "SellerRatingsUpdated",
      "type": "event"
    },
    {
      "inputs": [
        {
          "internalType": "address",
          "name": "",
          "type": "address"
        },
        {
          "internalType": "uint256",
          "name": "",
          "type": "uint256"
        }
      ],
      "name": "buyerRatings",
      "outputs": [
        {
          "internalType": "uint8",
          "name": "",
          "type": "uint8"
        }
      ],
      "stateMutability": "view",
      "type": "function"
    },
    {
      "inputs": [],
      "name": "ceoAddress",
      "outputs": [
        {
          "internalType": "address payable",
          "name": "",
          "type": "address"
        }
      ],
      "stateMutability": "view",
      "type": "function"
    },
    {
      "inputs": [],
      "name": "cfoAddress",
      "outputs": [
        {
          "internalType": "address",
          "name": "",
          "type": "address"
        }
      ],
      "stateMutability": "view",
      "type": "function"
    },
    {
      "inputs": [],
      "name": "cooAddress",
      "outputs": [
        {
          "internalType": "address",
          "name": "",
          "type": "address"
        }
      ],
      "stateMutability": "view",
      "type": "function"
    },
    {
      "inputs": [],
      "name": "listingsContract",
      "outputs": [
        {
          "internalType": "contract Listings",
          "name": "",
          "type": "address"
        }
      ],
      "stateMutability": "view",
      "type": "function"
    },
    {
      "inputs": [],
      "name": "pause",
      "outputs": [],
      "stateMutability": "nonpayable",
      "type": "function"
    },
    {
      "inputs": [],
      "name": "paused",
      "outputs": [
        {
          "internalType": "bool",
          "name": "",
          "type": "bool"
        }
      ],
      "stateMutability": "view",
      "type": "function"
    },
    {
      "inputs": [
        {
          "internalType": "string",
          "name": "",
          "type": "string"
        }
      ],
      "name": "ratedBuyerListings",
      "outputs": [
        {
          "internalType": "bool",
          "name": "",
          "type": "bool"
        }
      ],
      "stateMutability": "view",
      "type": "function"
    },
    {
      "inputs": [
        {
          "internalType": "string",
          "name": "",
          "type": "string"
        }
      ],
      "name": "ratedSellerListings",
      "outputs": [
        {
          "internalType": "bool",
          "name": "",
          "type": "bool"
        }
      ],
      "stateMutability": "view",
      "type": "function"
    },
    {
      "inputs": [
        {
          "internalType": "address",
          "name": "",
          "type": "address"
        },
        {
          "internalType": "uint256",
          "name": "",
          "type": "uint256"
        }
      ],
      "name": "sellerRatings",
      "outputs": [
        {
          "internalType": "uint8",
          "name": "",
          "type": "uint8"
        }
      ],
      "stateMutability": "view",
      "type": "function"
    },
    {
      "inputs": [
        {
          "internalType": "address",
          "name": "_newCEO",
          "type": "address"
        }
      ],
      "name": "setCEO",
      "outputs": [],
      "stateMutability": "nonpayable",
      "type": "function"
    },
    {
      "inputs": [
        {
          "internalType": "address",
          "name": "_newCFO",
          "type": "address"
        }
      ],
      "name": "setCFO",
      "outputs": [],
      "stateMutability": "nonpayable",
      "type": "function"
    },
    {
      "inputs": [
        {
          "internalType": "address",
          "name": "_newCOO",
          "type": "address"
        }
      ],
      "name": "setCOO",
      "outputs": [],
      "stateMutability": "nonpayable",
      "type": "function"
    },
    {
      "inputs": [],
      "name": "unpause",
      "outputs": [],
      "stateMutability": "nonpayable",
      "type": "function"
    },
    {
      "inputs": [
        {
          "internalType": "string",
          "name": "ipfsHash",
          "type": "string"
        },
        {
          "internalType": "uint8",
          "name": "rating",
          "type": "uint8"
        }
      ],
      "name": "leaveSellerRating",
      "outputs": [
        {
          "internalType": "uint8[]",
          "name": "",
          "type": "uint8[]"
        }
      ],
      "stateMutability": "nonpayable",
      "type": "function"
    },
    {
      "inputs": [
        {
          "internalType": "string",
          "name": "ipfsHash",
          "type": "string"
        },
        {
          "internalType": "uint8",
          "name": "rating",
          "type": "uint8"
        }
      ],
      "name": "leaveBuyerRating",
      "outputs": [
        {
          "internalType": "uint8[]",
          "name": "",
          "type": "uint8[]"
        }
      ],
      "stateMutability": "nonpayable",
      "type": "function"
    },
    {
      "inputs": [
        {
          "internalType": "address",
          "name": "seller",
          "type": "address"
        }
      ],
      "name": "getSellerRatings",
      "outputs": [
        {
          "internalType": "uint8[]",
          "name": "",
          "type": "uint8[]"
        }
      ],
      "stateMutability": "view",
      "type": "function"
    },
    {
      "inputs": [
        {
          "internalType": "address",
          "name": "seller",
          "type": "address"
        }
      ],
      "name": "getBuyerRatings",
      "outputs": [
        {
          "internalType": "uint8[]",
          "name": "",
          "type": "uint8[]"
        }
      ],
      "stateMutability": "view",
      "type": "function"
    }
  ],
  "bytecode": "0x60806040526000600260146101000a81548160ff0219169083151502179055503480156200002c57600080fd5b5060405162002943380380620029438339818101604052810190620000529190620000f1565b336000806101000a81548173ffffffffffffffffffffffffffffffffffffffff021916908373ffffffffffffffffffffffffffffffffffffffff16021790555080600760006101000a81548173ffffffffffffffffffffffffffffffffffffffff021916908373ffffffffffffffffffffffffffffffffffffffff1602179055505062000176565b600081519050620000eb816200015c565b92915050565b6000602082840312156200010a576200010962000157565b5b60006200011a84828501620000da565b91505092915050565b6000620001308262000137565b9050919050565b600073ffffffffffffffffffffffffffffffffffffffff82169050919050565b600080fd5b620001678162000123565b81146200017357600080fd5b50565b6127bd80620001866000396000f3fe608060405234801561001057600080fd5b50600436106101165760003560e01c80635c975abb116100a25780637e9aa46c116100715780637e9aa46c146102e15780638456cb5914610311578063af8c44e51461031b578063b047fb501461034b578063ece1657f1461036957610116565b80635c975abb1461024557806361a8dff2146102635780636c5995c51461029357806377966776146102c357610116565b80632ba73c15116100e95780632ba73c15146101a357806334c26b57146101bf578063394c2b2d146101ef5780633f4ba83a1461021f5780634e0a33791461022957610116565b80630519ce791461011b5780630a0f8168146101395780630f90d6d71461015757806327d7874c14610187575b600080fd5b610123610399565b604051610130919061202f565b60405180910390f35b6101416103bf565b60405161014e919061204a565b60405180910390f35b610171600480360381019061016c9190611cd2565b6103e3565b60405161017e919061223f565b60405180910390f35b6101a1600480360381019061019c9190611bdb565b610426565b005b6101bd60048036038101906101b89190611bdb565b6104fb565b005b6101d960048036038101906101d49190611bdb565b6105d1565b6040516101e69190612065565b60405180910390f35b61020960048036038101906102049190611d12565b61076d565b60405161021691906120e7565b60405180910390f35b6102276107a3565b005b610243600480360381019061023e9190611bdb565b610831565b005b61024d610907565b60405161025a91906120e7565b60405180910390f35b61027d60048036038101906102789190611d12565b61091a565b60405161028a91906120e7565b60405180910390f35b6102ad60048036038101906102a89190611d5b565b610950565b6040516102ba9190612065565b60405180910390f35b6102cb610ec4565b6040516102d89190612102565b60405180910390f35b6102fb60048036038101906102f69190611d5b565b610eea565b6040516103089190612065565b60405180910390f35b610319611794565b005b61033560048036038101906103309190611cd2565b6118d3565b604051610342919061223f565b60405180910390f35b610353611916565b604051610360919061202f565b60405180910390f35b610383600480360381019061037e9190611bdb565b61193c565b6040516103909190612065565b60405180910390f35b600160009054906101000a900473ffffffffffffffffffffffffffffffffffffffff1681565b60008054906101000a900473ffffffffffffffffffffffffffffffffffffffff1681565b600360205281600052604060002081815481106103ff57600080fd5b9060005260206000209060209182820401919006915091509054906101000a900460ff1681565b60008054906101000a900473ffffffffffffffffffffffffffffffffffffffff1673ffffffffffffffffffffffffffffffffffffffff163373ffffffffffffffffffffffffffffffffffffffff161461047e57600080fd5b600073ffffffffffffffffffffffffffffffffffffffff168173ffffffffffffffffffffffffffffffffffffffff1614156104b857600080fd5b806000806101000a81548173ffffffffffffffffffffffffffffffffffffffff021916908373ffffffffffffffffffffffffffffffffffffffff16021790555050565b60008054906101000a900473ffffffffffffffffffffffffffffffffffffffff1673ffffffffffffffffffffffffffffffffffffffff163373ffffffffffffffffffffffffffffffffffffffff161461055357600080fd5b600073ffffffffffffffffffffffffffffffffffffffff168173ffffffffffffffffffffffffffffffffffffffff16141561058d57600080fd5b80600260006101000a81548173ffffffffffffffffffffffffffffffffffffffff021916908373ffffffffffffffffffffffffffffffffffffffff16021790555050565b60606000600360008473ffffffffffffffffffffffffffffffffffffffff1673ffffffffffffffffffffffffffffffffffffffff1681526020019081526020016000208054905067ffffffffffffffff811115610631576106306124ba565b5b60405190808252806020026020018201604052801561065f5781602001602082028036833780820191505090505b50905060005b600360008573ffffffffffffffffffffffffffffffffffffffff1673ffffffffffffffffffffffffffffffffffffffff168152602001908152602001600020805490508160ff16101561076357600360008573ffffffffffffffffffffffffffffffffffffffff1673ffffffffffffffffffffffffffffffffffffffff1681526020019081526020016000208160ff16815481106107065761070561248b565b5b90600052602060002090602091828204019190069054906101000a900460ff16828260ff168151811061073c5761073b61248b565b5b602002602001019060ff16908160ff1681525050808061075b90612432565b915050610665565b5080915050919050565b6006818051602081018201805184825260208301602085012081835280955050505050506000915054906101000a900460ff1681565b60008054906101000a900473ffffffffffffffffffffffffffffffffffffffff1673ffffffffffffffffffffffffffffffffffffffff163373ffffffffffffffffffffffffffffffffffffffff16146107fb57600080fd5b600260149054906101000a900460ff1661081457600080fd5b6000600260146101000a81548160ff021916908315150217905550565b60008054906101000a900473ffffffffffffffffffffffffffffffffffffffff1673ffffffffffffffffffffffffffffffffffffffff163373ffffffffffffffffffffffffffffffffffffffff161461088957600080fd5b600073ffffffffffffffffffffffffffffffffffffffff168173ffffffffffffffffffffffffffffffffffffffff1614156108c357600080fd5b80600160006101000a81548173ffffffffffffffffffffffffffffffffffffffff021916908373ffffffffffffffffffffffffffffffffffffffff16021790555050565b600260149054906101000a900460ff1681565b6005818051602081018201805184825260208301602085012081835280955050505050506000915054906101000a900460ff1681565b60606000806000600760009054906101000a900473ffffffffffffffffffffffffffffffffffffffff1673ffffffffffffffffffffffffffffffffffffffff166377dec6c3876040518263ffffffff1660e01b81526004016109b2919061211d565b6101206040518083038186803b1580156109cb57600080fd5b505afa1580156109df573d6000803e3d6000fd5b505050506040513d601f19601f82011682018060405250810190610a039190611c08565b505096505050509350509250600073ffffffffffffffffffffffffffffffffffffffff168373ffffffffffffffffffffffffffffffffffffffff161415610a7f576040517f08c379a0000000000000000000000000000000000000000000000000000000008152600401610a769061215f565b60405180910390fd5b6001151581151514610ac6576040517f08c379a0000000000000000000000000000000000000000000000000000000008152600401610abd906121bf565b60405180910390fd5b3373ffffffffffffffffffffffffffffffffffffffff168373ffffffffffffffffffffffffffffffffffffffff1614610b34576040517f08c379a0000000000000000000000000000000000000000000000000000000008152600401610b2b906121ff565b60405180910390fd5b60001515600687604051610b489190612018565b908152602001604051809103902060009054906101000a900460ff16151514610ba6576040517f08c379a0000000000000000000000000000000000000000000000000000000008152600401610b9d9061213f565b60405180910390fd5b60008560ff161015610bed576040517f08c379a0000000000000000000000000000000000000000000000000000000008152600401610be49061221f565b60405180910390fd5b60058560ff161115610c34576040517f08c379a0000000000000000000000000000000000000000000000000000000008152600401610c2b906121df565b60405180910390fd5b600460008373ffffffffffffffffffffffffffffffffffffffff1673ffffffffffffffffffffffffffffffffffffffff1681526020019081526020016000208590806001815401808255809150506001900390600052602060002090602091828204019190069091909190916101000a81548160ff021916908360ff1602179055506000600460008473ffffffffffffffffffffffffffffffffffffffff1673ffffffffffffffffffffffffffffffffffffffff1681526020019081526020016000208054905067ffffffffffffffff811115610d1457610d136124ba565b5b604051908082528060200260200182016040528015610d425781602001602082028036833780820191505090505b50905060005b600460008573ffffffffffffffffffffffffffffffffffffffff1673ffffffffffffffffffffffffffffffffffffffff168152602001908152602001600020805490508160ff161015610e4657600460008573ffffffffffffffffffffffffffffffffffffffff1673ffffffffffffffffffffffffffffffffffffffff1681526020019081526020016000208160ff1681548110610de957610de861248b565b5b90600052602060002090602091828204019190069054906101000a900460ff16828260ff1681518110610e1f57610e1e61248b565b5b602002602001019060ff16908160ff16815250508080610e3e90612432565b915050610d48565b507f1264bb539ed33ea960b7fa723d17737d69f79532a88b27c3f13271dec50c2e828184604051610e78929190612087565b60405180910390a16001600688604051610e929190612018565b908152602001604051809103902060006101000a81548160ff0219169083151502179055508094505050505092915050565b600760009054906101000a900473ffffffffffffffffffffffffffffffffffffffff1681565b6060600080600080600760009054906101000a900473ffffffffffffffffffffffffffffffffffffffff1673ffffffffffffffffffffffffffffffffffffffff166377dec6c3886040518263ffffffff1660e01b8152600401610f4d919061211d565b6101206040518083038186803b158015610f6657600080fd5b505afa158015610f7a573d6000803e3d6000fd5b505050506040513d601f19601f82011682018060405250810190610f9e9190611c08565b98505097505050509450509350600073ffffffffffffffffffffffffffffffffffffffff168473ffffffffffffffffffffffffffffffffffffffff16141561101b576040517f08c379a00000000000000000000000000000000000000000000000000000000081526004016110129061215f565b60405180910390fd5b6001151582151514611062576040517f08c379a0000000000000000000000000000000000000000000000000000000008152600401611059906121bf565b60405180910390fd5b3373ffffffffffffffffffffffffffffffffffffffff168373ffffffffffffffffffffffffffffffffffffffff16146110d0576040517f08c379a00000000000000000000000000000000000000000000000000000000081526004016110c79061217f565b60405180910390fd5b3373ffffffffffffffffffffffffffffffffffffffff168373ffffffffffffffffffffffffffffffffffffffff161461113e576040517f08c379a00000000000000000000000000000000000000000000000000000000081526004016111359061217f565b60405180910390fd5b600015156005886040516111529190612018565b908152602001604051809103902060009054906101000a900460ff161515146111b0576040517f08c379a00000000000000000000000000000000000000000000000000000000081526004016111a79061219f565b60405180910390fd5b60008660ff1610156111f7576040517f08c379a00000000000000000000000000000000000000000000000000000000081526004016111ee9061221f565b60405180910390fd5b60058660ff16111561123e576040517f08c379a0000000000000000000000000000000000000000000000000000000008152600401611235906121df565b60405180910390fd5b7f12d1780a502f490261e54d34465b33d22b7040c4a390d8a0366d9f2454841bd18660405161126d919061223f565b60405180910390a160016005886040516112879190612018565b908152602001604051809103902060006101000a81548160ff021916908315150217905550600073ffffffffffffffffffffffffffffffffffffffff168173ffffffffffffffffffffffffffffffffffffffff161461153957600360008273ffffffffffffffffffffffffffffffffffffffff1673ffffffffffffffffffffffffffffffffffffffff1681526020019081526020016000208690806001815401808255809150506001900390600052602060002090602091828204019190069091909190916101000a81548160ff021916908360ff1602179055506000600360008373ffffffffffffffffffffffffffffffffffffffff1673ffffffffffffffffffffffffffffffffffffffff1681526020019081526020016000208054905067ffffffffffffffff8111156113c0576113bf6124ba565b5b6040519080825280602002602001820160405280156113ee5781602001602082028036833780820191505090505b50905060005b600360008473ffffffffffffffffffffffffffffffffffffffff1673ffffffffffffffffffffffffffffffffffffffff168152602001908152602001600020805490508160ff1610156114f257600360008473ffffffffffffffffffffffffffffffffffffffff1673ffffffffffffffffffffffffffffffffffffffff1681526020019081526020016000208160ff16815481106114955761149461248b565b5b90600052602060002090602091828204019190069054906101000a900460ff16828260ff16815181106114cb576114ca61248b565b5b602002602001019060ff16908160ff168152505080806114ea90612432565b9150506113f4565b507f61424e39970c536a338bf6fa91de4aa362ab7d66e9030e8974439e7550b6554081836040516115249291906120b7565b60405180910390a1809550505050505061178e565b600360008573ffffffffffffffffffffffffffffffffffffffff1673ffffffffffffffffffffffffffffffffffffffff1681526020019081526020016000208690806001815401808255809150506001900390600052602060002090602091828204019190069091909190916101000a81548160ff021916908360ff1602179055506000600360008673ffffffffffffffffffffffffffffffffffffffff1673ffffffffffffffffffffffffffffffffffffffff1681526020019081526020016000208054905067ffffffffffffffff811115611619576116186124ba565b5b6040519080825280602002602001820160405280156116475781602001602082028036833780820191505090505b50905060005b600360008773ffffffffffffffffffffffffffffffffffffffff1673ffffffffffffffffffffffffffffffffffffffff168152602001908152602001600020805490508160ff16101561174b57600360008773ffffffffffffffffffffffffffffffffffffffff1673ffffffffffffffffffffffffffffffffffffffff1681526020019081526020016000208160ff16815481106116ee576116ed61248b565b5b90600052602060002090602091828204019190069054906101000a900460ff16828260ff16815181106117245761172361248b565b5b602002602001019060ff16908160ff1681525050808061174390612432565b91505061164d565b507f61424e39970c536a338bf6fa91de4aa362ab7d66e9030e8974439e7550b65540818660405161177d9291906120b7565b60405180910390a180955050505050505b92915050565b600260009054906101000a900473ffffffffffffffffffffffffffffffffffffffff1673ffffffffffffffffffffffffffffffffffffffff163373ffffffffffffffffffffffffffffffffffffffff16148061183b575060008054906101000a900473ffffffffffffffffffffffffffffffffffffffff1673ffffffffffffffffffffffffffffffffffffffff163373ffffffffffffffffffffffffffffffffffffffff16145b806118935750600160009054906101000a900473ffffffffffffffffffffffffffffffffffffffff1673ffffffffffffffffffffffffffffffffffffffff163373ffffffffffffffffffffffffffffffffffffffff16145b61189c57600080fd5b600260149054906101000a900460ff16156118b657600080fd5b6001600260146101000a81548160ff021916908315150217905550565b600460205281600052604060002081815481106118ef57600080fd5b9060005260206000209060209182820401919006915091509054906101000a900460ff1681565b600260009054906101000a900473ffffffffffffffffffffffffffffffffffffffff1681565b60606000600460008473ffffffffffffffffffffffffffffffffffffffff1673ffffffffffffffffffffffffffffffffffffffff1681526020019081526020016000208054905067ffffffffffffffff81111561199c5761199b6124ba565b5b6040519080825280602002602001820160405280156119ca5781602001602082028036833780820191505090505b50905060005b600460008573ffffffffffffffffffffffffffffffffffffffff1673ffffffffffffffffffffffffffffffffffffffff168152602001908152602001600020805490508160ff161015611ace57600460008573ffffffffffffffffffffffffffffffffffffffff1673ffffffffffffffffffffffffffffffffffffffff1681526020019081526020016000208160ff1681548110611a7157611a7061248b565b5b90600052602060002090602091828204019190069054906101000a900460ff16828260ff1681518110611aa757611aa661248b565b5b602002602001019060ff16908160ff16815250508080611ac690612432565b9150506119d0565b5080915050919050565b6000611aeb611ae68461227f565b61225a565b905082815260208101848484011115611b0757611b066124ee565b5b611b128482856123bf565b509392505050565b600081359050611b2981612714565b92915050565b600081519050611b3e81612714565b92915050565b600081519050611b538161272b565b92915050565b600081519050611b6881612742565b92915050565b600082601f830112611b8357611b826124e9565b5b8135611b93848260208601611ad8565b91505092915050565b600081359050611bab81612759565b92915050565b600081519050611bc081612759565b92915050565b600081359050611bd581612770565b92915050565b600060208284031215611bf157611bf06124f8565b5b6000611bff84828501611b1a565b91505092915050565b60008060008060008060008060006101208a8c031215611c2b57611c2a6124f8565b5b6000611c398c828d01611b44565b9950506020611c4a8c828d01611b2f565b9850506040611c5b8c828d01611b2f565b9750506060611c6c8c828d01611bb1565b9650506080611c7d8c828d01611b59565b95505060a0611c8e8c828d01611bb1565b94505060c0611c9f8c828d01611b59565b93505060e0611cb08c828d01611b59565b925050610100611cc28c828d01611b44565b9150509295985092959850929598565b60008060408385031215611ce957611ce86124f8565b5b6000611cf785828601611b1a565b9250506020611d0885828601611b9c565b9150509250929050565b600060208284031215611d2857611d276124f8565b5b600082013567ffffffffffffffff811115611d4657611d456124f3565b5b611d5284828501611b6e565b91505092915050565b60008060408385031215611d7257611d716124f8565b5b600083013567ffffffffffffffff811115611d9057611d8f6124f3565b5b611d9c85828601611b6e565b9250506020611dad85828601611bc6565b9150509250929050565b6000611dc38383611ffa565b60208301905092915050565b611dd881612377565b82525050565b611de781612322565b82525050565b611df681612310565b82525050565b6000611e07826122c0565b611e1181856122e3565b9350611e1c836122b0565b8060005b83811015611e4d578151611e348882611db7565b9750611e3f836122d6565b925050600181019050611e20565b5085935050505092915050565b611e6381612334565b82525050565b611e7281612389565b82525050565b6000611e83826122cb565b611e8d81856122f4565b9350611e9d8185602086016123ce565b611ea6816124fd565b840191505092915050565b6000611ebc826122cb565b611ec68185612305565b9350611ed68185602086016123ce565b80840191505092915050565b6000611eef603c836122f4565b9150611efa8261250e565b604082019050919050565b6000611f12601b836122f4565b9150611f1d8261255d565b602082019050919050565b6000611f35602f836122f4565b9150611f4082612586565b604082019050919050565b6000611f58603d836122f4565b9150611f63826125d5565b604082019050919050565b6000611f7b6033836122f4565b9150611f8682612624565b604082019050919050565b6000611f9e6019836122f4565b9150611fa982612673565b602082019050919050565b6000611fc16031836122f4565b9150611fcc8261269c565b604082019050919050565b6000611fe4601c836122f4565b9150611fef826126eb565b602082019050919050565b6120038161236a565b82525050565b6120128161236a565b82525050565b60006120248284611eb1565b915081905092915050565b60006020820190506120446000830184611ded565b92915050565b600060208201905061205f6000830184611dde565b92915050565b6000602082019050818103600083015261207f8184611dfc565b905092915050565b600060408201905081810360008301526120a18185611dfc565b90506120b06020830184611ded565b9392505050565b600060408201905081810360008301526120d18185611dfc565b90506120e06020830184611dcf565b9392505050565b60006020820190506120fc6000830184611e5a565b92915050565b60006020820190506121176000830184611e69565b92915050565b600060208201905081810360008301526121378184611e78565b905092915050565b6000602082019050818103600083015261215881611ee2565b9050919050565b6000602082019050818103600083015261217881611f05565b9050919050565b6000602082019050818103600083015261219881611f28565b9050919050565b600060208201905081810360008301526121b881611f4b565b9050919050565b600060208201905081810360008301526121d881611f6e565b9050919050565b600060208201905081810360008301526121f881611f91565b9050919050565b6000602082019050818103600083015261221881611fb4565b9050919050565b6000602082019050818103600083015261223881611fd7565b9050919050565b60006020820190506122546000830184612009565b92915050565b6000612264612275565b90506122708282612401565b919050565b6000604051905090565b600067ffffffffffffffff82111561229a576122996124ba565b5b6122a3826124fd565b9050602081019050919050565b6000819050602082019050919050565b600081519050919050565b600081519050919050565b6000602082019050919050565b600082825260208201905092915050565b600082825260208201905092915050565b600081905092915050565b600061231b82612340565b9050919050565b600061232d82612340565b9050919050565b60008115159050919050565b600073ffffffffffffffffffffffffffffffffffffffff82169050919050565b6000819050919050565b600060ff82169050919050565b60006123828261239b565b9050919050565b60006123948261239b565b9050919050565b60006123a6826123ad565b9050919050565b60006123b882612340565b9050919050565b82818337600083830152505050565b60005b838110156123ec5780820151818401526020810190506123d1565b838111156123fb576000848401525b50505050565b61240a826124fd565b810181811067ffffffffffffffff82111715612429576124286124ba565b5b80604052505050565b600061243d8261236a565b915060ff8214156124515761245061245c565b5b600182019050919050565b7f4e487b7100000000000000000000000000000000000000000000000000000000600052601160045260246000fd5b7f4e487b7100000000000000000000000000000000000000000000000000000000600052603260045260246000fd5b7f4e487b7100000000000000000000000000000000000000000000000000000000600052604160045260246000fd5b600080fd5b600080fd5b600080fd5b600080fd5b6000601f19601f8301169050919050565b7f4120726174696e672068617320616c7265616479206265656e206c656674206660008201527f6f7220746865206275796572206f662074686973206c697374696e6700000000602082015250565b7f54686973206c697374696e6720646f6573206e6f742065786973740000000000600082015250565b7f4120646966666572656e742066696e616c20627579657220657869737473206660008201527f6f722074686973206c697374696e670000000000000000000000000000000000602082015250565b7f4120726174696e672068617320616c7265616479206265656e206c656674206660008201527f6f72207468652073656c6c6572206f662074686973206c697374696e67000000602082015250565b7f596f752063616e206f6e6c79206c65617665206120726174696e67206f6e206160008201527f2066696e616c697a656420707572636861736500000000000000000000000000602082015250565b7f596f752063616e206f6e6c79207261746520757020746f203500000000000000600082015250565b7f4f6e6c79207468652073656c6c6572206f662061206c697374696e672063616e60008201527f2072657669657720746865206275796572000000000000000000000000000000602082015250565b7f43616e27742073656e642061206e6567617469766520726174696e6700000000600082015250565b61271d81612310565b811461272857600080fd5b50565b61273481612322565b811461273f57600080fd5b50565b61274b81612334565b811461275657600080fd5b50565b61276281612360565b811461276d57600080fd5b50565b6127798161236a565b811461278457600080fd5b5056fea26469706673582212207dcc44d96b8d348dd7f694bbba1df1220314e57f53207afe75a1016ba9ee61db64736f6c63430008070033",
  "immutableReferences": {},
  "source": "// SPDX-License-Identifier: MIT\npragma solidity >=0.4.22 <0.9.0;\n\nimport \"../contracts/AccessControl.sol\";\nimport \"./Listings.sol\";\n\ncontract Ratings is AccessControl {\n    mapping(address => uint8[]) public sellerRatings;\n    mapping(address => uint8[]) public buyerRatings;\n\n    mapping(string => bool) public ratedSellerListings;\n    mapping(string => bool) public ratedBuyerListings;\n\n    Listings public listingsContract;\n\n    event SellerRatingsUpdated(uint8[] ratings, address seller);\n    event BuyerRatingsUpdated(uint8[] ratings, address buyer);\n\n    event RatingRecieved(uint8 rating);\n\n    constructor(address _listingsContract) {\n        listingsContract = Listings(_listingsContract);\n    }\n\n    function leaveSellerRating(string memory ipfsHash, uint8 rating)\n        public\n        returns (uint8[] memory)\n    {\n        (\n            address payable sellerAddress,\n            ,\n            address finalBuyer,\n            ,\n            ,\n            ,\n            bool bought,\n            ,\n            address payable useThirdPartyAddress\n        ) = listingsContract.listings(ipfsHash);\n\n        require(sellerAddress != address(0x0), \"This listing does not exist\");\n        require(\n            bought == true,\n            \"You can only leave a rating on a finalized purchase\"\n        );\n        require(\n            finalBuyer == msg.sender,\n            \"A different final buyer exists for this listing\"\n        );\n        require(\n            finalBuyer == msg.sender,\n            \"A different final buyer exists for this listing\"\n        );\n        require(\n            ratedSellerListings[ipfsHash] == false,\n            \"A rating has already been left for the seller of this listing\"\n        );\n        require(rating >= 0, \"Can't send a negative rating\");\n        require(rating <= 5, \"You can only rate up to 5\");\n\n        emit RatingRecieved(rating);\n\n        ratedSellerListings[ipfsHash] = true;\n\n        // if they used a third party, the reviews go to them\n        if (useThirdPartyAddress != address(0x0)) {\n            sellerRatings[useThirdPartyAddress].push(rating);\n            uint8[] memory ratings = new uint8[](\n                sellerRatings[useThirdPartyAddress].length\n            );\n            for (\n                uint8 i = 0;\n                i < sellerRatings[useThirdPartyAddress].length;\n                i++\n            ) {\n                ratings[i] = sellerRatings[useThirdPartyAddress][i];\n            }\n            emit SellerRatingsUpdated(ratings, useThirdPartyAddress);\n            return ratings;\n        } else {\n            sellerRatings[sellerAddress].push(rating);\n            uint8[] memory ratings = new uint8[](\n                sellerRatings[sellerAddress].length\n            );\n            for (uint8 i = 0; i < sellerRatings[sellerAddress].length; i++) {\n                ratings[i] = sellerRatings[sellerAddress][i];\n            }\n            emit SellerRatingsUpdated(ratings, sellerAddress);\n\n            return ratings;\n        }\n    }\n\n    function leaveBuyerRating(string memory ipfsHash, uint8 rating)\n        public\n        returns (uint8[] memory)\n    {\n        (\n            address payable sellerAddress,\n            ,\n            address finalBuyer,\n            ,\n            ,\n            ,\n            bool bought,\n            ,\n\n        ) = listingsContract.listings(ipfsHash);\n\n        require(sellerAddress != address(0x0), \"This listing does not exist\");\n        require(\n            bought == true,\n            \"You can only leave a rating on a finalized purchase\"\n        );\n        require(\n            sellerAddress == msg.sender,\n            \"Only the seller of a listing can review the buyer\"\n        );\n        require(\n            ratedBuyerListings[ipfsHash] == false,\n            \"A rating has already been left for the buyer of this listing\"\n        );\n        require(rating >= 0, \"Can't send a negative rating\");\n        require(rating <= 5, \"You can only rate up to 5\");\n\n        buyerRatings[finalBuyer].push(rating);\n\n        uint8[] memory ratings = new uint8[](buyerRatings[finalBuyer].length);\n        for (uint8 i = 0; i < buyerRatings[finalBuyer].length; i++) {\n            ratings[i] = buyerRatings[finalBuyer][i];\n        }\n        emit BuyerRatingsUpdated(ratings, finalBuyer);\n        ratedBuyerListings[ipfsHash] = true;\n\n        return ratings;\n    }\n\n    function getSellerRatings(address seller)\n        public\n        view\n        returns (uint8[] memory)\n    {\n        uint8[] memory ratings = new uint8[](sellerRatings[seller].length);\n        for (uint8 i = 0; i < sellerRatings[seller].length; i++) {\n            ratings[i] = sellerRatings[seller][i];\n        }\n        return ratings;\n    }\n\n    function getBuyerRatings(address seller)\n        public\n        view\n        returns (uint8[] memory)\n    {\n        uint8[] memory ratings = new uint8[](buyerRatings[seller].length);\n        for (uint8 i = 0; i < buyerRatings[seller].length; i++) {\n            ratings[i] = buyerRatings[seller][i];\n        }\n        return ratings;\n    }\n}\n",
  "sourcePath": "/Users/berniesnell/Blockchain/barrio/fe-barrio/contracts/Ratings.sol",
  "compiler": {
    "name": "solc",
    "version": "0.8.7+commit.e28d00a7.Emscripten.clang"
  },
  "schemaVersion": "3.4.7",
  "updatedAt": "2022-05-24T10:55:22.670Z",
  "devdoc": {
    "kind": "dev",
    "methods": {
      "pause()": {
        "details": "Called by any \"C-level\" role to pause the contract. Used only when  a bug or exploit is detected and we need to limit damage."
      },
      "setCEO(address)": {
        "details": "Assigns a new address to act as the CEO. Only available to the current CEO.",
        "params": {
          "_newCEO": "The address of the new CEO"
        }
      },
      "setCFO(address)": {
        "details": "Assigns a new address to act as the CFO. Only available to the current CEO.",
        "params": {
          "_newCFO": "The address of the new CFO"
        }
      },
      "setCOO(address)": {
        "details": "Assigns a new address to act as the COO. Only available to the current CEO.",
        "params": {
          "_newCOO": "The address of the new COO"
        }
      },
      "unpause()": {
        "details": "Unpauses the smart contract. Can only be called by the CEO, since  one reason we may pause the contract is when CFO or COO accounts are  compromised."
      }
    },
    "version": 1
  },
  "userdoc": {
    "kind": "user",
    "methods": {
      "unpause()": {
        "notice": "This is public rather than external so it can be called by  derived contracts."
      }
    },
    "version": 1
  }
}