{
  "contractName": "Ratings",
  "abi": [
    {
      "inputs": [
        {
          "internalType": "address",
          "name": "_listingsContract",
          "type": "address"
        }
      ],
      "stateMutability": "nonpayable",
      "type": "constructor"
    },
    {
      "anonymous": false,
      "inputs": [
        {
          "indexed": false,
          "internalType": "uint8[]",
          "name": "ratings",
          "type": "uint8[]"
        },
        {
          "indexed": false,
          "internalType": "address",
          "name": "buyer",
          "type": "address"
        }
      ],
      "name": "BuyerRatingsUpdated",
      "type": "event"
    },
    {
      "anonymous": false,
      "inputs": [
        {
          "indexed": false,
          "internalType": "address",
          "name": "newContract",
          "type": "address"
        }
      ],
      "name": "ContractUpgrade",
      "type": "event"
    },
    {
      "anonymous": false,
      "inputs": [
        {
          "indexed": false,
          "internalType": "uint8",
          "name": "rating",
          "type": "uint8"
        }
      ],
      "name": "RatingRecieved",
      "type": "event"
    },
    {
      "anonymous": false,
      "inputs": [
        {
          "indexed": false,
          "internalType": "uint8[]",
          "name": "ratings",
          "type": "uint8[]"
        },
        {
          "indexed": false,
          "internalType": "address",
          "name": "seller",
          "type": "address"
        }
      ],
      "name": "SellerRatingsUpdated",
      "type": "event"
    },
    {
      "inputs": [
        {
          "internalType": "address",
          "name": "",
          "type": "address"
        },
        {
          "internalType": "uint256",
          "name": "",
          "type": "uint256"
        }
      ],
      "name": "buyerRatings",
      "outputs": [
        {
          "internalType": "uint8",
          "name": "",
          "type": "uint8"
        }
      ],
      "stateMutability": "view",
      "type": "function"
    },
    {
      "inputs": [],
      "name": "ceoAddress",
      "outputs": [
        {
          "internalType": "address payable",
          "name": "",
          "type": "address"
        }
      ],
      "stateMutability": "view",
      "type": "function"
    },
    {
      "inputs": [],
      "name": "cfoAddress",
      "outputs": [
        {
          "internalType": "address",
          "name": "",
          "type": "address"
        }
      ],
      "stateMutability": "view",
      "type": "function"
    },
    {
      "inputs": [],
      "name": "cooAddress",
      "outputs": [
        {
          "internalType": "address",
          "name": "",
          "type": "address"
        }
      ],
      "stateMutability": "view",
      "type": "function"
    },
    {
      "inputs": [],
      "name": "listingsContract",
      "outputs": [
        {
          "internalType": "contract Listings",
          "name": "",
          "type": "address"
        }
      ],
      "stateMutability": "view",
      "type": "function"
    },
    {
      "inputs": [],
      "name": "pause",
      "outputs": [],
      "stateMutability": "nonpayable",
      "type": "function"
    },
    {
      "inputs": [],
      "name": "paused",
      "outputs": [
        {
          "internalType": "bool",
          "name": "",
          "type": "bool"
        }
      ],
      "stateMutability": "view",
      "type": "function"
    },
    {
      "inputs": [
        {
          "internalType": "string",
          "name": "",
          "type": "string"
        }
      ],
      "name": "ratedBuyerListings",
      "outputs": [
        {
          "internalType": "bool",
          "name": "",
          "type": "bool"
        }
      ],
      "stateMutability": "view",
      "type": "function"
    },
    {
      "inputs": [
        {
          "internalType": "string",
          "name": "",
          "type": "string"
        }
      ],
      "name": "ratedSellerListings",
      "outputs": [
        {
          "internalType": "bool",
          "name": "",
          "type": "bool"
        }
      ],
      "stateMutability": "view",
      "type": "function"
    },
    {
      "inputs": [
        {
          "internalType": "address",
          "name": "",
          "type": "address"
        },
        {
          "internalType": "uint256",
          "name": "",
          "type": "uint256"
        }
      ],
      "name": "sellerRatings",
      "outputs": [
        {
          "internalType": "uint8",
          "name": "",
          "type": "uint8"
        }
      ],
      "stateMutability": "view",
      "type": "function"
    },
    {
      "inputs": [
        {
          "internalType": "address",
          "name": "_newCEO",
          "type": "address"
        }
      ],
      "name": "setCEO",
      "outputs": [],
      "stateMutability": "nonpayable",
      "type": "function"
    },
    {
      "inputs": [
        {
          "internalType": "address",
          "name": "_newCFO",
          "type": "address"
        }
      ],
      "name": "setCFO",
      "outputs": [],
      "stateMutability": "nonpayable",
      "type": "function"
    },
    {
      "inputs": [
        {
          "internalType": "address",
          "name": "_newCOO",
          "type": "address"
        }
      ],
      "name": "setCOO",
      "outputs": [],
      "stateMutability": "nonpayable",
      "type": "function"
    },
    {
      "inputs": [],
      "name": "unpause",
      "outputs": [],
      "stateMutability": "nonpayable",
      "type": "function"
    },
    {
      "inputs": [
        {
          "internalType": "string",
          "name": "ipfsHash",
          "type": "string"
        },
        {
          "internalType": "uint8",
          "name": "rating",
          "type": "uint8"
        }
      ],
      "name": "leaveSellerRating",
      "outputs": [
        {
          "internalType": "uint8[]",
          "name": "",
          "type": "uint8[]"
        }
      ],
      "stateMutability": "nonpayable",
      "type": "function"
    },
    {
      "inputs": [
        {
          "internalType": "string",
          "name": "ipfsHash",
          "type": "string"
        },
        {
          "internalType": "uint8",
          "name": "rating",
          "type": "uint8"
        }
      ],
      "name": "leaveBuyerRating",
      "outputs": [
        {
          "internalType": "uint8[]",
          "name": "",
          "type": "uint8[]"
        }
      ],
      "stateMutability": "nonpayable",
      "type": "function"
    },
    {
      "inputs": [
        {
          "internalType": "string",
          "name": "ipfsHash",
          "type": "string"
        }
      ],
      "name": "sellerRatingAvailable",
      "outputs": [
        {
          "internalType": "bool",
          "name": "",
          "type": "bool"
        }
      ],
      "stateMutability": "view",
      "type": "function"
    },
    {
      "inputs": [
        {
          "internalType": "string",
          "name": "ipfsHash",
          "type": "string"
        }
      ],
      "name": "buyerRatingAvailable",
      "outputs": [
        {
          "internalType": "bool",
          "name": "",
          "type": "bool"
        }
      ],
      "stateMutability": "view",
      "type": "function"
    },
    {
      "inputs": [
        {
          "internalType": "address",
          "name": "seller",
          "type": "address"
        }
      ],
      "name": "getSellerRatings",
      "outputs": [
        {
          "internalType": "uint8[]",
          "name": "",
          "type": "uint8[]"
        }
      ],
      "stateMutability": "view",
      "type": "function"
    },
    {
      "inputs": [
        {
          "internalType": "address",
          "name": "seller",
          "type": "address"
        }
      ],
      "name": "getBuyerRatings",
      "outputs": [
        {
          "internalType": "uint8[]",
          "name": "",
          "type": "uint8[]"
        }
      ],
      "stateMutability": "view",
      "type": "function"
    }
  ],
  "bytecode": "0x60806040526000600260146101000a81548160ff0219169083151502179055503480156200002c57600080fd5b5060405162002ba738038062002ba78339818101604052810190620000529190620000f1565b336000806101000a81548173ffffffffffffffffffffffffffffffffffffffff021916908373ffffffffffffffffffffffffffffffffffffffff16021790555080600760006101000a81548173ffffffffffffffffffffffffffffffffffffffff021916908373ffffffffffffffffffffffffffffffffffffffff1602179055505062000176565b600081519050620000eb816200015c565b92915050565b6000602082840312156200010a576200010962000157565b5b60006200011a84828501620000da565b91505092915050565b6000620001308262000137565b9050919050565b600073ffffffffffffffffffffffffffffffffffffffff82169050919050565b600080fd5b620001678162000123565b81146200017357600080fd5b50565b612a2180620001866000396000f3fe608060405234801561001057600080fd5b506004361061012c5760003560e01c80635c975abb116100ad57806382f3ec631161007157806382f3ec63146103575780638456cb5914610387578063af8c44e514610391578063b047fb50146103c1578063ece1657f146103df5761012c565b80635c975abb1461028b57806361a8dff2146102a95780636c5995c5146102d957806377966776146103095780637e9aa46c146103275761012c565b806334c26b57116100f457806334c26b57146101d5578063394c2b2d146102055780633a92e56c146102355780633f4ba83a146102655780634e0a33791461026f5761012c565b80630519ce79146101315780630a0f81681461014f5780630f90d6d71461016d57806327d7874c1461019d5780632ba73c15146101b9575b600080fd5b61013961040f565b6040516101469190612293565b60405180910390f35b610157610435565b60405161016491906122ae565b60405180910390f35b61018760048036038101906101829190611f36565b610459565b60405161019491906124a3565b60405180910390f35b6101b760048036038101906101b29190611e3f565b61049c565b005b6101d360048036038101906101ce9190611e3f565b610571565b005b6101ef60048036038101906101ea9190611e3f565b610647565b6040516101fc91906122c9565b60405180910390f35b61021f600480360381019061021a9190611f76565b6107e3565b60405161022c919061234b565b60405180910390f35b61024f600480360381019061024a9190611f76565b610819565b60405161025c919061234b565b60405180910390f35b61026d610910565b005b61028960048036038101906102849190611e3f565b61099e565b005b610293610a74565b6040516102a0919061234b565b60405180910390f35b6102c360048036038101906102be9190611f76565b610a87565b6040516102d0919061234b565b60405180910390f35b6102f360048036038101906102ee9190611fbf565b610abd565b60405161030091906122c9565b60405180910390f35b610311611031565b60405161031e9190612366565b60405180910390f35b610341600480360381019061033c9190611fbf565b611057565b60405161034e91906122c9565b60405180910390f35b610371600480360381019061036c9190611f76565b611901565b60405161037e919061234b565b60405180910390f35b61038f6119f8565b005b6103ab60048036038101906103a69190611f36565b611b37565b6040516103b891906124a3565b60405180910390f35b6103c9611b7a565b6040516103d69190612293565b60405180910390f35b6103f960048036038101906103f49190611e3f565b611ba0565b60405161040691906122c9565b60405180910390f35b600160009054906101000a900473ffffffffffffffffffffffffffffffffffffffff1681565b60008054906101000a900473ffffffffffffffffffffffffffffffffffffffff1681565b6003602052816000526040600020818154811061047557600080fd5b9060005260206000209060209182820401919006915091509054906101000a900460ff1681565b60008054906101000a900473ffffffffffffffffffffffffffffffffffffffff1673ffffffffffffffffffffffffffffffffffffffff163373ffffffffffffffffffffffffffffffffffffffff16146104f457600080fd5b600073ffffffffffffffffffffffffffffffffffffffff168173ffffffffffffffffffffffffffffffffffffffff16141561052e57600080fd5b806000806101000a81548173ffffffffffffffffffffffffffffffffffffffff021916908373ffffffffffffffffffffffffffffffffffffffff16021790555050565b60008054906101000a900473ffffffffffffffffffffffffffffffffffffffff1673ffffffffffffffffffffffffffffffffffffffff163373ffffffffffffffffffffffffffffffffffffffff16146105c957600080fd5b600073ffffffffffffffffffffffffffffffffffffffff168173ffffffffffffffffffffffffffffffffffffffff16141561060357600080fd5b80600260006101000a81548173ffffffffffffffffffffffffffffffffffffffff021916908373ffffffffffffffffffffffffffffffffffffffff16021790555050565b60606000600360008473ffffffffffffffffffffffffffffffffffffffff1673ffffffffffffffffffffffffffffffffffffffff1681526020019081526020016000208054905067ffffffffffffffff8111156106a7576106a661271e565b5b6040519080825280602002602001820160405280156106d55781602001602082028036833780820191505090505b50905060005b600360008573ffffffffffffffffffffffffffffffffffffffff1673ffffffffffffffffffffffffffffffffffffffff168152602001908152602001600020805490508160ff1610156107d957600360008573ffffffffffffffffffffffffffffffffffffffff1673ffffffffffffffffffffffffffffffffffffffff1681526020019081526020016000208160ff168154811061077c5761077b6126ef565b5b90600052602060002090602091828204019190069054906101000a900460ff16828260ff16815181106107b2576107b16126ef565b5b602002602001019060ff16908160ff168152505080806107d190612696565b9150506106db565b5080915050919050565b6006818051602081018201805184825260208301602085012081835280955050505050506000915054906101000a900460ff1681565b600080600760009054906101000a900473ffffffffffffffffffffffffffffffffffffffff1673ffffffffffffffffffffffffffffffffffffffff166377dec6c3846040518263ffffffff1660e01b81526004016108779190612381565b6101206040518083038186803b15801561089057600080fd5b505afa1580156108a4573d6000803e3d6000fd5b505050506040513d601f19601f820116820180604052508101906108c89190611e6c565b505096505050505050506006836040516108e2919061227c565b908152602001604051809103902060009054906101000a900460ff161580156109085750805b915050919050565b60008054906101000a900473ffffffffffffffffffffffffffffffffffffffff1673ffffffffffffffffffffffffffffffffffffffff163373ffffffffffffffffffffffffffffffffffffffff161461096857600080fd5b600260149054906101000a900460ff1661098157600080fd5b6000600260146101000a81548160ff021916908315150217905550565b60008054906101000a900473ffffffffffffffffffffffffffffffffffffffff1673ffffffffffffffffffffffffffffffffffffffff163373ffffffffffffffffffffffffffffffffffffffff16146109f657600080fd5b600073ffffffffffffffffffffffffffffffffffffffff168173ffffffffffffffffffffffffffffffffffffffff161415610a3057600080fd5b80600160006101000a81548173ffffffffffffffffffffffffffffffffffffffff021916908373ffffffffffffffffffffffffffffffffffffffff16021790555050565b600260149054906101000a900460ff1681565b6005818051602081018201805184825260208301602085012081835280955050505050506000915054906101000a900460ff1681565b60606000806000600760009054906101000a900473ffffffffffffffffffffffffffffffffffffffff1673ffffffffffffffffffffffffffffffffffffffff166377dec6c3876040518263ffffffff1660e01b8152600401610b1f9190612381565b6101206040518083038186803b158015610b3857600080fd5b505afa158015610b4c573d6000803e3d6000fd5b505050506040513d601f19601f82011682018060405250810190610b709190611e6c565b505096505050509350509250600073ffffffffffffffffffffffffffffffffffffffff168373ffffffffffffffffffffffffffffffffffffffff161415610bec576040517f08c379a0000000000000000000000000000000000000000000000000000000008152600401610be3906123c3565b60405180910390fd5b6001151581151514610c33576040517f08c379a0000000000000000000000000000000000000000000000000000000008152600401610c2a90612423565b60405180910390fd5b3373ffffffffffffffffffffffffffffffffffffffff168373ffffffffffffffffffffffffffffffffffffffff1614610ca1576040517f08c379a0000000000000000000000000000000000000000000000000000000008152600401610c9890612463565b60405180910390fd5b60001515600687604051610cb5919061227c565b908152602001604051809103902060009054906101000a900460ff16151514610d13576040517f08c379a0000000000000000000000000000000000000000000000000000000008152600401610d0a906123a3565b60405180910390fd5b60008560ff161015610d5a576040517f08c379a0000000000000000000000000000000000000000000000000000000008152600401610d5190612483565b60405180910390fd5b60058560ff161115610da1576040517f08c379a0000000000000000000000000000000000000000000000000000000008152600401610d9890612443565b60405180910390fd5b600460008373ffffffffffffffffffffffffffffffffffffffff1673ffffffffffffffffffffffffffffffffffffffff1681526020019081526020016000208590806001815401808255809150506001900390600052602060002090602091828204019190069091909190916101000a81548160ff021916908360ff1602179055506000600460008473ffffffffffffffffffffffffffffffffffffffff1673ffffffffffffffffffffffffffffffffffffffff1681526020019081526020016000208054905067ffffffffffffffff811115610e8157610e8061271e565b5b604051908082528060200260200182016040528015610eaf5781602001602082028036833780820191505090505b50905060005b600460008573ffffffffffffffffffffffffffffffffffffffff1673ffffffffffffffffffffffffffffffffffffffff168152602001908152602001600020805490508160ff161015610fb357600460008573ffffffffffffffffffffffffffffffffffffffff1673ffffffffffffffffffffffffffffffffffffffff1681526020019081526020016000208160ff1681548110610f5657610f556126ef565b5b90600052602060002090602091828204019190069054906101000a900460ff16828260ff1681518110610f8c57610f8b6126ef565b5b602002602001019060ff16908160ff16815250508080610fab90612696565b915050610eb5565b507f1264bb539ed33ea960b7fa723d17737d69f79532a88b27c3f13271dec50c2e828184604051610fe59291906122eb565b60405180910390a16001600688604051610fff919061227c565b908152602001604051809103902060006101000a81548160ff0219169083151502179055508094505050505092915050565b600760009054906101000a900473ffffffffffffffffffffffffffffffffffffffff1681565b6060600080600080600760009054906101000a900473ffffffffffffffffffffffffffffffffffffffff1673ffffffffffffffffffffffffffffffffffffffff166377dec6c3886040518263ffffffff1660e01b81526004016110ba9190612381565b6101206040518083038186803b1580156110d357600080fd5b505afa1580156110e7573d6000803e3d6000fd5b505050506040513d601f19601f8201168201806040525081019061110b9190611e6c565b98505097505050509450509350600073ffffffffffffffffffffffffffffffffffffffff168473ffffffffffffffffffffffffffffffffffffffff161415611188576040517f08c379a000000000000000000000000000000000000000000000000000000000815260040161117f906123c3565b60405180910390fd5b60011515821515146111cf576040517f08c379a00000000000000000000000000000000000000000000000000000000081526004016111c690612423565b60405180910390fd5b3373ffffffffffffffffffffffffffffffffffffffff168373ffffffffffffffffffffffffffffffffffffffff161461123d576040517f08c379a0000000000000000000000000000000000000000000000000000000008152600401611234906123e3565b60405180910390fd5b3373ffffffffffffffffffffffffffffffffffffffff168373ffffffffffffffffffffffffffffffffffffffff16146112ab576040517f08c379a00000000000000000000000000000000000000000000000000000000081526004016112a2906123e3565b60405180910390fd5b600015156005886040516112bf919061227c565b908152602001604051809103902060009054906101000a900460ff1615151461131d576040517f08c379a000000000000000000000000000000000000000000000000000000000815260040161131490612403565b60405180910390fd5b60008660ff161015611364576040517f08c379a000000000000000000000000000000000000000000000000000000000815260040161135b90612483565b60405180910390fd5b60058660ff1611156113ab576040517f08c379a00000000000000000000000000000000000000000000000000000000081526004016113a290612443565b60405180910390fd5b7f12d1780a502f490261e54d34465b33d22b7040c4a390d8a0366d9f2454841bd1866040516113da91906124a3565b60405180910390a160016005886040516113f4919061227c565b908152602001604051809103902060006101000a81548160ff021916908315150217905550600073ffffffffffffffffffffffffffffffffffffffff168173ffffffffffffffffffffffffffffffffffffffff16146116a657600360008273ffffffffffffffffffffffffffffffffffffffff1673ffffffffffffffffffffffffffffffffffffffff1681526020019081526020016000208690806001815401808255809150506001900390600052602060002090602091828204019190069091909190916101000a81548160ff021916908360ff1602179055506000600360008373ffffffffffffffffffffffffffffffffffffffff1673ffffffffffffffffffffffffffffffffffffffff1681526020019081526020016000208054905067ffffffffffffffff81111561152d5761152c61271e565b5b60405190808252806020026020018201604052801561155b5781602001602082028036833780820191505090505b50905060005b600360008473ffffffffffffffffffffffffffffffffffffffff1673ffffffffffffffffffffffffffffffffffffffff168152602001908152602001600020805490508160ff16101561165f57600360008473ffffffffffffffffffffffffffffffffffffffff1673ffffffffffffffffffffffffffffffffffffffff1681526020019081526020016000208160ff1681548110611602576116016126ef565b5b90600052602060002090602091828204019190069054906101000a900460ff16828260ff1681518110611638576116376126ef565b5b602002602001019060ff16908160ff1681525050808061165790612696565b915050611561565b507f61424e39970c536a338bf6fa91de4aa362ab7d66e9030e8974439e7550b65540818360405161169192919061231b565b60405180910390a180955050505050506118fb565b600360008573ffffffffffffffffffffffffffffffffffffffff1673ffffffffffffffffffffffffffffffffffffffff1681526020019081526020016000208690806001815401808255809150506001900390600052602060002090602091828204019190069091909190916101000a81548160ff021916908360ff1602179055506000600360008673ffffffffffffffffffffffffffffffffffffffff1673ffffffffffffffffffffffffffffffffffffffff1681526020019081526020016000208054905067ffffffffffffffff8111156117865761178561271e565b5b6040519080825280602002602001820160405280156117b45781602001602082028036833780820191505090505b50905060005b600360008773ffffffffffffffffffffffffffffffffffffffff1673ffffffffffffffffffffffffffffffffffffffff168152602001908152602001600020805490508160ff1610156118b857600360008773ffffffffffffffffffffffffffffffffffffffff1673ffffffffffffffffffffffffffffffffffffffff1681526020019081526020016000208160ff168154811061185b5761185a6126ef565b5b90600052602060002090602091828204019190069054906101000a900460ff16828260ff1681518110611891576118906126ef565b5b602002602001019060ff16908160ff168152505080806118b090612696565b9150506117ba565b507f61424e39970c536a338bf6fa91de4aa362ab7d66e9030e8974439e7550b6554081866040516118ea92919061231b565b60405180910390a180955050505050505b92915050565b600080600760009054906101000a900473ffffffffffffffffffffffffffffffffffffffff1673ffffffffffffffffffffffffffffffffffffffff166377dec6c3846040518263ffffffff1660e01b815260040161195f9190612381565b6101206040518083038186803b15801561197857600080fd5b505afa15801561198c573d6000803e3d6000fd5b505050506040513d601f19601f820116820180604052508101906119b09190611e6c565b505096505050505050506005836040516119ca919061227c565b908152602001604051809103902060009054906101000a900460ff161580156119f05750805b915050919050565b600260009054906101000a900473ffffffffffffffffffffffffffffffffffffffff1673ffffffffffffffffffffffffffffffffffffffff163373ffffffffffffffffffffffffffffffffffffffff161480611a9f575060008054906101000a900473ffffffffffffffffffffffffffffffffffffffff1673ffffffffffffffffffffffffffffffffffffffff163373ffffffffffffffffffffffffffffffffffffffff16145b80611af75750600160009054906101000a900473ffffffffffffffffffffffffffffffffffffffff1673ffffffffffffffffffffffffffffffffffffffff163373ffffffffffffffffffffffffffffffffffffffff16145b611b0057600080fd5b600260149054906101000a900460ff1615611b1a57600080fd5b6001600260146101000a81548160ff021916908315150217905550565b60046020528160005260406000208181548110611b5357600080fd5b9060005260206000209060209182820401919006915091509054906101000a900460ff1681565b600260009054906101000a900473ffffffffffffffffffffffffffffffffffffffff1681565b60606000600460008473ffffffffffffffffffffffffffffffffffffffff1673ffffffffffffffffffffffffffffffffffffffff1681526020019081526020016000208054905067ffffffffffffffff811115611c0057611bff61271e565b5b604051908082528060200260200182016040528015611c2e5781602001602082028036833780820191505090505b50905060005b600460008573ffffffffffffffffffffffffffffffffffffffff1673ffffffffffffffffffffffffffffffffffffffff168152602001908152602001600020805490508160ff161015611d3257600460008573ffffffffffffffffffffffffffffffffffffffff1673ffffffffffffffffffffffffffffffffffffffff1681526020019081526020016000208160ff1681548110611cd557611cd46126ef565b5b90600052602060002090602091828204019190069054906101000a900460ff16828260ff1681518110611d0b57611d0a6126ef565b5b602002602001019060ff16908160ff16815250508080611d2a90612696565b915050611c34565b5080915050919050565b6000611d4f611d4a846124e3565b6124be565b905082815260208101848484011115611d6b57611d6a612752565b5b611d76848285612623565b509392505050565b600081359050611d8d81612978565b92915050565b600081519050611da281612978565b92915050565b600081519050611db78161298f565b92915050565b600081519050611dcc816129a6565b92915050565b600082601f830112611de757611de661274d565b5b8135611df7848260208601611d3c565b91505092915050565b600081359050611e0f816129bd565b92915050565b600081519050611e24816129bd565b92915050565b600081359050611e39816129d4565b92915050565b600060208284031215611e5557611e5461275c565b5b6000611e6384828501611d7e565b91505092915050565b60008060008060008060008060006101208a8c031215611e8f57611e8e61275c565b5b6000611e9d8c828d01611da8565b9950506020611eae8c828d01611d93565b9850506040611ebf8c828d01611d93565b9750506060611ed08c828d01611e15565b9650506080611ee18c828d01611dbd565b95505060a0611ef28c828d01611e15565b94505060c0611f038c828d01611dbd565b93505060e0611f148c828d01611dbd565b925050610100611f268c828d01611da8565b9150509295985092959850929598565b60008060408385031215611f4d57611f4c61275c565b5b6000611f5b85828601611d7e565b9250506020611f6c85828601611e00565b9150509250929050565b600060208284031215611f8c57611f8b61275c565b5b600082013567ffffffffffffffff811115611faa57611fa9612757565b5b611fb684828501611dd2565b91505092915050565b60008060408385031215611fd657611fd561275c565b5b600083013567ffffffffffffffff811115611ff457611ff3612757565b5b61200085828601611dd2565b925050602061201185828601611e2a565b9150509250929050565b6000612027838361225e565b60208301905092915050565b61203c816125db565b82525050565b61204b81612586565b82525050565b61205a81612574565b82525050565b600061206b82612524565b6120758185612547565b935061208083612514565b8060005b838110156120b1578151612098888261201b565b97506120a38361253a565b925050600181019050612084565b5085935050505092915050565b6120c781612598565b82525050565b6120d6816125ed565b82525050565b60006120e78261252f565b6120f18185612558565b9350612101818560208601612632565b61210a81612761565b840191505092915050565b60006121208261252f565b61212a8185612569565b935061213a818560208601612632565b80840191505092915050565b6000612153603c83612558565b915061215e82612772565b604082019050919050565b6000612176601b83612558565b9150612181826127c1565b602082019050919050565b6000612199602f83612558565b91506121a4826127ea565b604082019050919050565b60006121bc603d83612558565b91506121c782612839565b604082019050919050565b60006121df603383612558565b91506121ea82612888565b604082019050919050565b6000612202601983612558565b915061220d826128d7565b602082019050919050565b6000612225603183612558565b915061223082612900565b604082019050919050565b6000612248601c83612558565b91506122538261294f565b602082019050919050565b612267816125ce565b82525050565b612276816125ce565b82525050565b60006122888284612115565b915081905092915050565b60006020820190506122a86000830184612051565b92915050565b60006020820190506122c36000830184612042565b92915050565b600060208201905081810360008301526122e38184612060565b905092915050565b600060408201905081810360008301526123058185612060565b90506123146020830184612051565b9392505050565b600060408201905081810360008301526123358185612060565b90506123446020830184612033565b9392505050565b600060208201905061236060008301846120be565b92915050565b600060208201905061237b60008301846120cd565b92915050565b6000602082019050818103600083015261239b81846120dc565b905092915050565b600060208201905081810360008301526123bc81612146565b9050919050565b600060208201905081810360008301526123dc81612169565b9050919050565b600060208201905081810360008301526123fc8161218c565b9050919050565b6000602082019050818103600083015261241c816121af565b9050919050565b6000602082019050818103600083015261243c816121d2565b9050919050565b6000602082019050818103600083015261245c816121f5565b9050919050565b6000602082019050818103600083015261247c81612218565b9050919050565b6000602082019050818103600083015261249c8161223b565b9050919050565b60006020820190506124b8600083018461226d565b92915050565b60006124c86124d9565b90506124d48282612665565b919050565b6000604051905090565b600067ffffffffffffffff8211156124fe576124fd61271e565b5b61250782612761565b9050602081019050919050565b6000819050602082019050919050565b600081519050919050565b600081519050919050565b6000602082019050919050565b600082825260208201905092915050565b600082825260208201905092915050565b600081905092915050565b600061257f826125a4565b9050919050565b6000612591826125a4565b9050919050565b60008115159050919050565b600073ffffffffffffffffffffffffffffffffffffffff82169050919050565b6000819050919050565b600060ff82169050919050565b60006125e6826125ff565b9050919050565b60006125f8826125ff565b9050919050565b600061260a82612611565b9050919050565b600061261c826125a4565b9050919050565b82818337600083830152505050565b60005b83811015612650578082015181840152602081019050612635565b8381111561265f576000848401525b50505050565b61266e82612761565b810181811067ffffffffffffffff8211171561268d5761268c61271e565b5b80604052505050565b60006126a1826125ce565b915060ff8214156126b5576126b46126c0565b5b600182019050919050565b7f4e487b7100000000000000000000000000000000000000000000000000000000600052601160045260246000fd5b7f4e487b7100000000000000000000000000000000000000000000000000000000600052603260045260246000fd5b7f4e487b7100000000000000000000000000000000000000000000000000000000600052604160045260246000fd5b600080fd5b600080fd5b600080fd5b600080fd5b6000601f19601f8301169050919050565b7f4120726174696e672068617320616c7265616479206265656e206c656674206660008201527f6f7220746865206275796572206f662074686973206c697374696e6700000000602082015250565b7f54686973206c697374696e6720646f6573206e6f742065786973740000000000600082015250565b7f4120646966666572656e742066696e616c20627579657220657869737473206660008201527f6f722074686973206c697374696e670000000000000000000000000000000000602082015250565b7f4120726174696e672068617320616c7265616479206265656e206c656674206660008201527f6f72207468652073656c6c6572206f662074686973206c697374696e67000000602082015250565b7f596f752063616e206f6e6c79206c65617665206120726174696e67206f6e206160008201527f2066696e616c697a656420707572636861736500000000000000000000000000602082015250565b7f596f752063616e206f6e6c79207261746520757020746f203500000000000000600082015250565b7f4f6e6c79207468652073656c6c6572206f662061206c697374696e672063616e60008201527f2072657669657720746865206275796572000000000000000000000000000000602082015250565b7f43616e27742073656e642061206e6567617469766520726174696e6700000000600082015250565b61298181612574565b811461298c57600080fd5b50565b61299881612586565b81146129a357600080fd5b50565b6129af81612598565b81146129ba57600080fd5b50565b6129c6816125c4565b81146129d157600080fd5b50565b6129dd816125ce565b81146129e857600080fd5b5056fea2646970667358221220ae71d543c5db3409eb3e0e77f765ce5bf722148d80ba7996a07e3147e0aaf05764736f6c63430008070033",
  "immutableReferences": {},
  "source": "// SPDX-License-Identifier: MIT\npragma solidity >=0.4.22 <0.9.0;\n\nimport \"../contracts/AccessControl.sol\";\nimport \"./Listings.sol\";\n\ncontract Ratings is AccessControl {\n    mapping(address => uint8[]) public sellerRatings;\n    mapping(address => uint8[]) public buyerRatings;\n\n    mapping(string => bool) public ratedSellerListings;\n    mapping(string => bool) public ratedBuyerListings;\n\n    Listings public listingsContract;\n\n    event SellerRatingsUpdated(uint8[] ratings, address seller);\n    event BuyerRatingsUpdated(uint8[] ratings, address buyer);\n\n    event RatingRecieved(uint8 rating);\n\n    constructor(address _listingsContract) {\n        listingsContract = Listings(_listingsContract);\n    }\n\n    function leaveSellerRating(string memory ipfsHash, uint8 rating)\n        public\n        returns (uint8[] memory)\n    {\n        (\n            address payable sellerAddress,\n            ,\n            address finalBuyer,\n            ,\n            ,\n            ,\n            bool bought,\n            ,\n            address payable useThirdPartyAddress\n        ) = listingsContract.listings(ipfsHash);\n\n        require(sellerAddress != address(0x0), \"This listing does not exist\");\n        require(\n            bought == true,\n            \"You can only leave a rating on a finalized purchase\"\n        );\n        require(\n            finalBuyer == msg.sender,\n            \"A different final buyer exists for this listing\"\n        );\n        require(\n            finalBuyer == msg.sender,\n            \"A different final buyer exists for this listing\"\n        );\n        require(\n            ratedSellerListings[ipfsHash] == false,\n            \"A rating has already been left for the seller of this listing\"\n        );\n        require(rating >= 0, \"Can't send a negative rating\");\n        require(rating <= 5, \"You can only rate up to 5\");\n\n        emit RatingRecieved(rating);\n\n        ratedSellerListings[ipfsHash] = true;\n\n        // if they used a third party, the reviews go to them\n        if (useThirdPartyAddress != address(0x0)) {\n            sellerRatings[useThirdPartyAddress].push(rating);\n            uint8[] memory ratings = new uint8[](\n                sellerRatings[useThirdPartyAddress].length\n            );\n            for (\n                uint8 i = 0;\n                i < sellerRatings[useThirdPartyAddress].length;\n                i++\n            ) {\n                ratings[i] = sellerRatings[useThirdPartyAddress][i];\n            }\n            emit SellerRatingsUpdated(ratings, useThirdPartyAddress);\n            return ratings;\n        } else {\n            sellerRatings[sellerAddress].push(rating);\n            uint8[] memory ratings = new uint8[](\n                sellerRatings[sellerAddress].length\n            );\n            for (uint8 i = 0; i < sellerRatings[sellerAddress].length; i++) {\n                ratings[i] = sellerRatings[sellerAddress][i];\n            }\n            emit SellerRatingsUpdated(ratings, sellerAddress);\n\n            return ratings;\n        }\n    }\n\n    function leaveBuyerRating(string memory ipfsHash, uint8 rating)\n        public\n        returns (uint8[] memory)\n    {\n        (\n            address payable sellerAddress,\n            ,\n            address finalBuyer,\n            ,\n            ,\n            ,\n            bool bought,\n            ,\n\n        ) = listingsContract.listings(ipfsHash);\n\n        require(sellerAddress != address(0x0), \"This listing does not exist\");\n        require(\n            bought == true,\n            \"You can only leave a rating on a finalized purchase\"\n        );\n        require(\n            sellerAddress == msg.sender,\n            \"Only the seller of a listing can review the buyer\"\n        );\n        require(\n            ratedBuyerListings[ipfsHash] == false,\n            \"A rating has already been left for the buyer of this listing\"\n        );\n        require(rating >= 0, \"Can't send a negative rating\");\n        require(rating <= 5, \"You can only rate up to 5\");\n\n        buyerRatings[finalBuyer].push(rating);\n\n        uint8[] memory ratings = new uint8[](buyerRatings[finalBuyer].length);\n        for (uint8 i = 0; i < buyerRatings[finalBuyer].length; i++) {\n            ratings[i] = buyerRatings[finalBuyer][i];\n        }\n        emit BuyerRatingsUpdated(ratings, finalBuyer);\n        ratedBuyerListings[ipfsHash] = true;\n\n        return ratings;\n    }\n\n    function sellerRatingAvailable(string memory ipfsHash)\n        public\n        view\n        returns (bool)\n    {\n        (, , , , , , bool bought, , ) = listingsContract.listings(ipfsHash);\n\n        return !ratedSellerListings[ipfsHash] && bought;\n    }\n\n    function buyerRatingAvailable(string memory ipfsHash)\n        public\n        view\n        returns (bool)\n    {\n        (, , , , , , bool bought, , ) = listingsContract.listings(ipfsHash);\n\n        return !ratedBuyerListings[ipfsHash] && bought;\n    }\n\n    function getSellerRatings(address seller)\n        public\n        view\n        returns (uint8[] memory)\n    {\n        uint8[] memory ratings = new uint8[](sellerRatings[seller].length);\n        for (uint8 i = 0; i < sellerRatings[seller].length; i++) {\n            ratings[i] = sellerRatings[seller][i];\n        }\n        return ratings;\n    }\n\n    function getBuyerRatings(address seller)\n        public\n        view\n        returns (uint8[] memory)\n    {\n        uint8[] memory ratings = new uint8[](buyerRatings[seller].length);\n        for (uint8 i = 0; i < buyerRatings[seller].length; i++) {\n            ratings[i] = buyerRatings[seller][i];\n        }\n        return ratings;\n    }\n}\n",
  "sourcePath": "/Users/berniesnell/Blockchain/barrio/fe-barrio/contracts/Ratings.sol",
  "compiler": {
    "name": "solc",
    "version": "0.8.7+commit.e28d00a7.Emscripten.clang"
  },
  "schemaVersion": "3.4.7",
  "updatedAt": "2022-05-24T17:58:35.199Z",
  "devdoc": {
    "kind": "dev",
    "methods": {
      "pause()": {
        "details": "Called by any \"C-level\" role to pause the contract. Used only when  a bug or exploit is detected and we need to limit damage."
      },
      "setCEO(address)": {
        "details": "Assigns a new address to act as the CEO. Only available to the current CEO.",
        "params": {
          "_newCEO": "The address of the new CEO"
        }
      },
      "setCFO(address)": {
        "details": "Assigns a new address to act as the CFO. Only available to the current CEO.",
        "params": {
          "_newCFO": "The address of the new CFO"
        }
      },
      "setCOO(address)": {
        "details": "Assigns a new address to act as the COO. Only available to the current CEO.",
        "params": {
          "_newCOO": "The address of the new COO"
        }
      },
      "unpause()": {
        "details": "Unpauses the smart contract. Can only be called by the CEO, since  one reason we may pause the contract is when CFO or COO accounts are  compromised."
      }
    },
    "version": 1
  },
  "userdoc": {
    "kind": "user",
    "methods": {
      "unpause()": {
        "notice": "This is public rather than external so it can be called by  derived contracts."
      }
    },
    "version": 1
  }
}